:0300000002165392
:1016530043AF01787FE4F6D8FD75A00075812102C0
:0216630016A0CF
:1015AB00434F42535F2573583A207C00540052003E
:1015BB0020256320007C0A003A004C612074656D85
:1015CB00706572617475726120736F6E20252E3297
:1015DB006620677261646F732063656C73697573E2
:1015EB000A0048617920756E612068756D656461CC
:1015FB00642064656C20252E32662025630A004129
:10160B00545330303D303030340D00415453303270
:10161B003D303030330D0041545330333D3030309A
:10162B00303030303030303030303030330D0041EE
:10163B00542B4A4E0D002563000A000A436F6E6E51
:08164B0065637465640A0D007B
:100F6B004100FC04410128004500FD000010081859
:100F7B004500370000100717450032000010001025
:100F8B00450028000010031345002D000011051427
:100F9B00450362000011021345012B0000110110E3
:100FAB0044004E00121006470002000210091230D6
:100FBB003947034D0002120912303945023B00003C
:100FCB00110E0F4500620000110F1E450236000086
:100FDB00100F1F4500F70000120F1D4502400000C7
:100FEB00111001460356000110100A0B45011D009C
:100FFB000011120346023000011012080B45005776
:10100B0000001119085F0009001A102F0630393043
:10101B0030FD007D037D037D03000000000A2E00E0
:10102B003448656C6C6F214501030000112031556C
:10103B0000AC0010102086FD007D037D037D0300B6
:10104B000000000A2E0001470108000210210030A9
:10105B003945034500001024344703670002101183
:10106B002512344E010F00091014674D794E65742B
:10107B00776F726B4E003C0008101C89FD12340018
:10108B0038000000005500970010101515001122B4
:10109B0033445566778899AABBCCDDEEFF4D0071C2
:1010AB00000810138311223344556677885000CF04
:1010BB00000B1016074D7950617373776F72646470
:1010CB0046005C0001101909065800DF00131027B9
:1010DB0000ABCD0000000000000000000000003459
:1010EB001260000141009601410093024100CE03C2
:1010FB0041010204410122054103610645005200F2
:10110B000011170655007E00101017693834303463
:10111B0044323030303030303035464345012300D7
:10112B0000101B0B45006C0000121B094200000055
:01113B0000B3
:10197500AE03AC05AD07AF04AB079005BBEEF07F3A
:04198500010216E560
:10198900AE03AC05AD07AF04AB079005BBEEF0E4C1
:04199900FF0216E54E
:0B1910009005BCEBF0A3EAF0A3E9F0A7
:10191B001219AF9005BCE0FBA3E0FAA3E0F9EF12BC
:04192B0005AB7F0386
:01192F002295
:10113D00900578EBF0A3EAF0A3E9F0A3ECF0A3EDB2
:01114D00F0B1
:10114E00E4900580F0A3F0A3F0A304F0E4A3F0A3D1
:10115E00F0A304F090057BE0FEA3E0FF900580E095
:10116E00FCA3E0FDC39FEC9E400302125D90057848
:10117E00E0FBA3E0FAA3E0F98D828C8312057E706A
:10118E0048900586E0FF90057DE0FBA3E0FAA3E022
:10119E00F9900584E0FCA3E0F5828C83EF1205BD87
:1011AE009005867401F0900582E475F00112063404
:1011BE00AFF0900584F0A3EFF0900581E004F0709D
:1011CE0093900580E004F0808B900578E0FBA3E01F
:1011DE00FAA3E0F9900580E475F00112063485F06B
:1011EE0082F58312057EFF90057DE0FBA3E0FAA356
:1011FE00E0F9900582E475F00112063485F082F56F
:10120E0083EF1205BD900586E004F0E0FF3395E014
:10121E00FEEFF44E600302116290057DE0FBA3E049
:10122E00FAA3E0F9900584E0FCA3E0F5828C83EF4D
:10123E001205BD9005867401F0900582E475F001EB
:10124E00120634AFF0900584F0A3EFF00211629015
:10125E000586E0FF90057DE0FBA3E0FAA3E0F990A0
:10126E000584E0FCA3E0F5828C83EF1205BD9005AA
:06127E0082E0FEA3E0FF88
:011284002247
:100B5900900373EBF0A3EAF0A3E9F0A3ECF0A3EDA3
:010B6900F09B
:100B6A00E4900379F0FF900378E0A3F00FEF7005AB
:0B0B7A007EFF7FFE22900379E0704AAE
:100B85009000CAE0FE3395E090037AF0A3CEF09092
:100B950000C4E4F0A37405F0E4A3F0A3F0A304F00B
:100BA500E4A3F0A3F0A3F0FE7F05FCFD900373E042
:100BB500FBA3E0FAA3E0F91206AA90037AE070021B
:0A0BC500A3E07003FEFF22020D3AC8
:100BCF00900379E07003020D3A9000C8E064016071
:100BDF0003020D3AC39000C7E094029000C6E06490
:100BEF00809480406E9000C9E07068900373E0FBC2
:100BFF00A3E0FAA3E0F990000112057EFD7C00123C
:100C0F000565FEE42DFFEC3EFE9000C5E02FF09051
:100C1F0000C4E03EF0900376E0FEA3E0FF9000C436
:100C2F00E0FCA3E0FDD39FEC9E4003020CCBED2430
:100C3F00FBFFEC34FFFE7C007D00900373E0FBA311
:100C4F00E0FAA3E02405F9E43AFA1206AA9000C9E3
:100C5F007401F09000CAE07070900379E0FFC394C4
:100C6F00D0500CEF149000CAF0A37401F080529092
:100C7F000379E0B4D00A149000CAF0E4A3F08041E5
:100C8F00900379E0FF64D16004EFB4D202802D901D
:100C9F000379E0FFC394E0500CE49000CAF0EF2416
:100CAF0030A3F0801C900379E0FFC394FF500DEF49
:100CBF0024209000CAF0A37402F080057EFF7FFF0E
:100CCF00229000CAE0706880489000C4E0FEA3E064
:100CDF00FFA3E0FCA3E0FDC39FEE6480F8EC64800B
:100CEF00985018900379E0FF900373E0FBA3E0FAAC
:100CFF00A3E0F98D828C83EF1205BD9000C7E0044D
:100D0F00F070069000C6E004F09000CAE014F07096
:100D1F001EA3E0FF3395E0FE9000C7E02FF0900098
:100D2F00C6E03EF0E49000CBF08004E4FEFF22909A
:100D3F0000C4E0FCA3E0FDC39000C7E09DEC64801D
:100D4F00F89000C6E06480984008E49000C8F0FE78
:060D5F00FF22AF05AE0407
:010D6500226B
:1016E5009005B9EDF0A3EBF06023EF7BFF60067A80
:1016F5001579B780047A1579B990057BEBF0A3EAE3
:10170500F0A3E9F07BFF7A1579AB1207419005BA92
:10171500E06004A3E070117BFF7A1579BB9005B9F1
:10172500E090057BF01207419005BBE07BFF60066A
:0E1735007A1579C080047A1579C31207412213
:0B17F0009005A8EBF0A3EAF0A3E9F0DD
:1017FB009005AFEBF0A3EAF0A3E9F09005AD74FF11
:10180B00F5F0120634FED3E5F09400EE940040168A
:10181B009005AFE0FBA3E475F001120634A9F0FAD2
:10182B00ED1205AB80D59005A8E0FBA3E0FAA3E091
:01183B00F9B3
:01183C002289
:10199D0075A9A4E4F5A3F5A2F5A4F5A58FA675A1E7
:0219AD005322C3
:0719C20075EFAC75D803229C
:10193000759852758780758921758DFAD28ED299E6
:07194000C2ACC2ABD2AF2222
:10194700D2DC20DCFDE5DA540FFEADD97C00E42DB6
:06195700FFEC3EFEC2DCC5
:01195D002267
:0919B900D287D285C283D28022BC
:10186F00A2099283C2872086FD90012AE5A0F0D2BB
:10187F0087C2852084FD900129E5A0F0D285E0FE86
:0A188F00A3E07C002400FFEC3EFE05
:01189900222C
:030053000218C2CE
:1018C200C0E0C083C082C0D090034CE004F0E0B41A
:1018D2000206C280D280E4F09000697401F0D0D098
:0718E200D082D083D0E03278
:1013CD00900001E004F07006900000E004F0900041
:1013DD006AE0FCA3E0FD900000E0FEA3E0FF120533
:1013ED00DFED4C707BC20912186F9005B2EEF0A3C1
:1013FD00EFF0FDAC06EC1202F97B007A6679D57838
:10140D00C612005D120332900067EEF0A3EFF0906C
:10141D000067E0FCA3E0FDE41202F9E4FBFA79C8F1
:10142D00784212025790057B1206587BFF7A157988
:10143D00C5120741900067E0FEA3E0FFC39419EECB
:10144D009400400A9005B6E4F0A304F08012C3EFB7
:10145D009419EE940050099005B6E4F0A37402F0CF
:10146D00E4FFFE0FBF00010EEF64644E70F59000B7
:10147D00CCE0FCA3E0FD900000E0FEA3E0FF120530
:10148D00DFED4C705ED20912186F9005B4EEF0A32B
:10149D00EFF0FDAC06EC1202F9E4FBFA79FE7842AE
:1014AD0012014EE4FBFA79C8784212025712033248
:1014BD009000C2EEF0A3EFF09000C2E0FCA3E0FDBF
:1014CD00E41202F9E4FBFA79C8784212025790054A
:1014DD007B12065890057F7425F07BFF7A1579ED08
:0314ED00120741A2
:0114F00022D9
:04183D00E4FD7F4FF8
:081841009005BFEFF0A3EDF0EC
:10184900A37401F01219AF9005BFE0B50707E49042
:1018590005C1F0800A9005C0E0B401031218E990AF
:0518690005C1E070DF85
:01186E002257
:10179F009005C2EFF07BFF7A16790A1207411218F3
:1017AF003DE4FD7F4B1218417BFF7A167916120725
:1017BF004112183DE4FD7F4B1218417BFF7A1679D9
:1017CF002212074112183DE4FD7F4B1218417BFF97
:1017DF007A16793A12074112183DE4FD7F4B021831
:0117EF0041B8
:10189A00E4FD7F55121841E4FD7F3A1218417D019B
:1018AA007F2C1218417F091218E9E4FD7F3D1218B6
:0818BA00417D017F030218418A
:10174300900578EBF0A3EAF0A3E9F0A3ECF0A3EDA6
:01175300F0A5
:10175400E4A3F0FDFCD390057CE09D90057BE09C28
:1017640040339000FCE06D7001EC90057D601DE05D
:10177400FF900578E0FBA3E0FAA3E0F98D828C8367
:1017840012057EFEEF6E90057DF08002E0F00DBD47
:0A17940000010C80C090057DE0FF0D
:01179E002228
:0614F1007B017D157C006B
:1014F70090036FEBF0A3EAF0A3E9F0A3ECF0A3ED00
:01150700F0F3
:10150800E4900574F0A3F0A3F0A3F090036FE0FB60
:10151800A3E0FAA3E0F912174390036FE0FBA3E0FE
:10152800FAA3E0F9900004EF1205BD900372E0FC05
:10153800A3E0FD90057D7401F0A37403F0A3747417
:10154800F012113D900576EEF0A3EFF07BFF7A16CE
:101558007941900128E090057BF0120741E490055D
:1015680074F0A3F0900576E0FEA3E0FF900574E028
:10157800FCA3E0FDC39FEC9E50287BFF7A167941BF
:1015880074742DF58274033CF583E090057BF012AA
:101598000741900575E004F070CA900574E004F006
:0215A80080C2FF
:0115AA00221E
:041285007F067E0062
:0812890090036FEEF0A3EFF0FB
:1012910090036FE0FEA3E0FFC3900355E09F90032E
:1012A10054E09E50231219AF900354A3E02445F556
:1012B10082E43402F583EFF0900355E004F070D03E
:1012C100900354E004F080C890035FE4F0A304F0BD
:1012D10090036FE0FEA3E0FF90035FE0FCA3E0FD5D
:1012E100C39FEC9E50287BFF7A16794174452DF5FA
:1012F10082E43402F583E090057BF012074190030C
:1013010060E004F070CA90035FE004F080C27BFFEC
:101311007A167944120741E490035FF0A3F0900339
:101321006FE0FCA3E0FDC3900360E09D90035FE0EC
:101331009C50297B017A017930A3E02445F582E4B0
:101341003402F583E0900378F0120B59900360E0CA
:1013510004F070CA90035FE004F080C2900131E0B4
:10136100FF900371E4F0A3EFF0E490035FF0A3F0CA
:10137100900372E02405FF900371E03400FE9003B6
:101381005FE0FCA3E0FDC39FEC9E503FED4C7BFF73
:101391007A167941700F74302DF582E43401F583AA
:1013A100E0240E800F90035FA3E02430F582E43443
:1013B10001F583E090057BF0120741900360E004A2
:0B13C100F070AD90035FE004F080A529
:0113CC0022FE
:07195E00E4900354F0A3F034
:10196500900069E0B40102E4F0900069E060FA22B9
:100D660090036EEFF07B017A0379457D057C0012D6
:100D760014F712128512195E7BFF7A167944120750
:100D8600417BFF7A16794412074190036EE090008A
:100D960061F07B017A00795C7D067C001214F71203
:100DA6001285E4900354F0A3F07BFF7A167944127F
:100DB60007417BFF7A1679441207411219657B01B8
:100DC6007A0279307D067C001214F71212857BFFB9
:100DD6007A1679441207417BFF7A16794412074145
:100DE60012195E7B017A0379677D077C001214F77E
:100DF6001212857BFF7A1679441207417BFF7A1619
:100E06007944120741121965E4900354F0A3F07B6C
:100E1600017A01790F7D0EFC1214F71212857BFF01
:100E26007A1679441207417BFF7A167944120741F4
:100E360012195E7B017A00793C7D0E7C001214F754
:100E46001212857BFF7A1679441207417BFF7A16C8
:100E5600794412074112195E7A0079971214F11239
:100E660012857BFF7A1679441207417BFF7A167941
:100E76004412074112195E7B017A0079717D0D7C5F
:100E8600001214F71212857BFF7A16794412074175
:100E96007BFF7A16794412074112195E7B017A00AC
:100EA60079CF7D107C001214F71212857BFF7A161B
:100EB60079441207417BFF7A1679441207411219C9
:100EC6005E7A00797E1214F11212857BFF7A16790A
:100ED600441207417BFF7A167944120741121965BD
:100EE600E4900354F0A3F07B017A0079FD7D05FCC4
:100EF6001214F71212857BFF7A1679441207417B8A
:100F0600FF7A167944120741121965E4900354F0EA
:100F1600A3F07B017A0079AC7D15FC1214F712124E
:100F2600857BFF7A1679441207417BFF7A1679444E
:100F3600120741121965E4900354F0A3F07B017A7D
:100F46000079027D07FC1214F77F097E00121289D0
:100F56007BFF7A1679441207417BFF7A1679441291
:050F66000741021965BE
:10000300E490034CF0900069F07F0512199D1219DA
:10001300C21219301219B9A3E4F0A304F09000CC72
:10002300E4F0A37405F0A3E0FF120D667BFF7A16DC
:100033007946120741900069E0B401F97B017A0027
:1000430079097D1F7C001214F7E4900069F080E5C4
:1000560002039EE86480F8E933E83360110460F037
:10006600ED33EC337009E8FCE9FDEAFEEBFF220410
:1000760060DED3EB9FEA9EE99DE8C2E78CF0C2F70B
:1000860095F0400CE8CCF8E9CDF9EACEFAEBCFFBD7
:1000960012036985D0F05804700320D5B3E80470C4
:1000A600075002B2D50203A892D5EC0460F7E4CC5F
:1000B600C0E0C398F8603B94186008400DD0E0FBA0
:1000C600020380E4FBFAC9FC8028E830E406E4C9B0
:1000D600FBE4CAFCE830E305E4C9CACBFCE85407F4
:1000E6006010F8C3E913F9EA13FAEB13FBEC13FCFF
:1000F600D8F130F52FC3E49CFCEF9BFFEE9AFEEDA2
:1001060099FDD0E0FBEF4E4D4C701222DB0302034B
:10011600A5EC2CFCEF33FFEE33FEED33FDED30E7BF
:10012600EB020380EF2BFFEE3AFEED39FDD0E0FB4C
:1001360050130BBB00030203A8ED13FDEE13FEEFF5
:0801460013FFEC13FC0203801F
:10014E00EC4D6011E8497017ED33EC3304600DE4AB
:10015E00FCFFFEFD22E933E8330470F802039E1221
:10016E00036958046009E4CC248150062850090222
:10017E0003A82840030203A5C0E0EB4A7044B980EF
:10018E0006D0E0FB020394EF4E701CBD8008EBFF1F
:10019E00EAFEE9FD80EBE98DF0A4FEE5F002023700
:1001AE00E9CDF9EAFEEBFFEF89F0A4FCE5F0CE898C
:1001BE00F0A42EFFE435F0CD89F0A42DFEE435F049
:1001CE008067EF4E7005BD80D780C3EF8BF0A4AC77
:1001DE00F0EE8BF0A42CFCE435F0F8EF8AF0A42CB2
:1001EE00E5F038FCE433CB8DF0A42CFCE5F03BF8C5
:1001FE00EE8AF0A42CFCE5F038F8E433CF89F0A4B5
:10020E002CFCE5F038CF3400CE89F0A42FFFE5F0BA
:10021E003EFEE433C98DF0A42EFEE5F039CD8AF012
:10022E00A42FFFE5F03EFEE43DFD33D0E0FB50078A
:10023E000BBB000F0203A8EC2CFCEF33FFEE33FEDA
:06024E00ED33FD02038008
:100254000203A8EC5D046005E85904700302039EE0
:10026400120369580460F6EC4860F2EC7004FDFE79
:10027400FF22C860DB2481C85009C398600250067D
:100284000203A59850CAF582E9294B4A7005AB824E
:1002940002039475F0007C1A7880C3EF9BEE9AED0C
:1002A40099400DC3EF9BFFEE9AFEED99FDE842F0F5
:1002B400DC23ACF0D0E0FFD0E0FED0E0FDAB822048
:1002C400E7101BEB60BAEC2CFCEF33FFEE33FEEDD2
:1002D40033FD020380E803F830E705C0F075F00051
:1002E400EF2FFFEE33FEED33FD40B830E7C280AAB6
:1002F40075F020800E75F010800575F0087D007E85
:10030400007F003392D530D50312064AEC334010F7
:10031400EF33FFEE33FEED33FDEC33FCD5F0ED228D
:0E032400E5F0247EA2D513CC92E7CDCEFF22C9
:10033200EDD2E7CD33EC3392D524814006E4FFFEC3
:10034200FDFC22FCE4CFCECDCC24E0501174FF8022
:10035200EDC3CC13CCCD13CDCE13CECF13CF0470BF
:07036200F030D5DE02064A6F
:1006D600E508247BF582E43405F583E005082290DD
:1006E600057830070390057BE475F0011206640275
:1006F60005652000E97F2ED2008018EF540F249064
:10070600D43440D4FF30040BEF24BFB41A00500396
:100716002461FFE50960021509050CE50C70020568
:100726000B30070E900578E475F001120664EF02AF
:1007360005AB0218E97403D2078003E4C207F50883
:1007460090057812067BE4F509F50BF50CE50960D2
:10075600077F2012071980F5750AFFC201C200C281
:1007660002C203C205C206C2081206E5FF700D30BA
:1007760007057F0012072AAF0CAE0B22B4255FC215
:10078600D5C2041206E5FF24D0B40A00501A75F04B
:100796000A780930D50508B6FF0106C6A426F62054
:1007A600D5047002D20380D924CFB41A00EF5004C6
:1007B600C2E5D204020A1CD20180C6D20080C0D291
:1007C6000280BCD2D580BAD20580B47F2012071928
:1007D6002002077401B5090040F11206D6FF120780
:1007E60019020753D208D20680951206D6FB1206C6
:1007F600D6FA1206D6F94A4B7006791A7A0B7BFF9F
:1008060020022EE509602A7E008E8275830012057D
:100816007E60060EEE650A70F0C2D5EBC0E0EAC057
:10082600E0E9C0E0EE120A7DD0E0F9D0E0FAD0E0CF
:10083600FB120565FF60AAEBC0E0EAC0E0E9C0E094
:10084600120719D0E02401F9D0E03400FAD0E0FB19
:10085600E50A0460DCD50AD98087D20280A2120A92
:100866005F60F7E50A7001041203B3A90A600DE59B
:100876000A600914F50A120B07EF60F3EA30E70283
:10088600F404C3995079EAF4250A0430E701E40434
:10089600F50A800D120A5F60C1EA050A250A1203ED
:1008A600B3EA9005A7F030E701E4250A04D50A0467
:1008B60020050114120A7DE4C0E0120B079005A77B
:1008C600E0601320E70714F0120701802204F0D03D
:1008D600E014C0E07F00120701E50A60071206F87F
:1008E600150A800B3005031206F8D0E0020753D034
:1008F600E00480C4120A5F609EE50A041203B39006
:1009060005A7EAF0E50A2005026001042404120A9C
:010916007D63
:1009170074FF04C0E0120B07120701E50A20050265
:1009270060031206F8D0E0B50AE87F4512070B907E
:1009370005A7E07F2B30E7047F2DF404C0E0120702
:1009470019D0E075F00A84C0F0120702D0E0120750
:1009570002020753791080027908C206C20880088C
:10096700D2D5790A8004790AC2D5E50A047002F55E
:100977000AE4FAFDFEFF1206D6FC7B0820011312DB
:1009870006D6FD7B1030000A1206D6FE1206D6FFE9
:100997007B20EC3382D592D55013C3E43000069FF9
:1009A700FFE49EFEE42001039DFDE49CFCE4CBF8FC
:1009B700C201EC700CCFCECDCCE824F8F870F380F0
:1009C70017C3EF33FFEE33FEED33FDEC33FCEB33B0
:1009D700FB994002FB0FD8E9EB300105F8D0E0C4E2
:1009E70048B201C0E00AEC4D4E4F78207B0070C240
:1009F700EAB50A0040BCC0E0120A7FD0F0D0E02080
:100A07000104C4C0E0C4B201C0F0120702D0F0D59F
:100A1700F0EB02075312068407F053095B5807C12E
:100A27004C07BD42095F4F09674409674907D64329
:100A3700096D55089A4608FA450864470B3A500766
:100A4700C52D07C92E07EC2B07CD2307EA200B235B
:100A57002A078548000007E4E50AB4FF03750A067C
:100A67001206D6FC1206D6FD1206D6FE1206D6FFD1
:100A77009005A00203F0790AA2D5200314300509D6
:100A8700B910020404B9080104A2D52006025001D6
:100A9700042002689202B509005034C0E07F20307C
:100AA70003197F30A20272067205500F120AD6C2CE
:100AB70002C206C205C2087F30800F300503E9C0B5
:100AC700E0120719300503D0E0F9D0E0B509CC30C2
:100AD70005177F30B9100C1207197F583004077FAC
:100AE700788003B908031207193002057F2D020722
:100AF700197F202008F87F2B2006F322920280CF4F
:100B07007F00B40700500B24A0F582E43405F58379
:100B1700E0FF22286E756C6C2900D2011206D630D0
:100B270001F8C201780930D50108F60207852D5072
:100B37004349581206D62403B405004001E4900B3C
:100B4700359312070A743A12070AD2037509040289
:020B5700095B38
:10036900E9D2E7C933E833F892D5EDD2E7CD33ECDA
:0703790033FC5002B2D52253
:10038000EC30E7100FBF000C0EBE00080DBD0004DE
:100390000BEB6014A2D5EB13FCED92E7FD2274FF8A
:1003A000FCFDFEFF22E480F8A2D574FF13FC7D80E3
:0303B000E480EFF7
:1003B300F920E73624F950037907E4F42402FBE536
:1003C30082158270021583DBF6E024FB501BE96083
:1003D30014E4F0E582158270021583E004F0B40A98
:0D03E30008E4F0D9EE7401F00A22C2D52220
:1003F000ED33EC3392D5FA602AB4FF33EDC2E77BDC
:10040000FF60067A047915E4227A04791E20D50467
:100410007A047919224E614E002B494E46002D492F
:100420004E4600E47A08F0A3DAFC7B00740722C091
:1004300083C082ECC0E0EDC0E0EEC0E0EFC0E0EAD7
:1004400075F010A4CAABF075F04DA42BFBE435F0A9
:10045000FCEA2410FAEB34C5FBEC34D9FCEDC2E71E
:10046000FF75F056A4F42411C5F0F434C58FF0A440
:100470002AE5F03BE43CF020E714120525D0E0FF2C
:10048000D0E0FED0E0FDD0E0FC1202578014F4046E
:10049000120525D0E0FFD0E0FED0E0FDD0E0FC1258
:1004A000014ED082D083E0FAEDD2E7CD33EC332495
:1004B00082FBE4C3CF33CFCE33CECD33CD33DBF3AA
:1004C0007B0775F00A846004F0A31B0AE5F0F0A333
:1004D0008FF0740AA4FFACF08EF0740AA42CFEAC6A
:1004E000F050010C8DF0740AA42CFDE435F0F0A35B
:0504F000DBDE740722B1
:1004F5003F8000004120000042C80000447A00000F
:10050500461C400047C35000497424004B18968090
:100515004CBEBC205A0E1BCA6753C21C749DC5AE87
:10052500FB60065407601C2323120553EB54386007
:100535000912053F12054E12014EECF8EDF9EEFADF
:10054500EFCB22EB12054E80F1543803241C9004A6
:10055500F5FE93FC0EEE93FD0EEE930ECE93FF2269
:10166500020003E493A3F8E493A34003F68001F298
:1016750008DFF48029E493A3F85407240CC8C33386
:10168500C4540F4420C8834004F456800146F6DF55
:10169500E4800B0102040810204080900F6BE47E6B
:1016A500019360BCA3FF543F30E509541FFEE4934A
:1016B500A360010ECF54C025E060A840B8E493A311
:1016C500FAE493A3F8E493A3C8C582C8CAC583CA3C
:1016D500F0A3C8C582C8CAC583CADFE9DEE780BEF4
:01113C0000B2
:10056500BB010689828A83E0225002E722BBFE0294
:09057500E32289828A83E49322C7
:10057E00BB010CE58229F582E5833AF583E0225032
:10058E0006E92582F8E622BBFE06E92582F8E2227C
:0D059E00E58229F582E5833AF583E4932296
:1005AB00BB010689828A83F0225002F722BBFE012F
:0205BB00F32229
:1005BD00F8BB010DE58229F582E5833AF583E8F074
:1005CD00225006E92582C8F622BBFE05E92582C820
:0205DD00F22208
:1005DF00BC000BBE0029EF8DF084FFADF022E4CC00
:1005EF00F875F008EF2FFFEE33FEEC33FCEE9DECC9
:1005FF00984005FCEE9DFE0FD5F0E9E4CEFD22ED0F
:10060F00F8F5F0EE8420D21CFEADF075F008EF2F58
:10061F00FFED33FD4007985006D5F0F222C398FD49
:05062F000FD5F0EA22E6
:10063400A3F8E0C5F025F0F0E58215827002158379
:06064400E0C838F0E822D6
:0E064A00C3E49FFFE49EFEE49DFDE49CFC22C1
:0C065800ECF0A3EDF0A3EEF0A3EFF02215
:10066400F8E0FBA3A3E0F925F0F0E582158270021F
:070674001583E0FA38F022C3
:09067B00EBF0A3EAF0A3E9F02280
:10068400D083D082F8E4937012740193700DA3A305
:1006940093F8740193F5828883E473740293686019
:0606A400EFA3A3A380DF19
:1018E900EFB40A07740D1218F4740A309811A89904
:1018F900B8130CC2983098FDA899C298B811F6305F
:0719090099FDC299F5992236
:0A19AF003098FDAF99C2987E002227
:1006AA00EF4E6012EF60010EEDBB010B89828A8367
:1006BA00F0A3DFFCDEFA2289F05007F709DFFCA974
:0C06CA00F022BBFEFCF309DFFCA9F022CB
:00000001FF
