:03000000021CB32C
:101CB30043AF01787FE4F6D8FD75A000758121025A
:021CC3001D0002
:101D4500256300004C612074656D70657261747562
:101D5500726120736F6E20252E3266206772616472
:101D65006F732063656C736975730A004861792028
:101D7500756E612068756D656461642064656C20AD
:101D8500252E32662025630A0041545330303D30FC
:101D95003030340D0041545330323D303030330D46
:101DA5000041545330333D303030303030303030F6
:101DB500303030303030330D0041542B4A4E0D0059
:0F1DC5000A000A436F6E6E65637465640A0D0051
:10154E004100FC04410128004500FD000010081870
:10155E00450037000010071745003200001000103C
:10156E00450028000010031345002D00001105143E
:10157E00450364000011021345012B0000110110F8
:10158E0044004E00121006470002000210091230ED
:10159E003947034F0002120912303945023B000051
:1015AE00110E0F4500620000110F1E45023600009D
:1015BE00100F1F4500F70000120F1D4502400000DE
:1015CE00111001460358000110100A0F45011D00AD
:1015DE000011120346023000011012080B4500578D
:1015EE0000001119085F0009001A102F063039305B
:1015FE0030FD007D037D037D03000000000A2E00F8
:10160E003448656C6C6F2145010300001120315583
:10161E0000AC0010102086FD007D037D037D0300CD
:10162E000000000A2E004047010800021021003081
:10163E003945034500001024344703690002101198
:10164E002512344E010F00091014674D794E657442
:10165E00776F726B4E003C0008101C89FD1234002F
:10166E0038000000005500970010101515001122CB
:10167E0033445566778899AABBCCDDEEFF4D0071D9
:10168E00000810138311223344556677885000CF1B
:10169E00000B1016074D7950617373776F72646487
:1016AE0046005C0001101909065800DF00131027D0
:1016BE0000ABCD0000000000000000000000003470
:1016CE001260000141009601410093024100CE03D9
:1016DE004101020441012205410363064500520007
:1016EE000011170655007E0010101769383430347B
:1016FE0044323030303030303035464345012300EF
:10170E0000101B0B45006C0000121B09420000006C
:01171E0000CA
:10200F00AE03AC05AD07AF04AB079005F7EEF07F5D
:04201F0001021EC5D7
:10202300AE03AC05AD07AF04AB079005F7EEF0E4E4
:04203300FF021EC5C5
:0B1FAA009005F8EBF0A3EAF0A3E9F0CB
:101FB5001220579005F8E0FBA3E0FAA3E0F9EF1231
:041FC5000D777F0312
:011FC90022F5
:10172000900578EBF0A3EAF0A3E9F0A3ECF0A3EDC9
:01173000F0C8
:10173100E4900580F0A3F0A3F0A304F0E4A3F0A3E8
:10174100F0A304F090057BE0FEA3E0FF900580E0AC
:10175100FCA3E0FDC39FEC9E400302184090057876
:10176100E0FBA3E0FAA3E0F98D828C83120D4A70AD
:1017710048900586E0FF90057DE0FBA3E0FAA3E039
:10178100F9900584E0FCA3E0F5828C83EF120D89CA
:101791009005867401F0900582E475F001120E1631
:1017A100AFF0900584F0A3EFF0900581E004F070B4
:1017B10093900580E004F0808B900578E0FBA3E036
:1017C100FAA3E0F9900580E475F001120E1685F098
:1017D10082F583120D4AFF90057DE0FBA3E0FAA399
:1017E100E0F9900582E475F001120E1685F082F59C
:1017F10083EF120D89900586E004F0E0FF3395E058
:10180100FEEFF44E600302174590057DE0FBA3E077
:10181100FAA3E0F9900584E0FCA3E0F5828C83EF64
:10182100120D899005867401F0900582E475F0012E
:10183100120E16AFF0900584F0A3EFF00217459059
:101841000586E0FF90057DE0FBA3E0FAA3E0F990B7
:101851000584E0FCA3E0F5828C83EF120D899005ED
:0618610082E0FEA3E0FF9F
:01186700225E
:0E2049007BFF7A1D794590057BEFF0020F2991
:100056009005ABECF0A3EDF09005A8EBF0A3EAF069
:03006600A3E9F01B
:100069009005D3EBF0A3EAF0A3E9F0A3E4F0A3F041
:10007900A3F0F9A3C9F0A3F0A3E9F0E4A3F0A3F076
:10008900A3F0A304F0E4A3F0A3F0A3F0FE7F23FC04
:10009900FD7B017A0579B0120E929005D97401F0B1
:1000A900A37405F0A374C8F09005ABE0FEA3E0FFCC
:1000B900C39005B3E09F9005B2E09E40030205405E
:1000C9009005D3E0FBA3E0FAA3E0F9120D31600338
:1000D9000202B49005E0E004F0E06402600302016A
:1000E900C89005DEE0FEA3E0FF64014E7003020143
:1000F900C8EF24DFFFE43EFED3EF94FEEE940050F8
:1001090012E024DFF09005DEE03400F0E49005E031
:10011900F080069005E07401F09005DEA3E0FF9001
:1001290005D9E0FBA3E0FAA3E0F9EF120D779005FA
:10013900B1E004F070069005B0E004F09005D2E05B
:10014900FF24C8F9E43405FA7B01C003C002C001E9
:100159009005D9E0FBA3E0FAA3E0F9D082D083D0DF
:10016900E06B7008E965827003EA65837029900580
:10017900DCE0FCA3E0FDEF3395E0FEEF25E0FFEEC8
:1001890033FE74B42FF58274053EF583ECF0A3EDCC
:10019900F09005D2E004F09005D3E0F9A3E0FAA3CA
:1001A900E09005D9C9F0A3EAF0A3E9F09005B2E01F
:1001B900FFA3E09005DCCFF0A3EFF0A3E480689003
:1001C90005E0E0FF640F7065EF24D0FFE43390058C
:1001D900DEF0A3EFF09005D6E0FBA3E0FAA3E0F987
:1001E900A3EBF0A3EAF0A3E9F0EF120D779005B1C4
:1001F900E004F070069005B0E004F09005D3E0F952
:10020900A3E0FAA3E09005D9C9F0A3EAF0A3E9F0C5
:100219009005B2E0FFA3E09005DCCFF0A3EFF0E496
:100229009005E0F09005DEF0A304F080689005D217
:10023900E024C8F9E43405FA7B01C003C002C00117
:100249009005D9E0FBA3E0FAA3E0F9D082D083D0EE
:10025900E06B7008E965827003EA65837037900581
:10026900DEE07004A3E06401702B9005E0E0B401C6
:10027900249005D3E0F9A3E0FAA3E09005D9C9F0E9
:10028900A3EAF0A3E9F09005B2E0FFA3E09005DC52
:10029900CFF0A3EFF09005D3E0F9A3E0FAA3E0A330
:1002A900C9F0A3EAF0A3E9F00205259005E0E070A2
:1002B90003020450C3940340030203DE9005DEE009
:1002C900FCA3E0FD64014C6003020364A3E0B402F3
:1002D9000E9005DFE024DFF09005DEE03400F090B9
:1002E90005DEA3E0FF9005D9E0FBA3E0FAA3E0F95E
:1002F900EF120D779005B1E004F070069005B0E0BB
:1003090004F09005D6E0FBA3E0FAA3E0F9C003C02E
:1003190002C001A3E0FBA3E0FAA3E0F9D082D083F5
:10032900D0E06B7008E965827003EA6583600302B7
:10033900040B9005D2E024C8F9E43405FA9005D9F4
:100349007401F0A3EAF0A3E9F09005B2E0FFA3E09D
:100359009005DCCFF0A3EFF00204329005D9E0FB61
:10036900A3E0FAA3E0F9ED120D779005B1E004F0EE
:1003790070069005B0E004F09005D2E0FF24C8F9BA
:10038900E43405FA7B01C003C002C0019005D9E03D
:10039900FBA3E0FAA3E0F9D082D083D0E06B700828
:1003A900E965827003EA658370299005DCE0FCA3A6
:1003B900E0FDEF3395E0FEEF25E0FFEE33FE74B488
:1003C9002FF58274053EF583ECF0A3EDF09005D28C
:1003D900E004F0802D9005E0E024D0FFE43390059F
:1003E900DEF0A3EFF09005D9E0FBA3E0FAA3E0F972
:1003F900EF120D779005B1E004F070069005B0E0BA
:1004090004F09005D6E0F9A3E0FAA3E0A3C9F0A3AC
:10041900EAF0A3E9F09005B3E024FFFE9005B2E00D
:1004290034FF9005DCF0A3CEF0E49005E0F09005F0
:10043900DEF0A37402F09005B1E004F070069005B7
:10044900B0E004F00205259005DFE004F0700690A5
:1004590005DEE004F09005DEE07004A3E064D060FE
:10046900030205179005D9E0FBA3E0FAA3E0F974AC
:10047900D0120D779005B1E004F070069005B0E058
:1004890004F09005D2E0FF24C8F9E43405FA7B01B1
:10049900C003C002C0019005D9E0FBA3E0FAA3E0C4
:1004A900F9D082D083D0E06B7008E965827003EAE5
:1004B900658370299005DCE0FCA3E0FDEF3395E04E
:1004C900FEEF25E0FFEE33FE74B42FF58274053E8E
:1004D900F583ECF0A3EDF09005D2E004F09005D29D
:1004E900E024C8F9E43405FA9005D97401F0A3EAC7
:1004F900F0A3E9F09005B3E02401FE9005B2E034E1
:10050900009005DCF0A3CEF0A3E4F0A304F090057D
:10051900B1E004F070069005B0E004F09005D4E471
:1005290075F001120E009005B3E004F07006900515
:10053900B2E004F00200B19005E0E004F0E06402EA
:1005490060030206089005DEE0FEA3E0FF24DFFD5C
:10055900E43EFCD3ED94FEEC9400500EE024DFF071
:100569009005DEE03400F002061F9005D9E0FBA3F8
:10057900E0FAA3E0F9EF120D779005B1E004F0700D
:10058900069005B0E004F09005D2E0FF24C8F9E434
:100599003405FA7B01C003C002C0019005D9E0FB14
:1005A900A3E0FAA3E0F9D082D083D0E06B7008E928
:1005B90065827003EA658370299005DCE0FCA3E09D
:1005C900FDEF3395E0FEEF25E0FFEE33FE74B42F27
:1005D900F58274053EF583ECF0A3EDF09005D2E0C9
:1005E90004F09005D6E0F9A3E0FAA3E0A3C9F0A3CB
:1005F900EAF0A3E9F09005DEE4F0A304F080179097
:1006090005E0E0FFD39402400DEF24D0FEE43390DF
:1006190005DEF0A3CEF09005DEA3E0FF9005D9E05A
:10062900FBA3E0FAA3E0F9EF120D779005B1E0041E
:10063900F070069005B0E004F09005D2E0FF24C800
:10064900F9E43405FA7B01C003C002C0019005D961
:10065900E0FBA3E0FAA3E0F9D082D083D0E06B708D
:1006690008E965827003EA658370239005DCE0FC84
:10067900A3E0FDEF3395E0FEEF25E0FFEE33FE74D6
:10068900B42FF58274053EF583ECF0A3EDF0E49008
:1006990005B2F0A3F09005D2F09005B0E0FEA3E01A
:1006A900FF2401FDE43EFC9005E1E0FAA3E0FBC371
:1006B9009DEC6480F8EA6480984003020819EB4ACB
:1006C900703A9005E1E0B50609A3E0B507047B019E
:1006D90080027B007D01E4FF12200F9005ADA3E0AD
:1006E900FAA3E0F5828A83E4FF120E909005E2E016
:1006F90004F070A59005E1E004F0809D9005D2E03A
:10070900FDFF3395E0FEEF25E0FFEE33FE74B42FD5
:10071900F58274053EF583E0FEA3E0FF9005B2E0A3
:10072900FAA3E0FBEF6B7002EE6A706EEDFF339592
:10073900E0FE74C82FF58274053EF583E0FF605A28
:100749009005B0E0FCA3E0FD9005E1E0B50409A344
:10075900E0B505047B0180027B00E4FD12200F90C7
:1007690005D2E0FF3395E0FE74C82FF58274053E8B
:10077900F583E0FF9005ADA3E0FAA3E0F5828A8353
:10078900120E909005D2E004F09005E2E004F070BA
:0A079900069005E1E004F00206A25C
:1007A300E49005E3F09005E3E060030206A2900500
:1007B300A8E0FBA3E0FAA3E0F99005B2E475F00129
:1007C300120E1685F082F583120D4A9005E3F0E0D0
:1007D300FF60D29005B0E0FCA3E0FD9005E1E0B539
:1007E3000409A3E0B505047B0180027B00E4FD124C
:1007F300200F9005E3E0FF9005ADA3E0FAA3E0F539
:10080300828A83120E909005E2E004F070979005BF
:06081300E1E004F0808F1B
:080819009005E1E0FEA3E0FF01
:0108210022B4
:10134100900375EBF0A3EAF0A3E9F0A3ECF0A3EDB1
:01135100F0AB
:10135200E490037BF0FF90037AE0A3F00FEF7005B7
:0B1362007EFF7FFE2290037BE0704ABC
:10136D009000CAE0FE3395E090037CF0A3CEF090A0
:10137D0000C4E4F0A37405F0E4A3F0A3F0A304F01B
:10138D00E4A3F0A3F0A3F0FE7F05FCFD900375E050
:10139D00FBA3E0FAA3E0F9120E9290037CE0700239
:0A13AD00A3E07003FEFF22021522E8
:1013B70090037BE070030215229000C8E06401608F
:1013C70003021522C39000C7E094029000C6E064B0
:1013D700809480406E9000C9E07068900375E0FBD0
:1013E700A3E0FAA3E0F9900001120D4AFD7C001278
:1013F7000D31FEE42DFFEC3EFE9000C5E02FF0908E
:1014070000C4E03EF0900378E0FEA3E0FF9000C444
:10141700E0FCA3E0FDD39FEC9E40030214B3ED2450
:10142700FBFFEC34FFFE7C007D00900375E0FBA31F
:10143700E0FAA3E02405F9E43AFA120E929000C903
:101447007401F09000CAE0707090037BE0FFC394D2
:10145700D0500CEF149000CAF0A37401F0805290A2
:10146700037BE0B4D00A149000CAF0E4A3F08041F3
:1014770090037BE0FF64D16004EFB4D202802D902B
:10148700037BE0FFC394E0500CE49000CAF0EF2424
:1014970030A3F0801C90037BE0FFC394FF500DEF57
:1014A70024209000CAF0A37402F080057EFF7FFF1E
:1014B700229000CAE0706880489000C4E0FEA3E074
:1014C700FFA3E0FCA3E0FDC39FEE6480F8EC64801B
:1014D70098501890037BE0FF900375E0FBA3E0FAB8
:1014E700A3E0F98D828C83EF120D899000C7E00489
:1014F700F070069000C6E004F09000CAE014F070A7
:101507001EA3E0FF3395E0FE9000C7E02FF09000A8
:10151700C6E03EF0E49000CBF08004E4FEFF2290AA
:1015270000C4E0FCA3E0FDC39000C7E09DEC64802D
:10153700F89000C6E06480984008E49000C8F0FE88
:06154700FF22AF05AE0417
:01154D00227B
:101EC5009005F4EFF0A3EDF0A3EBF060097BFF7A4A
:101ED5001D7948120F299005F6E06004A3E070090A
:101EE5007BFF7A1D7948120F299005F7E060097B81
:091EF500FF7A1D7948120F292221
:0B0003009005E4EBF0A3EAF0A3E9F0A5
:10000E009005EBEBF0A3EAF0A3E9F09005E974FF9D
:10001E00F5F0120E16FED3E5F09400EE94004016A5
:10002E009005EBE0FBA3E475F001120E16A9F0FAB1
:10003E00ED120D7780D59005E4E0FBA3E0FAA3E086
:01004E00F9B8
:01004F00228E
:1020370075A9A4E4F5A3F5A2F5A4F5A58FA675A146
:02204700532222
:0720720075EFAC75D80322E5
:101FCA00759852758780758921758DFAD28ED29946
:071FDA00C2ACC2ABD2AF2282
:101FE100D2DC20DCFDE5DA540FFEADD97C00E42D16
:061FF100FFEC3EFEC2DC25
:011FF70022C7
:09206100D287D285C283D280220D
:101F3000A2099283C2872086FD90012AE5A0F0D2F3
:101F400087C2852084FD900129E5A0F0D285E0FEBE
:0A1F5000A3E07C002400FFEC3EFE3D
:011F5A002264
:03005300021F8306
:101F8300C0E0C083C082C0D090034CE004F0E0B452
:101F93000206C280D280E4F09000697401F0D0D0D0
:071FA300D082D083D0E032B0
:101ADE00900001E004F07006900000E004F0900029
:101AEE006AE0FCA3E0FD900000E0FEA3E0FF120D13
:101AFE00ABED4C707BC209121F309005EEEEF0A3D9
:101B0E00EFF0FDAC06EC120AC57B007A6679D5784B
:101B1E00C6120829120AFE900067EEF0A3EFF090AD
:101B2E000067E0FCA3E0FDE4120AC5E4FBFA79C805
:101B3E007842120A2390057B120E3A7BFF7A1D79AA
:101B4E0049120F29900067E0FEA3E0FFC39419EE3F
:101B5E009400400A9005F2E4F0A304F08012C3EF63
:101B6E009419EE940050099005F2E4F0A37402F07B
:101B7E00E4FFFE0FBF00010EEF64644E70F590009F
:101B8E00CCE0FCA3E0FD900000E0FEA3E0FF120D10
:101B9E00ABED4C705ED209121F309005F0EEF0A343
:101BAE00EFF0FDAC06EC120AC5E4FBFA79FE7842C2
:101BBE0012091AE4FBFA79C87842120A23120AFEB5
:101BCE009000C2EEF0A3EFF09000C2E0FCA3E0FDA7
:101BDE00E4120AC5E4FBFA79C87842120A2390058A
:101BEE007B120E3A90057F7425F07BFF7A1D79717A
:031BFE00120F299A
:011C010022C0
:041EFE00E4FD7F4F31
:081F02009005FBEFF0A3EDF0E8
:101F0A00A37401F01220579005FBE0B50707E4908F
:101F1A0005FDF0800A9005FCE0B4010312206A90E6
:051F2A0005FDE070DF81
:011F2F00228F
:101E30009005FEEFF07BFF7A1D798E120F29121E9E
:101E4000FEE4FD7F4B121F027BFF7A1D799A120F71
:101E500029121EFEE4FD7F4B121F027BFF7A1D79C3
:101E6000A6120F29121EFEE4FD7F4B121F027BFFFC
:101E70007A1D79BE120F29121EFEE4FD7F4B021F50
:011E8000025F
:101F5B00E4FD7F55121F02E4FD7F3A121F027D0143
:101F6B007F2C121F027F0912206AE4FD7F3D121F96
:081F7B00027D017F03021F0239
:101DD400900578EBF0A3EAF0A3E9F0A3ECF0A3ED0F
:011DE400F00E
:101DE500E4A3F0FDFCD390057CE09D90057BE09C91
:101DF50040339000FCE06D7001EC90057D601DE0C6
:101E0500FF900578E0FBA3E0FAA3E0F98D828C83CF
:101E1500120D4AFEEF6E90057DF08002E0F00DBDDB
:0A1E250000010C80C090057DE0FF75
:011E2F002290
:08206A003099FDC2998F992203
:061C02007B017D067C0061
:101C0800900371EBF0A3EAF0A3E9F0A3ECF0A3EDE5
:011C1800F0DB
:101C1900E4FDFC900576F0A3F07E027F0090037648
:101C2900E4F0A3DFFCDEFA7E027F00900371E0FBA3
:101C3900A3E0FAA3E0F9A3E0FCA3E0FD121DD49010
:101C49000371E0FBA3E0FAA3E0F9900004EF120DA1
:101C590089900374E0FCA3E0FD90057D7401F0A375
:101C69007403F0A37476F0121720900576EEF0A3B2
:101C7900EFF07BFF7A1D7945900128E090057BF014
:101C8900120F29E4FCFDD3900577E09D900576E0DD
:101C99009C401674762DF58274033CF583E0FF129F
:091CA900206A0DBD00010C80DD74
:011CB200220F
:041868007F067E0079
:08186C00900371EEF0A3EFF010
:10187400900371E0FEA3E0FFC3900357E09F900341
:1018840056E09E5023122057900356A3E02445F5BA
:1018940082E43402F583EFF0900357E004F070D053
:1018A400900356E004F080C8900361E4F0A304F0D0
:1018B400900371E0FEA3E0FF900361E0FCA3E0FD70
:1018C400C39FEC9E50287BFF7A1D794574452DF506
:1018D40082E43402F583E090057BF0120F29900333
:1018E40062E004F070CA900361E004F080C27BFF00
:1018F4007A1D79C5120F29E4900361F0A3F09003D7
:1019040071E0FCA3E0FDC3900362E09D900361E0FD
:101914009C50297B017A017930A3E02445F582E4C7
:101924003402F583E090037AF0121341900362E0ED
:1019340004F070CA900361E004F080C2900131E0C9
:10194400FF900373E4F0A3EFF0E4900361F0A3F0DD
:10195400900374E02405FF900373E03400FE9003C9
:1019640061E0FCA3E0FDC39FEC9E503F74302DF575
:1019740082E43401F583E0FF7BFF7A1D794570052D
:10198400EF240E800F900361A3E02430F582E43449
:1019940001F583E090057BF0120F29900362E004C7
:0B19A400F070AD900361E004F080A53E
:0119AF002215
:071FF800E4900356F0A3F092
:101FFF00900069E0B40102E4F0900069E060FA2219
:1019B000900370EFF07B017A0379457D057C00127E
:1019C0001C08121868121FF8900370E0900061F074
:1019D0007A00795C121C02121868121FF87A0279D8
:1019E00030121C02121868121FF87B017A03796901
:1019F0007D077C00121C08121868121FFFE4900378
:101A000056F0A3F07B017A01790F7D0EFC121C08C1
:101A1000121868121FF87B017A00793C7D0E7C0059
:101A2000121C08121868121FF87B017A0079977D42
:101A3000157C00121C08121868121FF87B017A002E
:101A400079717D0D7C00121C08121868121FF87B3A
:101A5000017A0079CF7D107C00121C0812186812E0
:101A60001FF87B017A00797E7D157C00121C08121C
:101A70001868121FFFE4900356F0A3F07B017A036D
:101A800079587D06FC121C08121FFFE4900356F0E3
:101A9000A3F07B017A0079FD7D05FC121C08121869
:101AA00068121FFFE4900356F0A3F07B017A0079DF
:101AB000AC7D15FC121C087F057E0012186C121FED
:101AC000FFE4900356F0A3F07B017A0079027D07D2
:0E1AD000FC121C087F097E0012186C021FFF1A
:101E8100E490034CF090006904F07F0512203712B2
:101E91002072121FCA122061900102E0FF1219B0D4
:101EA1007BFF7A1D79C7120F29900069E0B401F90F
:101EB1007B017A0079097D1F7C00121C08E49000E7
:041EC10069F080E55F
:10082200020B6AE86480F8E933E83360110460F08F
:10083200ED33EC337009E8FCE9FDEAFEEBFF22043C
:1008420060DED3EB9FEA9EE99DE8C2E78CF0C2F737
:1008520095F0400CE8CCF8E9CDF9EACEFAEBCFFB03
:10086200120B3585D0F05804700320D5B3E804701C
:10087200075002B2D5020B7492D5EC0460F7E4CCB7
:10088200C0E0C398F8603B94186008400DD0E0FBCC
:10089200020B4CE4FBFAC9FC8028E830E406E4C908
:1008A200FBE4CAFCE830E305E4C9CACBFCE8540720
:1008B2006010F8C3E913F9EA13FAEB13FBEC13FC2B
:1008C200D8F130F52FC3E49CFCEF9BFFEE9AFEEDCE
:1008D20099FDD0E0FBEF4E4D4C701222DB03020B70
:1008E20071EC2CFCEF33FFEE33FEED33FDED30E720
:1008F200EB020B4CEF2BFFEE3AFEED39FDD0E0FBA5
:1009020050130BBB0003020B74ED13FDEE13FEEF4D
:0809120013FFEC13FC020B4C77
:10091A00EC4D6011E8497017ED33EC3304600DE4D7
:10092A00FCFFFEFD22E933E8330470F8020B6A1279
:10093A000B3558046009E4CC24815006285009027A
:10094A000B74284003020B71C0E0EB4A7044B98073
:10095A0006D0E0FB020B60EF4E701CBD8008EBFF77
:10096A00EAFEE9FD80EBE98DF0A4FEE5F0020A0358
:10097A00E9CDF9EAFEEBFFEF89F0A4FCE5F0CE89B8
:10098A00F0A42EFFE435F0CD89F0A42DFEE435F075
:10099A008067EF4E7005BD80D780C3EF8BF0A4ACA3
:1009AA00F0EE8BF0A42CFCE435F0F8EF8AF0A42CDE
:1009BA00E5F038FCE433CB8DF0A42CFCE5F03BF8F1
:1009CA00EE8AF0A42CFCE5F038F8E433CF89F0A4E1
:1009DA002CFCE5F038CF3400CE89F0A42FFFE5F0E7
:1009EA003EFEE433C98DF0A42EFEE5F039CD8AF03F
:1009FA00A42FFFE5F03EFEE43DFD33D0E0FB5007B7
:100A0A000BBB000F020B74EC2CFCEF33FFEE33FE32
:060A1A00ED33FD020B4C60
:100A2000020B74EC5D046005E859047003020B6A64
:100A3000120B35580460F6EC4860F2EC7004FDFED1
:100A4000FF22C860DB2481C85009C39860025006A9
:100A5000020B719850CAF582E9294B4A7005AB82A6
:100A6000020B6075F0007C1A7880C3EF9BEE9AED64
:100A700099400DC3EF9BFFEE9AFEED99FDE842F021
:100A8000DC23ACF0D0E0FFD0E0FED0E0FDAB822074
:100A9000E7101BEB60BAEC2CFCEF33FFEE33FEEDFE
:100AA00033FD020B4CE803F830E705C0F075F000A9
:100AB000EF2FFFEE33FEED33FD40B830E7C280AAE2
:100AC00075F020800E75F010800575F0087D007EB1
:100AD000007F003392D530D503120E2CEC3340103A
:100AE000EF33FFEE33FEED33FDEC33FCD5F0ED22BA
:0E0AF000E5F0247EA2D513CC92E7CDCEFF22F6
:100AFE00EDD2E7CD33EC3392D524814006E4FFFEF0
:100B0E00FDFC22FCE4CFCECDCC24E0501174FF804E
:100B1E00EDC3CC13CCCD13CDCE13CECF13CF0470EB
:070B2E00F030D5DE020E2CB1
:100EBE00E508247BF582E43405F583E005082290ED
:100ECE00057830070390057BE475F001120E46029B
:100EDE000D312000E97F2ED2008018EF540F2490A0
:100EEE00D43440D4FF30040BEF24BFB41A005003A7
:100EFE002461FFE50960021509050CE50C70020579
:100F0E000B30070E900578E475F001120E46EF02D5
:100F1E000D7702206A7403D2078003E4C207F50836
:100F2E00900578120E5DE4F509F50BF50CE50960F8
:100F3E00077F20120F0180F5750AFFC201C200C2A1
:100F4E0002C203C205C206C208120ECDFF700D30DA
:100F5E0007057F00120F12AF0CAE0B22B4255FC235
:100F6E00D5C204120ECDFF24D0B40A00501A75F06B
:100F7E000A780930D50508B6FF0106C6A426F62064
:100F8E00D5047002D20380D924CFB41A00EF5004D6
:100F9E00C2E5D204021204D20180C6D20080C0D2B1
:100FAE000280BCD2D580BAD20580B47F20120F0148
:100FBE002002077401B5090040F1120EBEFF120F98
:100FCE0001020F3BD208D2068095120EBEFB120E06
:100FDE00BEFA120EBEF94A4B700679027A137BFFE7
:100FEE0020022EE509602A7E008E82758300120D86
:100FFE004A60060EEE650A70F0C2D5EBC0E0EAC09C
:10100E00E0E9C0E0EE121265D0E0F9D0E0FAD0E0EF
:10101E00FB120D31FF60AAEBC0E0EAC0E0E9C0E0D0
:10102E00120F01D0E02401F9D0E03400FAD0E0FB39
:10103E00E50A0460DCD50AD98087D20280A212129A
:10104E004760F7E50A700104120B7FA90A600DE5EF
:10105E000A600914F50A1212EFEF60F3EA30E702A4
:10106E00F404C3995079EAF4250A0430E701E40444
:10107E00F50A800D12124760C1EA050A250A120B05
:10108E007FEA9005A7F030E701E4250A04D50A04AB
:10109E0020050114121265E4C0E01212EF9005A7AC
:1010AE00E0601320E70714F0120EE9802204F0D05E
:1010BE00E014C0E07F00120EE9E50A6007120EE0B0
:1010CE00150A800B300503120EE0D0E0020F3BD064
:1010DE00E00480C4121247609EE50A04120B7F9052
:1010EE0005A7EAF0E50A20050260010424041212A5
:0110FE00658C
:1010FF0074FF04C0E01212EF120EE9E50A20050298
:10110F006003120EE0D0E0B50AE87F45120EF390AF
:10111F0005A7E07F2B30E7047F2DF404C0E0120F0A
:10112F0001D0E075F00A84C0F0120EEAD0E0120E82
:10113F00EA020F3B791080027908C206C2088008C4
:10114F00D2D5790A8004790AC2D5E50A047002F56E
:10115F000AE4FAFDFEFF120EBEFC7B0820011312FB
:10116F000EBEFD7B1030000A120EBEFE120EBEFF29
:10117F007B20EC3382D592D55013C3E43000069F09
:10118F00FFE49EFEE42001039DFDE49CFCE4CBF80C
:10119F00C201EC700CCFCECDCCE824F8F870F38000
:1011AF0017C3EF33FFEE33FEED33FDEC33FCEB33C0
:1011BF00FB994002FB0FD8E9EB300105F8D0E0C4F2
:1011CF0048B201C0E00AEC4D4E4F78207B0070C250
:1011DF00EAB50A0040BCC0E0121267D0F0D0E020A0
:1011EF000104C4C0E0C4B201C0F0120EEAD0F0D5C1
:1011FF00F0EB020F3B120E660FD8531143580FA995
:10120F004C0FA54211474F114F44114F490FBE4389
:10121F0011555510824610E245104C471322500FBE
:10122F00AD2D0FB12E0FD42B0FB5230FD220130BD3
:10123F002A0F6D4800000FCCE50AB4FF03750A06AC
:10124F00120EBEFC120EBEFD120EBEFE120EBEFF21
:10125F009005A0020BBC790AA2D520031430050912
:10126F00B910020404B9080104A2D52006025001E6
:10127F00042002689202B509005034C0E07F20308C
:10128F0003197F30A20272067205500F1212BEC2EE
:10129F0002C206C205C2087F30800F300503E9C0C5
:1012AF00E0120F01300503D0E0F9D0E0B509CC30E2
:1012BF0005177F30B9100C120F017F583004077FCC
:1012CF00788003B90803120F013002057F2D020F3A
:1012DF00017F202008F87F2B2006F322920280CF77
:1012EF007F00B40700500B24A0F582E43405F5838A
:1012FF00E0FF22286E756C6C2900D201120EBE30F1
:10130F0001F8C201780930D50108F6020F6D2D5092
:10131F00434958120EBE2403B405004001E4901354
:10132F001D93120EF2743A120EF2D20375090402D3
:02133F00114358
:100B3500E9D2E7C933E833F892D5EDD2E7CD33EC06
:070B450033FC5002B2D5227F
:100B4C00EC30E7100FBF000C0EBE00080DBD00040A
:100B5C000BEB6014A2D5EB13FCED92E7FD2274FFB6
:100B6C00FCFDFEFF22E480F8A2D574FF13FC7D800F
:030B7C00E480EF23
:100B7F00F920E73624F950037907E4F42402FBE562
:100B8F0082158270021583DBF6E024FB501BE960AF
:100B9F0014E4F0E582158270021583E004F0B40AC4
:0D0BAF0008E4F0D9EE7401F00A22C2D5224C
:100BBC00ED33EC3392D5FA602AB4FF33EDC2E77B08
:100BCC00FF60067A0B79E1E4227A0B79EA20D504EE
:100BDC007A0B79E5224E614E002B494E46002D4989
:100BEC004E4600E47A08F0A3DAFC7B00740722C0BE
:100BFC0083C082ECC0E0EDC0E0EEC0E0EFC0E0EA04
:100C0C0075F010A4CAABF075F04DA42BFBE435F0D5
:100C1C00FCEA2410FAEB34C5FBEC34D9FCEDC2E74A
:100C2C00FF75F056A4F42411C5F0F434C58FF0A46C
:100C3C002AE5F03BE43CF020E714120CF1D0E0FF85
:100C4C00D0E0FED0E0FDD0E0FC120A238014F404C6
:100C5C00120CF1D0E0FFD0E0FED0E0FDD0E0FC12B1
:100C6C00091AD082D083E0FAEDD2E7CD33EC3324ED
:100C7C0082FBE4C3CF33CFCE33CECD33CD33DBF3D6
:100C8C007B0775F00A846004F0A31B0AE5F0F0A35F
:100C9C008FF0740AA4FFACF08EF0740AA42CFEAC96
:100CAC00F050010C8DF0740AA42CFDE435F0F0A387
:050CBC00DBDE740722DD
:100CC1003F8000004120000042C80000447A00003B
:100CD100461C400047C35000497424004B189680BD
:100CE1004CBEBC205A0E1BCA6753C21C749DC5AEB4
:100CF100FB60065407601C2323120D1FEB54386060
:100D010009120D0B120D1A12091AECF8EDF9EEFA8F
:100D1100EFCB22EB120D1A80F1543803241C900CF6
:100D2100C1FE93FC0EEE93FD0EEE930ECE93FF22C9
:101CC500021E81E493A3F8E493A34003F68001F296
:101CD50008DFF48029E493A3F85407240CC8C33320
:101CE500C4540F4420C8834004F456800146F6DFEF
:101CF500E4800B010204081020408090154EE47E1C
:101D0500019360BCA3FF543F30E509541FFEE493E3
:101D1500A360010ECF54C025E060A840B8E493A3AA
:101D2500FAE493A3F8E493A3C8C582C8CAC583CAD5
:101D3500F0A3C8C582C8CAC583CADFE9DEE780BE8D
:01171F0000C9
:100D3100BB010689828A83E0225002E722BBFE02C0
:090D4100E32289828A83E49322F3
:100D4A00BB010CE58229F582E5833AF583E022505E
:100D5A0006E92582F8E622BBFE06E92582F8E222A8
:0D0D6A00E58229F582E5833AF583E49322C2
:100D7700BB010689828A83F0225002F722BBFE015B
:020D8700F32255
:100D8900F8BB010DE58229F582E5833AF583E8F0A0
:100D9900225006E92582C8F622BBFE05E92582C84C
:020DA900F22234
:100DAB00BC000BBE0029EF8DF084FFADF022E4CC2C
:100DBB00F875F008EF2FFFEE33FEEC33FCEE9DECF5
:100DCB00984005FCEE9DFE0FD5F0E9E4CEFD22ED3B
:100DDB00F8F5F0EE8420D21CFEADF075F008EF2F85
:100DEB00FFED33FD4007985006D5F0F222C398FD76
:050DFB000FD5F0EA2213
:100E0000C5F0F8A3E028F0C5F0F8E582158270027D
:060E10001583E038F0221A
:100E1600A3F8E0C5F025F0F0E5821582700215838F
:060E2600E0C838F0E822EC
:0E0E2C00C3E49FFFE49EFEE49DFDE49CFC22D7
:0C0E3A00ECF0A3EDF0A3EEF0A3EFF0222B
:100E4600F8E0FBA3A3E0F925F0F0E5821582700235
:070E56001583E0FA38F022D9
:090E5D00EBF0A3EAF0A3E9F02296
:100E6600D083D082F8E4937012740193700DA3A31B
:100E760093F8740193F5828883E47374029368602F
:060E8600EFA3A3A380DF2F
:060E8C008A838982E473F1
:0A2057003098FDAF99C2987E002278
:100E9200EF4E6012EF60010EEDBB010B89828A8377
:100EA200F0A3DFFCDEFA2289F05007F709DFFCA984
:0C0EB200F022BBFEFCF309DFFCA9F022DB
:00000001FF
