:020000040800F2
:1000000040070020A101000843170008850F0008E1
:1000100041170008D1020008C91A000800000000BA
:10002000000000000000000000000000471700086A
:10003000D302000800000000451700084917000817
:10004000BB010008BB010008BB010008BB010008A0
:10005000BB010008BB010008BB010008BB01000890
:10006000BB010008BB010008BB010008BB01000880
:10007000BB010008BB010008BB010008BB01000870
:10008000BB010008BB010008BB010008BB01000860
:10009000BB010008BB010008BB010008BB01000850
:1000A000BB010008BB010008BB010008BB01000840
:1000B000BB010008BB010008BB010008BB01000830
:1000C000BB010008BB010008BB010008BB01000820
:1000D000BB010008A51A0008B11A0008BD1A0008E3
:1000E000BB010008BB010008BB010008BB01000800
:1000F000BB010008BB010008BB010008BB010008F0
:10010000BB010008BB010008BB010008BB010008DF
:10011000BB010008BB010008BB010008BB010008CF
:10012000BB010008BB010008BB010008BB010008BF
:10013000BB010008BB010008BB010008BB010008AF
:10014000BB010008BB010008BB010008BB0100089F
:10015000BB010008BB010008BB010008BB0100088F
:10016000BB010008BB010008BB010008BB0100087F
:10017000BB010008BB010008BB0100080000000033
:10018000BB010008BB010008DFF810D000F08EF8BA
:1001900000480047591B0008AFF3008040070020CB
:1001A0000648804706480047FEE7FEE7FEE7FEE711
:1001B000FEE7FEE7FEE7FEE7FEE7FEE7D5170008ED
:1001C000890100082DE9F05F0546002092469B4614
:1001D00088460646814640241BE02846414647465D
:1001E000224600F053F853465A46C01A914110D3A4
:1001F00011461846224600F03AF82D1A67EB01081E
:100200004F4622460120002100F031F817EB00098B
:100210004E41201EA4F10104DFDC484631462A4647
:100220004346BDE8F09F40EA01039B0703D009E085
:1002300008C9121F08C0042AFAD203E011F8013BD2
:1002400000F8013B521EF9D27047D2B201E000F82B
:10025000012B491EFBD270470022F6E710B513466A
:100260000A4604461946FFF7F0FF204610BD202A33
:1002700004DB203A00FA02F1002070479140C2F1FD
:10028000200320FA03F3194390407047202A04DB2F
:10029000203A21FA02F00021704721FA02F3D040FF
:1002A000C2F120029140084319467047064C074DA1
:1002B00006E0E06840F0010394E807009847103436
:1002C000AC42F6D3FFF764FF901E0008B01E000892
:1002D000FEE7704790F83510022903D08021416570
:1002E00001207047052180F835100068016821F071
:1002F000010101600020704770B5044600F0EAF883
:100300000546601C02D004480078044400F0E2F87E
:10031000401BA042FAD370BD640000202DE9F84FC5
:1003200000224FF0010803254FF00F0E0B6808FA6A
:1003300002F42340A3426ED14E68012E05D0022E56
:1003400003D0112E01D0122E12D186684FEA420C32
:1003500005FA0CF7BE43CF6807FA0CF737438760FE
:100360004668A6430C79C4F30014944034434460B7
:10037000C668570005FA07FC8C6826EA0C06BC40E4
:100380003443C4604C68022C01D0122C13D1D40821
:1003900000EB8404A346D4F8209054074FEAD46AB3
:1003A0000EFA0AF629EA06090E6906FA0AF646EA7C
:1003B0000906CBF8206006680C7926EA0C0604F0E2
:1003C0000304BC40344304604C68E40065D5364CFB
:1003D000266846F480462660246822F0030604F46A
:1003E00080440094314C3444A446D4F8084896071D
:1003F000370F0EFA07F6B4432D4EB04201D1002656
:1004000024E02C4EB04201D101261FE02A4EB0421A
:1004100002D102261AE040E0284EB04201D1032664
:1004200014E0274EB04201D104260FE0254EB04221
:1004300001D105260AE0244EB04201D1062605E08E
:10044000224EB04201D1072600E00826BE402643D6
:10045000CCF808681E4E34684F689C43FF0300D5F3
:100460001C4334601A4C241D26684F689E43BF030A
:1004700000D51E432660164E083634684F689C43EC
:10048000FF0200D51C433460114E0C3634684F68AF
:100490009C43BF0200D51C433460521C102AFFF459
:1004A00045AFBDE8F88F00004438024000300140FD
:1004B000000002400004024000080240000C02401C
:1004C000001002400014024000180240001C0240CC
:1004D000003C014001488068704700006400002033
:1004E00002488168027811448160704764000020EE
:1004F0000B4810B5016841F400710160016841F4D6
:1005000080610160016841F480710160032000F0A6
:1005100071F8002000F006F800F024F8002010BD6B
:10052000003C024070B50D4D04464FF47A712878B6
:10053000B1FBF0F00A490968B1FBF0F000F004FBF0
:1005400048B9102C07D200222146501E00F032F884
:1005500000206C6070BD012070BD000064000020B0
:10056000700000200B4882B0016841F480410160B6
:10057000006800F4804000900648001F016841F0C8
:1005800080510160006800F080500090072002B0A8
:1005900000F030B844380240002809DB00F01F02A8
:1005A000012191404009800000F1E020C0F80011D5
:1005B00070470000F0B40E4B1B680C46C3F30223D7
:1005C000C3F10705042D00D90425191D072901D2FF
:1005D000002300E0DB1E012606FA05F1491E21403A
:1005E00099409E40761E16403143F0BC01F06DBA32
:1005F0000CED00E0064900F0070208684FF6FF0323
:10060000184040EA0220034A104308607047000087
:100610000CED00E00000FA052DE9F0470E4605005C
:1006200065D0DFF81481D8F80000F7B200F00F00B1
:10063000B04207D288F80070D8F8000000F00F0030
:10064000B04254D128683D4C810712D5400703D5EC
:10065000206840F4E05020602878000703D5206827
:1006600040F4604020602068A96820F0F000084352
:1006700020602878C0072DD03049686808390128E3
:1006800012D0022813D0032811D009688907002945
:100690002DDA216821F0030101432160FFF71AFFE1
:1006A000814641F2883A0EE009688903EFE709685C
:1006B0008901ECE7FFF70EFFA0EB0901514502D9D4
:1006C0000320BDE8F0872068696800F00C00B0EBFB
:1006D000810FEFD1D8F80010404601F00F01B14270
:1006E00007D90770006800F00F00B04201D0012068
:1006F000E7E72878400705D52068E96820F4E0504E
:10070000084320602878000706D52068296920F46E
:10071000604040EAC100206000F038F82168084AD3
:10072000C1F30311515CC8400649086006480068DF
:10073000FFF7F8FE0020C4E7003C02400838024002
:10074000781E000870000020680000200448054959
:1007500000680968044AC1F38221515CC8407047AF
:100760007000002008380240881E0008044805492F
:1007700000680968044AC1F34231515CC8407047BF
:100780007000002008380240881E0008154810B587
:10079000006810F00C02144813D04110042A0FD046
:1007A000082A0ED10F4C241F2268236802F03F0252
:1007B0005B0207D52068C0F38810A0FB010106E0AA
:1007C000084610BD2168C1F38811A1FB0001002378
:1007D000FFF7F8FC2168C1F30141491C4900B0FB57
:1007E000F1F010BD083802400024F4002DE9F84F64
:1007F00004006ED02078DFF83C93C007A9F104050F
:100800004AD009F104000168C1F38101012908D02F
:100810000068C0F3810002280AD1D9F80000400224
:1008200006D52868800337D560680028E1D033E01A
:100830006068B0F5803F10D0B0F5A02F286810D0C8
:1008400020F480302860286820F4802028606068C8
:10085000A8B1FFF73FFE06460DE0286840F480305F
:10086000F4E740F480202860F7E700BFFFF732FE8E
:10087000801B642873D828688003F7D50CE0FFF745
:1008800029FE064605E000BFFFF724FE801B642812
:10089000F0D828688003F7D42078DFF89C8280079E
:1008A0004FF0000A3ED5A348001D016811F00C0F5F
:1008B00008D00068C0F3810002280BD1D9F80000ED
:1008C000400207D42868800716D5E068012800D1C7
:1008D00012E02BE1E068B8B10120C8F80000FFF792
:1008E000F9FD064605E000BFFFF7F4FD801B022876
:1008F000C0D828688007F7D52868216920F0F8005B
:1009000040EAC10028600DE0C8F800A0FFF7E2FD52
:10091000064604E0FFF7DEFD801B02281FD828688A
:100920008007F7D42078000722D5824E834861697A
:10093000703671B101210160FFF7CCFD074604E07C
:10094000FFF7C8FDC01B022809D830688007F7D51B
:100950000EE0C0F800A0FFF7BDFD074605E082E00D
:10096000FFF7B8FDC01B02287DD830688007F7D498
:100970002078400768D5DFF8BCB100270BF13C0BAD
:10098000DBF80000C0000BD4DBF8001041F0805110
:10099000CBF80010DBF80000012700F08050009039
:1009A000674E3068C00510D4306840F48070306005
:1009B000FFF790FD009005E0FFF78CFD0099401ACD
:1009C000022850D83068C005F6D55A4EA0686C365B
:1009D00001280FD00528306810D020F001003060C9
:1009E000306820F004003060A068B8B1FFF772FDF5
:1009F00000900FE0306840F00100F4E740F00400A0
:100A00003060F7E7FFF766FD0099411A41F2883040
:100A1000814266D830688007F4D50EE0FFF75AFDB2
:100A2000009007E0FFF756FD0099411A41F2883027
:100A3000814256D830688007F4D42FB1DBF800101B
:100A400021F08051CBF80010A069C8B33949091DC5
:100A50000968C1F3810102294AD00228504607D013
:100A6000C8F8600000E03CE0FFF734FD04463BE0DE
:100A70004746C8F86000FFF72DFD064605E000BFB9
:100A8000FFF728FD801B02282BD828688001F7D4A7
:100A9000D4E907010843A16A2A4A490802EB014147
:100AA000626A41EA8211084394F82C1040EA01611D
:100AB000C9F8001001203866FFF70CFD044606E077
:100AC00036E000BFFFF706FD001B022809D82868A2
:100AD0008001F7D52CE000BFFFF7FCFC001B0228CB
:100AE00002D90320BDE8F88F28688001F4D41FE004
:100AF0000128F7D0D9F80000E26900F480019142A2
:100B000014D1226A00F03F0191420FD147F6C07123
:100B1000626A0140914209D1A26A00F440319142D7
:100B200004D1E16A00F07060884201D00120D9E769
:100B30000020D7E70438024000004742800E4742B9
:100B4000007000400000FFFF10B5401EB0F1807F34
:100B500001D3012010BD4FF0E02460610F21601728
:100B600000F0B3FF0020A06107202061002010BD2D
:100B70007047000070B5026804461068D168536978
:100B800010F00F0F52D003F0010501F490762E43C0
:100B90005FD0C20705D0CA0503D5E26B42F001025F
:100BA000E263420705D5DA0703D0E26B42F00202A6
:100BB000E263820705D5DA0703D0E26B42F0040254
:100BC000E263020707D501F020022A4303D0E26B5B
:100BD00042F00802E263E26B002A33D0800604D5BB
:100BE000880602D5204600F019FE20684069E16BB6
:100BF000C0F38010090700D428B3204600F000FE9F
:100C00002068416949061AD5416921F040014161D6
:100C1000606BA0B11B490165606BFFF75BFB0028AF
:100C200010D0606B016DBDE870400847830610D599
:100C30008B060ED52046BDE8704000F0EFBD204683
:100C4000FFF796FF70BD2046FFF792FF0020E0639C
:100C500070BD030606D50B0604D52046BDE87040DE
:100C600000F0BCBE4006F3D54806F1D5D168204659
:100C700021F04001D160202184F8391000F081F981
:100C800070BD0000F117000870B5040004D094F89E
:100C90003900002510B106E0012070BD84F83850FD
:100CA000204600F023F8242084F839002068C16829
:100CB00021F40051C160204600F0FCFD206801696C
:100CC00021F4904101612068416921F02A014161CC
:100CD0002068C16841F40051C160E563202084F8B8
:100CE000390084F83A00002070BD0000F0B587B0EC
:100CF000044614216846FFF7AFFA3D4B27680022EF
:100D00003C490224032507263B489F4221D1394B09
:100D100014331F6847F010071F601B6803F01003AF
:100D200005930B6843F002030B60096802AB01F006
:100D300002010591C021CDE9001483E864006946F1
:100D4000FFF7ECFA002211462520FFF733FC25209F
:100D500025E0284BDFF8A4C01033674523D118687D
:100D600040F400301860186800F4003005900868FE
:100D700040F001000860086802AF00F00100059033
:100D80000C20CDE9000487E8640069461C48FFF7A1
:100D9000C5FA002211462620FFF70CFC2620FFF79B
:100DA000FBFB07B0F0BDDFF85CC06745F9D11F68F9
:100DB00047F480271F601B6803F4802305930B68AA
:100DC00043F002030B60096802AF01F002010591D4
:100DD0004FF44061CDE9001487E864006946FFF7ED
:100DE0009DFA002211462720FFF7E4FB2720D6E7D3
:100DF000001001403038024000040240004400402E
:100E000000000240004800402DE9F843044690F8F5
:100E10003A00994616460D46202852D1BDB1B6B1CA
:100E200094F8380001284CD0012084F838000027BD
:100E3000E763222084F83A002C34FFF74BFB24F8B8
:100E4000026B804624F80A6B04F8387931E00120FF
:100E5000BDE8F883E08D401EE085A0684346B0F50C
:100E6000805F4FF000024FF020012046CDF8009047
:100E700004D000F0E4FD98B10320E9E700F0DFFDC5
:100E80000028F9D1206900282068406803D0C1B249
:100E900025F8011B0DE0C0F3080125F8021B08E04E
:100EA000206900282068406801D000F07F0005F824
:100EB000010BE08D0028CDD1202084F83A000020DD
:100EC000C6E70220C4E770472DE9F843044690F8CE
:100ED00039001F4616460D46202850D1B5B1AEB197
:100EE00094F8380001284AD0012084F838004FF0E7
:100EF0000008C4F83C80212084F83900FFF7EAFAA2
:100F0000A6848146E68484F8388026E00120BDE886
:100F1000F883E08C401EE084A0684B46B0F5805F0B
:100F20004FF000024FF080012046009703D000F000
:100F300086FDE8B90DE000F082FDC8B92888216877
:100F4000C0F308004860206908B16D1C05E0AD1CC5
:100F500003E0216815F8010B4860E08C0028D8D127
:100F60004B46002240212046009700F068FD08B162
:100F70000320CCE7202084F839000020C7E70220B6
:100F8000C5E77047FEE7000070B54FF47A759EB074
:100F90002846FFF7B1F92622C4490EA8FFF743F906
:100FA000C24CE08CADF85E0054F8280F1890A08871
:100FB000ADF86400E088ADF86600BC490922303124
:100FC0000E461AA8FFF72FF9607C8DF87100A07CFF
:100FD0008DF8720060691D90382210A96846FFF7ED
:100FE00022F9DDE90E230521B14800F0FDFE40F6AF
:100FF000B830FFF781F92622AC490EA8FFF713F9A4
:1010000034F8020CADF85E0020681890A088ADF8A6
:101010006400E088ADF86600092231461AA8FFF79F
:1010200002F9607C8DF87100A07C8DF87200606917
:101030001D90382210A96846FFF7F5F89C48DDE9B5
:101040000E2306210F3000F0CFFE262297490CA870
:10105000FFF7E9F834F8020CADF856002068169056
:10106000A088ADF85C00E088ADF85E00092231464A
:1010700018A8FFF7D8F8607C8DF86900A07C8DF87F
:101080006A0060691B90302210A96846FFF7CBF810
:101090000DF1300C9CE80F0000F050FE2846FFF7E1
:1010A0002BF9262281490EA8FFF7BDF834F8020C6F
:1010B000ADF85E0020681890A088ADF86400E08864
:1010C000ADF86600092231461AA8FFF7ACF8607C3B
:1010D0008DF87100A07C8DF8720060691D90382237
:1010E00010A96846FFF79FF87148DDE90E23152126
:1010F0002A3000F079FE26226C490CA8FFF793F8FD
:1011000034F8020CADF8560020681690A088ADF8AF
:101110005C00E088ADF85E000922314618A8FFF7B0
:1011200082F8607C8DF86900A07C8DF86A006069A7
:101130001B90302210A96846FFF775F80DF1300CAE
:101140009CE80F0000F0FAFD2846FFF7D5F82622AC
:1011500056490EA8FFF767F834F8020CADF85E00A8
:1011600020681890A088ADF86400E088ADF86600AB
:10117000092231461AA8FFF756F8607C8DF87100F5
:10118000A07C8DF8720060691D90382210A9684615
:10119000FFF749F84648DDE90E230621153000F037
:1011A00023FE262241490CA8FFF73DF834F8020C33
:1011B000ADF8560020681690A088ADF85C00E08875
:1011C000ADF85E000922314618A8FFF72CF8607CC4
:1011D0008DF86900A07C8DF86A0060691B90302250
:1011E00010A96846FFF71FF80DF1300C9CE80F00BE
:1011F00000F0A4FD2846FFF77FF826222B490EA811
:10120000FFF711F834F8020CADF85E002068189072
:10121000A088ADF86400E088ADF866000922314688
:101220001AA8FFF700F8607C8DF87100A07C8DF89B
:10123000720060691D90382210A96846FEF7F3FF1E
:101240001B48DDE90E230521401F00F0CDFD2622BD
:1012500016490CA8FEF7E7FF34F8020CADF856006B
:1012600020681690A088ADF85C00E088ADF85E00BC
:101270000922314618A8FEF7D6FF607C8DF8690078
:10128000A07C8DF86A0060691B90302210A9684626
:10129000FEF7C9FF0CAC94E80F0000F04FFD1EB044
:1012A00041F28830BDE87040FFF726B87C0000208E
:1012B0000600002070B54FF47A759EB02846FFF7FF
:1012C0001BF82622FE490EA8FEF7ADFFFC4CE08C71
:1012D000ADF85E0054F8280F1890A088ADF86400AF
:1012E000E088ADF86600F649092230310E461AA8AA
:1012F000FEF799FF607C8DF87100A07C8DF872007C
:1013000060691D90382210A96846FEF78CFFDDE960
:101310000E230521EB4800F067FD40F6B830FEF7DC
:10132000EBFF2622E6490EA8FEF77DFF34F8020CFB
:10133000ADF85E0020681890A088ADF86400E088E1
:10134000ADF86600092231461AA8FEF76CFF607CF2
:101350008DF87100A07C8DF8720060691D903822B4
:1013600010A96846FEF75FFFD648DDE90E23062187
:101370000F3000F039FD2622D1490CA8FEF753FFAB
:1013800034F8020CADF8560020681690A088ADF82D
:101390005C00E088ADF85E000922314618A8FEF72F
:1013A00042FF607C8DF86900A07C8DF86A0060695E
:1013B0001B90302210A96846FEF735FF0DF1300C66
:1013C0009CE80F0000F0BAFC2846FEF795FF2622A5
:1013D000BB490EA8FEF727FF34F8020CADF85E00FB
:1013E00020681890A088ADF86400E088ADF8660029
:1013F000092231461AA8FEF716FF607C8DF87100AD
:10140000A07C8DF8720060691D90382210A9684692
:10141000FEF709FFAB48DDE90E2315212A3000F065
:10142000E3FC2622A6490CA8FEF7FDFE34F8020CC8
:10143000ADF8560020681690A088ADF85C00E088F2
:10144000ADF85E000922314618A8FEF7ECFE607C7C
:101450008DF86900A07C8DF86A0060691B903022CD
:1014600010A96846FEF7DFFE0DF1300C9CE80F0076
:1014700000F064FC2846FEF73FFF262290490EA8A4
:10148000FEF7D1FE34F8020CADF85E00206818902B
:10149000A088ADF86400E088ADF866000922314606
:1014A0001AA8FEF7C0FE607C8DF87100A07C8DF854
:1014B000720060691D90382210A96846FEF7B3FEDD
:1014C0008048DDE90E2306211B3000F08DFC26222A
:1014D0007B490CA8FEF7A7FE34F8020CADF85600C5
:1014E00020681690A088ADF85C00E088ADF85E003A
:1014F0000922314618A8FEF796FE607C8DF8690037
:10150000A07C8DF86A0060691B90302210A96846A3
:10151000FEF789FE0DF1300C9CE80F0000F00EFC88
:101520002846FEF7E9FE262265490EA8FEF77BFE57
:1015300034F8020CADF85E0020681890A088ADF871
:101540006400E088ADF86600092231461AA8FEF76B
:101550006AFE607C8DF87100A07C8DF87200606975
:101560001D90382210A96846FEF75DFE5548DDE95A
:101570000E230521401F00F037FC262250490CA8FD
:10158000FEF751FE34F8020CADF8560020681690B4
:10159000A088ADF85C00E088ADF85E000922314615
:1015A00018A8FEF740FE607C8DF86900A07C8DF8DD
:1015B0006A0060691B90302210A96846FEF733FE6E
:1015C0000DF1300C9CE80F0000F0B8FB41F28830C0
:1015D000FEF792FE26223A490EA8FEF724FE34F8C2
:1015E000020CADF85E0020681890A088ADF8640089
:1015F000E088ADF86600092231461AA8FEF713FE0E
:10160000607C8DF87100A07C8DF8720060691D907F
:10161000382210A96846FEF706FE2A48DDE90E23A7
:1016200005210A3000F0E0FB262225490CA8FEF730
:10163000FAFD34F8020CADF8560020681690A08828
:10164000ADF85C00E088ADF85E000922314618A8CC
:10165000FEF7E9FD607C8DF86900A07C8DF86A00DA
:1016600060691B90302210A96846FEF7DCFD0DF181
:10167000300C9CE80F0000F061FB2846FEF73CFEB2
:1016800026220F490EA8FEF7CEFD34F8020CADF865
:101690005E0020681890A088ADF86400E088ADF87E
:1016A0006600092231461AA8FEF7BDFD607C8DF860
:1016B0007100A07C8DF8720060691D90382203E0F3
:1016C000FC0000200600002010A96846FEF7ABFDD4
:1016D000DDE90E231D21184800F086FB262217495C
:1016E0000CA8FEF7A0FD34F8020CADF856002068F7
:1016F0001690A088ADF85C00E088ADF85E00092285
:10170000314618A8FEF78FFD607C8DF86900A07C3B
:101710008DF86A0060691B90302210A96846FEF7B8
:1017200082FD0CAC94E80F0000F008FB1EB02846C8
:10173000BDE87040FEF7E0BD45000020FC00002041
:10174000FEE7704770477047FEF7CABE30B593B0EA
:1017500030216846FEF780FD14210CA8FEF77CFDC1
:101760001A480025016841F080510160006800F0CE
:10177000805011901648016841F480410160006872
:10178000022400F480401190012000900004019098
:101790008001CDE90640082008904FF4A870CDE9FB
:1017A000090407200B906846FFF720F80CA90F20CA
:1017B00081E831004FF4C0500F904FF4A0501090CA
:1017C00005210CA8FEF728FF13B030BD40380240B9
:1017D000007000400548016841F470010160034950
:1017E0004FF00060803908607047000088ED00E02D
:1017F00010B5806B0021C185C184FFF7B9F910BD18
:101800000168CA6822F49072CA6001684A6922F0CD
:1018100001024A61202180F83A10704710B590F813
:101820003A10222901D0022010BD8168B1F5805FF5
:1018300011D00169002901681FD0496801F07F03B8
:10184000816A4A1C82620B70C18D491E0904090C11
:10185000C18518D02BE00269816A002A02685268AB
:1018600005D0D2B20A80816A491C8162ECE7C2F3DA
:1018700008020A80816A891CF7E74A68816A4B1C62
:1018800083620A70E0E70168CA6822F02002CA6039
:101890000168CA6822F48072CA6001684A6922F04D
:1018A00001024A61202180F83A10FFF70CFB00206A
:1018B00010BD00002DE9F041044600680169E268AE
:1018C00021F44051114301612169A068E269084394
:1018D0006169114308432168CA6849F20C639A435D
:1018E0000243CA6020684169A26921F44071114332
:1018F0004161E069192764253226B0F5004F354A69
:10190000354920684FF0000806D0884201D0904247
:1019100036D1FEF72BFF35E0884201D0904202D14C
:10192000FEF724FF01E0FEF711FF61684A18A0FBF3
:10193000070148EB0803FEF745FC0146B0FBF5F054
:101940000201B1FBF5F06FF01803584301EB800082
:1019500006EBC000B0FBF5F000F0F80002EB40022F
:10196000B1FBF5F0584301EB800006EBC000B0FB83
:10197000F5F000F00700216810448860BDE8F081B0
:10198000FEF7E4FE61688B0F8A00A0FB0701FEF7FB
:1019900019FC0146B0FBF5F06FF01802504301EB63
:1019A000800006EB0010B0FBF5F000F0F002B1FB98
:1019B000F5F002EB0012B1FBF5F06FF0180358439D
:1019C00001EB800006EB0010B0FBF5F000F00F001B
:1019D000D1E70000001401400010014090F83910D8
:1019E000212901D0022070478168B1F5805F016A2A
:1019F0000BD04A1C0262026809785160C18C491EF2
:101A00000904090CC1840ED017E009880268C1F3EB
:101A10000801516001690029016A02D0491C016274
:101A2000ECE7891CFBE70168CA6822F08002CA6003
:101A30000068C16841F04001C160002070472DE995
:101A4000F041984617460E460446069D1DE0681C68
:101A50001BD02DB1FEF73EFDA0EB0800A84214D923
:101A60002068C16821F4D071C1602068416921F00B
:101A700001014161202084F8390084F83A000020F7
:101A800084F838000320BDE8F0812068006836EA59
:101A9000000004D00020B842D9D00020F3E7012094
:101AA000F9E700000148FFF765B800007C0000205E
:101AB0000148FFF75FB80000BC0000200148FFF7B5
:101AC00059B80000FC000020FEE70907090E0028B5
:101AD00004DB00F1E02080F80014704700F00F00F4
:101AE00000F1E02080F8141D704702E008C8121FC2
:101AF00008C1002AFAD170477047002001E001C1F7
:101B0000121F002AFBD1704710B5002821D0114BBD
:101B10000022001F196803E0814203D80A46496881
:101B20000029F9D152B11368841A9C4204D100688B
:101B300018441060104602E0506000E0186039B1AF
:101B400002680B1A934203D10B681A440260496879
:101B5000416010BD74000020A0B0FEF7C9FCFFF783
:101B6000F5FD55480025016841F0800101600168DC
:101B700001F080011F91016841F0010101600168DD
:101B800001F001011F91016841F00201016000684C
:101B90004B4C00F002001F90484820604FF4E136A3
:101BA000C4E901650C27E560C4E90457A561204636
:101BB000E561FFF769F804F1400042490160C0E9BE
:101BC0000165C560C0E904578561C561FFF75CF830
:101BD00004F180003C490160C0E90165C560C0E9CD
:101BE00004578561C561FFF74FF8FFF763FBFFF707
:101BF000CBF90DF170090DF148081CAF41F2883A9C
:101C000004F1300514AE26222D4910A8FEF70BFB77
:101C1000E08CADF86600A06A1A90A08DADF86C005B
:101C2000E08DADF86E00092229464846FEF7FBFA22
:101C300094F839008DF8790094F83A008DF87A001C
:101C4000E06B1F90382241466846FEF7ECFADDE96A
:101C5000102305211D4800F0C7F82622184910A8B6
:101C6000FEF7E1FAE08CADF86600A06A1A90A08D4C
:101C7000ADF86C00E08DADF86E00092229463846BB
:101C8000FEF7D1FA94F839008DF8790094F83A000B
:101C90008DF87A00E06B1F90302231466846FEF7DF
:101CA000C2FA0DF1400C9CE80F0000F047F85046D6
:101CB000FEF722FBA7E70000303802400010014089
:101CC0007C00002000440040004800400B00002041
:101CD000F0B50B30154D20F007010024144A0FE039
:101CE00003688B420BD38B4205D95E1A43184768B1
:101CF000C3E9006700E04368136002C004E0021D0E
:101D000010680028ECD12046002802D1286808B1CC
:101D10000020F0BD064A07481060074A121A22F058
:101D20000702C0E9002401202860D7E778000020DE
:101D30007400002044010020400300200FB42DE96E
:101D4000F043ADF5017D00246D464FF47A7603E053
:101D50009DF800022855641C3346012280A988A8FA
:101D6000FFF752F80028F3D0012000EB440420468E
:101D7000FFF7AEFF0546EC46221E03464FF0000675
:101D800021D000200146B1461BE000BF1CF80070C6
:101D9000C619964201D9012F15D10126401C07E032
:101DA0001CF80080761C03F80180401CF6B2491C28
:101DB000BE42F5D3FF2F04D0904202D003F8019029
:101DC000491C9042E2D392B20A2329460548FFF704
:101DD0007BF82846FFF798FE0DF5017DBDE8F0037E
:101DE0005DF814FBBC0000200FB42DE9F04107465C
:101DF000FE20B1FBF0F00D464619761C3046FFF789
:101E000067FF044600230120A4461946024619E054
:101E100017F803E0BEF1000F08D00CF800E0521CE8
:101E2000D2B2401C5B1CFF2A0CD106E00CF801204A
:101E300001460122401C5B1C04E00CF80120012239
:101E40000146401CAB42E3D362544FF47A752B46F3
:101E50000122084908A8FFF737F8B2B22B462146FD
:101E600008A8FFF731F82046FFF74EFEBDE8F00165
:101E70005DF814FB000000200000000000000000DE
:101E80000102030406070809000000000102030420
:101E9000B01E0008000000207C000000EA1A0008C4
:101EA0002C1F00087C000020C4060000FA1A00085D
:101EB00000000010081800001000100000110514A8
:101EC0000000101B0B00011012080B000110190B71
:101ED00003000110190E06000000000000000000C1
:101EE000001010176938343034443230303030301C
:101EF000303035464300181018C58404D200000065
:101F000005FC383430344432303030303030303505
:101F10004643000001000000100000000000000027
:0C1F20000024F40000000000000000009D
:040000050800018965
:00000001FF
