:020000040800F2
:10000000B80B0020A101000843120008AD10000841
:1000100041120008AD020008C915000800000000E8
:10002000000000000000000000000000471200086F
:10003000AF02000800000000451200084912000845
:10004000BB010008BB010008BB010008BB010008A0
:10005000BB010008BB010008BB010008BB01000890
:10006000BB010008BB010008BB010008BB01000880
:10007000BB010008BB010008BB010008BB01000870
:10008000BB010008BB010008BB010008BB01000860
:10009000BB010008BB010008BB010008BB01000850
:1000A000BB010008BB010008BB010008BB01000840
:1000B000BB010008BB010008BB010008BB01000830
:1000C000BB010008BB010008BB010008BB01000820
:1000D000BB010008A5150008B1150008BD150008F2
:1000E000BB010008BB010008BB010008BB01000800
:1000F000BB010008BB010008BB010008BB010008F0
:10010000BB010008BB010008BB010008BB010008DF
:10011000BB010008BB010008BB010008BB010008CF
:10012000BB010008BB010008BB010008BB010008BF
:10013000BB010008BB010008BB010008BB010008AF
:10014000BB010008BB010008BB010008BB0100089F
:10015000BB010008BB010008BB010008BB0100088F
:10016000BB010008BB010008BB010008BB0100087F
:10017000BB010008BB010008BB0100080000000033
:10018000BB010008BB010008DFF810D000F07CF8CC
:100190000048004769180008AFF30080B80B002042
:1001A0000648804706480047FEE7FEE7FEE7FEE711
:1001B000FEE7FEE7FEE7FEE7FEE7FEE7D5120008F2
:1001C000890100082DE9F05F0546002092469B4614
:1001D00088460646814640241BE02846414647465D
:1001E000224600F041F853465A46C01A914110D3B6
:1001F00011461846224600F028F82D1A67EB010830
:100200004F4622460120002100F01FF817EB00099D
:100210004E41201EA4F10104DFDC484631462A4647
:100220004346BDE8F09FD2B201E000F8012B491E21
:10023000FBD270470022F6E710B513460A46044683
:100240001946FFF7F0FF204610BD202A04DB203AB4
:1002500000FA02F1002070479140C2F1200320FA19
:1002600003F3194390407047202A04DB203A21FA17
:1002700002F00021704721FA02F3D040C2F12002BF
:100280009140084319467047064C074D06E0E06868
:1002900040F0010394E8070098471034AC42F6D3CD
:1002A000FFF776FF081B0008281B0008FEE77047D1
:1002B00090F83510022903D0802141650120704754
:1002C000052180F835100068016821F00101016006
:1002D0000020704770B5044600F0EAF80546601C3F
:1002E00002D004480078044400F0E2F8401BA04229
:1002F000FAD370BDE00000202DE9F84F00224FF046
:10030000010803254FF00F0E0B6808FA02F4234092
:10031000A3426ED14E68012E05D0022E03D0112EBD
:1003200001D0122E12D186684FEA420C05FA0CF762
:10033000BE43CF6807FA0CF7374387604668A64389
:100340000C79C4F30014944034434460C6685700E9
:1003500005FA07FC8C6826EA0C06BC403443C460EE
:100360004C68022C01D0122C13D1D40800EB840469
:10037000A346D4F8209054074FEAD46A0EFA0AF63E
:1003800029EA06090E6906FA0AF646EA0906CBF8D2
:10039000206006680C7926EA0C0604F00304BC40D1
:1003A000344304604C68E40065D5364C266846F456
:1003B00080462660246822F0030604F480440094FA
:1003C000314C3444A446D4F808489607370F0EFA47
:1003D00007F6B4432D4EB04201D1002624E02C4E46
:1003E000B04201D101261FE02A4EB04202D10226BE
:1003F0001AE040E0284EB04201D1032614E0274E17
:10040000B04201D104260FE0254EB04201D10526AD
:100410000AE0244EB04201D1062605E0224EB04249
:1004200001D1072600E00826BE402643CCF8086824
:100430001E4E34684F689C43FF0300D51C43346054
:100440001A4C241D26684F689E43BF0300D51E43E7
:100450002660164E083634684F689C43FF0200D56C
:100460001C433460114E0C3634684F689C43BF0205
:1004700000D51C433460521C102AFFF445AFBDE880
:10048000F88F000044380240003001400000024074
:100490000004024000080240000C0240001002402C
:1004A0000014024000180240001C0240003C0140C1
:1004B0000148806870470000E00000200248816821
:1004C0000278114481607047E00000200B4810B5AD
:1004D000016841F400710160016841F480610160CC
:1004E000016841F480710160032000F071F8002080
:1004F00000F006F800F024F8002010BD003C024097
:1005000070B50D4D04464FF47A712878B1FBF0F0C8
:100510000A490968B1FBF0F000F004FB48B9102C5F
:1005200007D200222146501E00F032F800206C60F5
:1005300070BD012070BD0000E0000020EC00002034
:100540000B4882B0016841F480410160006800F40A
:10055000804000900648001F016841F08051016012
:10056000006800F080500090072002B000F030B822
:1005700044380240002809DB00F01F0201219140AD
:100580004009800000F1E020C0F800117047000031
:10059000F0B40E4B1B680C46C3F30223C3F10705EE
:1005A000042D00D90425191D072901D2002300E0DC
:1005B000DB1E012606FA05F1491E214099409E40A6
:1005C000761E16403143F0BC00F0FFBF0CED00E09A
:1005D000064900F0070208684FF6FF03184040EA9A
:1005E0000220034A10430860704700000CED00E051
:1005F0000000FA052DE9F0470E46050065D0DFF84A
:100600001481D8F80000F7B200F00F00B04207D212
:1006100088F80070D8F8000000F00F00B04254D104
:1006200028683D4C810712D5400703D5206840F467
:10063000E05020602878000703D5206840F460402F
:1006400020602068A96820F0F00008432060287826
:10065000C0072DD0304968680839012812D0022817
:1006600013D0032811D00968890700292DDA2168E1
:1006700021F0030101432160FFF71AFF814641F297
:10068000883A0EE009688903EFE709688901ECE719
:10069000FFF70EFFA0EB0901514502D90320BDE889
:1006A000F0872068696800F00C00B0EB810FEFD193
:1006B000D8F80010404601F00F01B14207D9077089
:1006C000006800F00F00B04201D00120E7E7287871
:1006D000400705D52068E96820F4E0500843206011
:1006E0002878000706D52068296920F4604040EA90
:1006F000C100206000F038F82168084AC1F30311F6
:10070000515CC8400649086006480068FFF7F8FEDB
:100710000020C4E7003C024008380240EE1A0008FE
:10072000EC000020E4000020044805490068096846
:10073000044AC1F38221515CC8407047EC0000209C
:1007400008380240FE1A0008044805490068096894
:10075000044AC1F34231515CC8407047EC000020AC
:1007600008380240FE1A0008154810B5006810F05D
:100770000C02144813D04110042A0FD0082A0ED1BD
:100780000F4C241F2268236802F03F025B0207D54A
:100790002068C0F38810A0FB010106E0084610BDE8
:1007A0002168C1F38811A1FB00010023FFF70AFDB6
:1007B0002168C1F30141491C4900B0FBF1F010BDB3
:1007C000083802400024F4002DE9F84F04006ED0F0
:1007D0002078DFF83C93C007A9F104054AD009F15D
:1007E00004000168C1F38101012908D00068C0F349
:1007F000810002280AD1D9F80000400206D52868F5
:10080000800337D560680028E1D033E06068B0F538
:10081000803F10D0B0F5A02F286810D020F4803091
:100820002860286820F4802028606068A8B1FFF75D
:100830003FFE06460DE0286840F48030F4E740F4BF
:1008400080202860F7E700BFFFF732FE801B642896
:1008500073D828688003F7D50CE0FFF729FE064619
:1008600005E000BFFFF724FE801B6428F0D828684D
:100870008003F7D42078DFF89C8280074FF0000ACD
:100880003ED5A348001D016811F00C0F08D0006888
:10089000C0F3810002280BD1D9F80000400207D430
:1008A0002868800716D5E068012800D112E02BE106
:1008B000E068B8B10120C8F80000FFF7F9FD06466E
:1008C00005E000BFFFF7F4FD801B0228C0D82868B0
:1008D0008007F7D52868216920F0F80040EAC100B8
:1008E00028600DE0C8F800A0FFF7E2FD064604E02E
:1008F000FFF7DEFD801B02281FD828688007F7D489
:100900002078000722D5824E83486169703671B124
:1009100001210160FFF7CCFD074604E0FFF7C8FDA9
:10092000C01B022809D830688007F7D50EE0C0F850
:1009300000A0FFF7BDFD074605E082E0FFF7B8FD28
:10094000C01B02287DD830688007F7D42078400784
:1009500068D5DFF8BCB100270BF13C0BDBF80000D9
:10096000C0000BD4DBF8001041F08051CBF8001030
:10097000DBF80000012700F080500090674E3068DF
:10098000C00510D4306840F480703060FFF790FDEF
:10099000009005E0FFF78CFD0099401A022850D81E
:1009A0003068C005F6D55A4EA0686C3601280FD0C5
:1009B0000528306810D020F001003060306820F049
:1009C00004003060A068B8B1FFF772FD00900FE03E
:1009D000306840F00100F4E740F004003060F7E7D1
:1009E000FFF766FD0099411A41F28830814266D8CE
:1009F00030688007F4D50EE0FFF75AFD009007E05D
:100A0000FFF756FD0099411A41F28830814256D8CD
:100A100030688007F4D42FB1DBF8001021F080514A
:100A2000CBF80010A069C8B33949091D0968C1F3A2
:100A3000810102294AD00228504607D0C8F8600038
:100A400000E03CE0FFF734FD04463BE04746C8F8D1
:100A50006000FFF72DFD064605E000BFFFF728FD0B
:100A6000801B02282BD828688001F7D4D4E907011D
:100A70000843A16A2A4A490802EB0141626A41EA35
:100A80008211084394F82C1040EA0161C9F8001063
:100A900001203866FFF70CFD044606E036E000BF93
:100AA000FFF706FD001B022809D828688001F7D54A
:100AB0002CE000BFFFF7FCFC001B022802D903203A
:100AC000BDE8F88F28688001F4D41FE00128F7D032
:100AD000D9F80000E26900F48001914214D1226A41
:100AE00000F03F0191420FD147F6C071626A0140A8
:100AF000914209D1A26A00F44031914204D1E16AE5
:100B000000F07060884201D00120D9E70020D7E7CB
:100B10000438024000004742800E47420070004007
:100B20000000FFFF10B5401EB0F1807F01D301200F
:100B300010BD4FF0E02460610F21601700F045FD0B
:100B40000020A06107202061002010BD7047000038
:100B500070B5026804461068D168536910F00F0F31
:100B600052D003F0010501F490762E435FD0C20706
:100B700005D0CA0503D5E26B42F00102E2634207E9
:100B800005D5DA0703D0E26B42F00202E263820786
:100B900005D5DA0703D0E26B42F00402E2630207F4
:100BA00007D501F020022A4303D0E26B42F008028D
:100BB000E263E26B002A33D0800604D5880602D5B2
:100BC000204600F0ABFB20684069E16BC0F3801069
:100BD000090700D428B3204600F092FB2068416941
:100BE00049061AD5416921F040014161606BA0B10D
:100BF0001B490165606BFFF75BFB002810D0606B41
:100C0000016DBDE870400847830610D58B060ED5F0
:100C10002046BDE8704000F081BB2046FFF796FFFC
:100C200070BD2046FFF792FF0020E06370BD030611
:100C300006D50B0604D52046BDE8704000F04EBC3A
:100C40004006F3D54806F1D5D168204621F0400191
:100C5000D160202184F8391000F027FA70BD00001F
:100C6000F112000870B5040004D094F83900002592
:100C700010B106E0012070BD84F83850204600F025
:100C800023F8242084F839002068C16821F4005139
:100C9000C160204600F08EFB2068016921F490417C
:100CA00001612068416921F02A0141612068C16821
:100CB00041F40051C160E563202084F8390084F8D4
:100CC0003A00002070BD0000F0B587B00446142142
:100CD0006846FFF7AFFA3D4B276800223C490224E3
:100CE000032507263B489F4221D1394B14331F6807
:100CF00047F010071F601B6803F0100305930B6893
:100D000043F002030B60096802AB01F00201059198
:100D1000C021CDE9001483E864006946FFF7ECFACE
:100D2000002211462520FFF733FC252025E0284B23
:100D3000DFF8A4C01033674523D1186840F40030B1
:100D40001860186800F400300590086840F0010051
:100D50000860086802AF00F0010005900C20CDE9A2
:100D6000000487E8640069461C48FFF7C5FA0022C2
:100D700011462620FFF70CFC2620FFF7FBFB07B0EF
:100D8000F0BDDFF85CC06745F9D11F6847F48027E4
:100D90001F601B6803F4802305930B6843F0020374
:100DA0000B60096802AF01F0020105914FF4406148
:100DB000CDE9001487E864006946FFF79DFA002238
:100DC00011462720FFF7E4FB2720D6E7001001405B
:100DD000303802400004024000440040000002405D
:100DE000004800402DE9F843044690F83A0099463F
:100DF00016460D46202852D1BDB1B6B194F8380040
:100E000001284CD0012084F838000027E763222015
:100E100084F83A002C34FFF74BFB24F8026B804631
:100E200024F80A6B04F8387931E00120BDE8F88332
:100E3000E08D401EE085A0684346B0F5805F4FF02E
:100E400000024FF020012046CDF8009004D000F0C1
:100E500076FB98B10320E9E700F071FB0028F9D197
:100E6000206900282068406803D0C1B225F8011B22
:100E70000DE0C0F3080125F8021B08E020690028F6
:100E80002068406801D000F07F0005F8010BE08D7C
:100E90000028CDD1202084F83A000020C6E70220A7
:100EA000C4E790F83A30202B22D1F9B1F2B190F892
:100EB0003830012B1CD081628285C2850021C1633C
:100EC000222280F83A2080F838100168CA6842F47B
:100ED0008072CA6001684A6942F001024A61006892
:100EE000C16841F02001C1600020704701207047B7
:100EF000022070472DE9F0470646384F0068364912
:100F0000FC1EADF5027D4FF00008884243D13D78CC
:100F10008DF80052A068012809D180AB304A012128
:100F2000184600F0F5FB9DF80002401D6070A068B7
:100F3000DFF8B09009EB0001401CA0600D70A068C4
:100F40006178884221DB00254FF4007A06E0254BCA
:100F5000234A5146684600F0DBFB6D1C60788542F1
:100F6000F5DBC2B21F4801236946803800F040F823
:100F70004146C4F80880002062786D464B4602E086
:100F800029541954401C9042FADA16480122134998
:100F9000C038FFF786FF14493068884217D1387887
:100FA000A168012901D1411DA170E1680F4A0A44DD
:100FB000491CE1601070E068A178884201DBC4F848
:100FC0000C800848012205494038FFF76AFF0DF5FB
:100FD000027DBDE8F0870000001001400300002002
:100FE000EB1A0008B801002000480040B8030020B8
:100FF0002DE9F843044690F839001F4616460D4681
:10100000202850D1B5B1AEB194F8380001284AD0AB
:10101000012084F838004FF00008C4F83C802120FB
:1010200084F83900FFF744FAA6848146E68484F800
:10103000388026E00120BDE8F883E08C401EE08483
:10104000A0684B46B0F5805F4FF000024FF0800182
:101050002046009703D000F072FAE8B90DE000F0E6
:101060006EFAC8B928882168C0F308004860206972
:1010700008B16D1C05E0AD1C03E0216815F8010BFB
:101080004860E08C0028D8D14B4600224021204601
:10109000009700F054FA08B10320CCE7202084F830
:1010A00039000020C7E70220C5E77047FEE70000CF
:1010B00010B54FF47A742046FFF70CF9294A052140
:1010C000294800F0B5FC40F6B830FFF703F9264890
:1010D000244A06210F3000F0ABFC224800F08CFCC3
:1010E0002046FFF7F7F820481E4A1521983000F0F7
:1010F0009FFC1C4800F080FC2046FFF7EBF81A48E4
:10110000184A0621153000F093FC164800F074FCD4
:101110002046FFF7DFF81448124A0521401F00F06F
:1011200087FC104800F068FC42F6E060FFF7D2F858
:101130000D480C4A15216B3000F07AFC094800F08C
:101140005BFC2046FFF7C6F80748064A18218030A6
:1011500000F06EFC034800F04FFC2046BDE8104054
:10116000FFF7B8B8F80000201500002010B54FF4C4
:101170007A742046FFF7AEF82F4A05212F4800F079
:1011800057FC40F6B830FFF7A5F82C482A4A06214C
:101190000F3000F04DFC284800F02EFC2046FFF7F1
:1011A00099F82648244A1521983000F041FC22483D
:1011B00000F022FC2046FFF78DF820481E4A062149
:1011C0001B3000F035FC1C4800F016FC2046FFF7F1
:1011D00081F81A48184A0521401F00F029FC1648DA
:1011E00000F00AFC41F65830FFF774F81348124A31
:1011F0001521563000F01CFC0F4800F0FDFB204686
:10120000FFF768F80D480C4A05210A3000F010FC81
:10121000094800F0F1FB2046FFF75CF80748064A52
:101220001D21AD3000F004FC034800F0E5FB204632
:10123000BDE81040FFF74EB87801002015000020EF
:10124000FEE7704770477047FFF738B930B593B085
:1012500030216846FEF7EEFF14210CA8FEF7EAFFE6
:101260001A480025016841F080510160006800F0D3
:10127000805011901648016841F480410160006877
:10128000022400F48040119001200090000401909D
:101290008001CDE90640082008904FF4A870CDE900
:1012A000090407200B906846FFF78EFA0CA90F205F
:1012B00081E831004FF4C0500F904FF4A0501090CF
:1012C00005210CA8FFF796F913B030BD4038024055
:1012D000007000400548016841F470010160034955
:1012E0004FF00060803908607047000088ED00E032
:1012F00010B5806B0021C185C184FFF727FC10BDAC
:101300000168CA6822F49072CA6001684A6922F0D2
:1013100001024A61202180F83A10704710B590F818
:101320003A10222901D0022010BD8168B1F5805FFA
:1013300011D00169002901681FD0496801F07F03BD
:10134000816A4A1C82620B70C18D491E0904090C16
:10135000C18518D02BE00269816A002A02685268B0
:1013600005D0D2B20A80816A491C8162ECE7C2F3DF
:1013700008020A80816A891CF7E74A68816A4B1C67
:1013800083620A70E0E70168CA6822F02002CA603E
:101390000168CA6822F48072CA6001684A6922F052
:1013A00001024A61202180F83A10FFF7A3FD0020D6
:1013B00010BD00002DE9F041044600680169E268B3
:1013C00021F44051114301612169A068E269084399
:1013D0006169114308432168CA6849F20C639A4362
:1013E0000243CA6020684169A26921F44071114337
:1013F0004161E069192764253226B0F5004F354A6E
:10140000354920684FF0000806D0884201D090424C
:1014100036D1FFF799F935E0884201D0904202D1E8
:10142000FFF792F901E0FFF77FF961684A18A0FB26
:10143000070148EB0803FEF7C5FE0146B0FBF5F0D7
:101440000201B1FBF5F06FF01803584301EB800087
:1014500006EBC000B0FBF5F000F0F80002EB400234
:10146000B1FBF5F0584301EB800006EBC000B0FB88
:10147000F5F000F00700216810448860BDE8F081B5
:10148000FFF752F961688B0F8A00A0FB0701FEF796
:1014900099FE0146B0FBF5F06FF01802504301EBE6
:1014A000800006EB0010B0FBF5F000F0F002B1FB9D
:1014B000F5F002EB0012B1FBF5F06FF018035843A2
:1014C00001EB800006EB0010B0FBF5F000F00F0020
:1014D000D1E70000001401400010014090F83910DD
:1014E000212901D0022070478168B1F5805F016A2F
:1014F0000BD04A1C0262026809785160C18C491EF7
:101500000904090CC1840ED017E009880268C1F3F0
:101510000801516001690029016A02D0491C016279
:10152000ECE7891CFBE70168CA6822F08002CA6008
:101530000068C16841F04001C160002070472DE99A
:10154000F041984617460E460446069D1DE0681C6D
:101550001BD02DB1FEF7ACFFA0EB0800A84214D9B8
:101560002068C16821F4D071C1602068416921F010
:1015700001014161202084F8390084F83A000020FC
:1015800084F838000320BDE8F0812068006836EA5E
:10159000000004D00020B842D9D00020F3E7012099
:1015A000F9E700000148FFF7D3BA0000F800002077
:1015B0000148FFF7CDBA0000380100200148FFF7CD
:1015C000C7BA000078010020FEE70907090E0028CD
:1015D00004DB00F1E02080F80014704700F00F00F9
:1015E00000F1E02080F8141D704702E008C8121FC7
:1015F00008C1002AFAD170477047002001E001C1FC
:10160000121F002AFBD170472DE9F8438846064691
:1016100000258DF8005019466846904700286CD088
:101620009DF80000394C012718B1207901280DD010
:1016300069E0A07905212180658027716571A57118
:10164000E57135603571002855D05CE0B4F90200D1
:10165000022810DB607970B92088717808443178ED
:1016600000EB012081B22180414549D8701D491FFE
:10167000FEF7E0FD6771A17981B1B4F9020022881B
:10168000904202DA9DF800203254401C00B2491EFC
:10169000608011F0FF01A17121D024E09DF80000CD
:1016A000D02804D2A0F10100A071E77114E003D1A9
:1016B0004FF0CF00A07115E0D12821D0D2281FD043
:1016C000E02803D2A571D038E07107E0FF2817D2D7
:1016D000E038A0710220E071A07920B96088E1793A
:1016E00008446080E571B4F90200218888420ADB71
:1016F0002571B4F90000BDE8F8836FF00100FAE746
:101700004FF0FF30F7E70020F5E70000440000202D
:101710002DE9F8438846064600258DF80050194605
:101720006846904700286CD09DF80000394C01278E
:1017300018B1207901280DD069E0A0790521218018
:10174000658027716571A571E57135603571002877
:1017500055D05CE0B4F90200022810DB607970B962
:10176000208871780844317800EB012081B2218013
:10177000414549D8701D491FFEF75CFD6771A1798D
:1017800081B1B4F902002288904202DA9DF800206B
:101790003254401C00B2491E608011F0FF01A1715B
:1017A00021D024E09DF80000D02804D2A0F101004F
:1017B000A071E77114E003D14FF0CF00A07115E0E4
:1017C000D12821D0D2281FD0E02803D2A571D0384B
:1017D000E07107E0FF2817D2E038A0710220E07125
:1017E000A07920B96088E17908446080E571B4F996
:1017F0000200218888420ADB2571B4F90000BDE8A7
:10180000F8836FF00100FAE74FF0FF30F7E70020B0
:10181000F5E700004400002010B5002821D0114B4E
:101820000022001F196803E0814203D80A46496874
:101830000029F9D152B11368841A9C4204D100687E
:1018400018441060104602E0506000E0186039B1A2
:1018500002680B1A934203D10B681A44026049686C
:10186000416010BDF000002008B5FEF72FFEFFF725
:10187000EDFC40480024016841F0800101600168EE
:1018800001F080010091016841F0010101600168EF
:1018900001F001010091016841F00201016000685E
:1018A000354900F00200009034484FF4E1350C2631
:1018B0000160C0E90154C460C0E904468461C461A8
:1018C000FFF7D0F92D482E4940300160C0E901549E
:1018D000C460C0E904468461C461FFF7C3F92748C6
:1018E000284980300160C0E90154C460C0E9044661
:1018F0008461C461FFF7B6F9FFF738FCFFF7D8FB46
:101900004FF47A742046FEF7E5FC1C4A072180322A
:101910001D4800F08DF81948803000F06DF8204621
:10192000FEF7D8FC1848154A0721C01F00F080F8C0
:10193000124800F061F82046FEF7CCFC41F28835F1
:1019400011480E4A0521233800F072F80B4800F0C8
:1019500053F82046FEF7BEFC0B48084A1F210F3003
:1019600000F066F80548803000F046F82846FEF79B
:10197000B1FCE5E73038024000100140F8000020DB
:1019800000440040004800403D000020F0B50B300E
:10199000154D20F007010024144A0FE003688B4224
:1019A0000BD38B4205D95E1A43184768C3E9006719
:1019B00000E04368136002C004E0021D10680028C4
:1019C000ECD12046002802D1286808B10020F0BDE3
:1019D000064A07481060074A121A22F00702C0E9B7
:1019E000002401202860D7E7F4000020F000002048
:1019F000BC050020B807002030B5ADF5017D0546D7
:101A00004FF400742B46084A21466846FFF7FCFD58
:101A10000028F7D082B20A2369460448FFF7E8FAA3
:101A20000DF5017D30BD0000D51A000838010020F9
:101A30002DE9F0470646FE20B1FBF0F00C460719F1
:101A40007F1C91463846FFF7A1FF05460021084656
:101A500004E0042801D0325C5140401CA042F8D37D
:101A6000002331710120AC46194602461AE000BF3E
:101A700016F80380B8F1000F08D00CF80080521C53
:101A8000D2B2401C5B1CFF2A0CD106E00CF80120EE
:101A900001460122401C5B1C04E00CF801200122DD
:101AA0000146401CA342E3D36A544FF47A742346A0
:101AB000012207494846FFF79BFABAB22346294656
:101AC0004846FFF795FA2846BDE8F047FFF7A4BE61
:101AD0000000002010B50C4601464FF47A73012235
:101AE0002046FFF77FF9012010BD0120704700005C
:101AF00000000000000001020304060708090000BE
:101B00000000010203040000281B00080000002060
:101B1000F8000000EA150008201C0008F80000206A
:101B2000C00A0000FA1500080005050000000000CA
:101B30000000000000000000000010081800001065
:101B4000001000001105140000101B0B0001101202
:101B5000080B000110190B03000110190E060002FA
:101B60001009123039000210091230300000000054
:101B700000000000001A102F0630393030ABCD00C5
:101B80000000000000000000000000123448656CF6
:101B90006C6F210010102060ABCD00000000000031
:101BA00000000000000012340010102060ABCD00D7
:101BB00000000000000000000000003412001310BC
:101BC0002700ABCD00000000000000000000000076
:101BD0001234600001001010176938343034443278
:101BE0003030303030303035464300181018C5845E
:101BF00004D200000005FC38343034443230303038
:101C00003030303035464300010000001000000045
:101C1000000000000024F4000000000000000000AC
:040000050800018965
:00000001FF
