:020000040800F2
:10000000900B0020A10100082F1A000865100008BD
:100010002D1A0008D1020008B51D000800000000DC
:10002000000000000000000000000000331A00087B
:10003000D302000800000000311A0008351A000839
:10004000BB010008BB010008BB010008BB010008A0
:10005000BB010008BB010008BB010008BB01000890
:10006000BB010008BB010008BB010008BB01000880
:10007000BB010008BB010008BB010008BB01000870
:10008000BB010008BB010008BB010008BB01000860
:10009000BB010008BB010008BB010008BB01000850
:1000A000BB010008BB010008BB010008BB01000840
:1000B000BB010008BB010008BB010008BB01000830
:1000C000BB010008BB010008BB010008BB01000820
:1000D000BB010008911D00089D1D0008A91D000816
:1000E000BB010008BB010008BB010008BB01000800
:1000F000BB010008BB010008BB010008BB010008F0
:10010000BB010008BB010008BB010008BB010008DF
:10011000BB010008BB010008BB010008BB010008CF
:10012000BB010008BB010008BB010008BB010008BF
:10013000BB010008BB010008BB010008BB010008AF
:10014000BB010008BB010008BB010008BB0100089F
:10015000BB010008BB010008BB010008BB0100088F
:10016000BB010008BB010008BB010008BB0100087F
:10017000BB010008BB010008BB0100080000000033
:10018000BB010008BB010008DFF810D000F08EF8BA
:1001900000480047451E0008AFF30080900B002088
:1001A0000648804706480047FEE7FEE7FEE7FEE711
:1001B000FEE7FEE7FEE7FEE7FEE7FEE7C11A0008FE
:1001C000890100082DE9F05F0546002092469B4614
:1001D00088460646814640241BE02846414647465D
:1001E000224600F053F853465A46C01A914110D3A4
:1001F00011461846224600F03AF82D1A67EB01081E
:100200004F4622460120002100F031F817EB00098B
:100210004E41201EA4F10104DFDC484631462A4647
:100220004346BDE8F09F40EA01039B0703D009E085
:1002300008C9121F08C0042AFAD203E011F8013BD2
:1002400000F8013B521EF9D27047D2B201E000F82B
:10025000012B491EFBD270470022F6E710B513466A
:100260000A4604461946FFF7F0FF204610BD202A33
:1002700004DB203A00FA02F1002070479140C2F1FD
:10028000200320FA03F3194390407047202A04DB2F
:10029000203A21FA02F00021704721FA02F3D040FF
:1002A000C2F120029140084319467047064C074DA1
:1002B00006E0E06840F0010394E807009847103436
:1002C000AC42F6D3FFF764FFB4230008D423000840
:1002D000FEE7704790F83510022903D08021416570
:1002E00001207047052180F835100068016821F071
:1002F000010101600020704770B5044600F0EAF883
:100300000546601C02D004480078044400F0E2F87E
:10031000401BA042FAD370BDB40000202DE9F84F75
:1003200000224FF0010803254FF00F0E0B6808FA6A
:1003300002F42340A3426ED14E68012E05D0022E56
:1003400003D0112E01D0122E12D186684FEA420C32
:1003500005FA0CF7BE43CF6807FA0CF737438760FE
:100360004668A6430C79C4F30014944034434460B7
:10037000C668570005FA07FC8C6826EA0C06BC40E4
:100380003443C4604C68022C01D0122C13D1D40821
:1003900000EB8404A346D4F8209054074FEAD46AB3
:1003A0000EFA0AF629EA06090E6906FA0AF646EA7C
:1003B0000906CBF8206006680C7926EA0C0604F0E2
:1003C0000304BC40344304604C68E40065D5364CFB
:1003D000266846F480462660246822F0030604F46A
:1003E00080440094314C3444A446D4F8084896071D
:1003F000370F0EFA07F6B4432D4EB04201D1002656
:1004000024E02C4EB04201D101261FE02A4EB0421A
:1004100002D102261AE040E0284EB04201D1032664
:1004200014E0274EB04201D104260FE0254EB04221
:1004300001D105260AE0244EB04201D1062605E08E
:10044000224EB04201D1072600E00826BE402643D6
:10045000CCF808681E4E34684F689C43FF0300D5F3
:100460001C4334601A4C241D26684F689E43BF030A
:1004700000D51E432660164E083634684F689C43EC
:10048000FF0200D51C433460114E0C3634684F68AF
:100490009C43BF0200D51C433460521C102AFFF459
:1004A00045AFBDE8F88F00004438024000300140FD
:1004B000000002400004024000080240000C02401C
:1004C000001002400014024000180240001C0240CC
:1004D000003C01400148806870470000B4000020E3
:1004E000024881680278114481607047B40000209E
:1004F0000B4810B5016841F400710160016841F4D6
:1005000080610160016841F480710160032000F0A6
:1005100071F8002000F006F800F024F8002010BD6B
:10052000003C024070B50D4D04464FF47A712878B6
:10053000B1FBF0F00A490968B1FBF0F000F004FBF0
:1005400048B9102C07D200222146501E00F032F884
:1005500000206C6070BD012070BD0000B400002060
:10056000C00000200B4882B0016841F48041016066
:10057000006800F4804000900648001F016841F0C8
:1005800080510160006800F080500090072002B0A8
:1005900000F030B844380240002809DB00F01F02A8
:1005A000012191404009800000F1E020C0F80011D5
:1005B00070470000F0B40E4B1B680C46C3F30223D7
:1005C000C3F10705042D00D90425191D072901D2FF
:1005D000002300E0DB1E012606FA05F1491E21403A
:1005E00099409E40761E16403143F0BC01F0E3BBBB
:1005F0000CED00E0064900F0070208684FF6FF0323
:10060000184040EA0220034A104308607047000087
:100610000CED00E00000FA052DE9F0470E4605005C
:1006200065D0DFF81481D8F80000F7B200F00F00B1
:10063000B04207D288F80070D8F8000000F00F0030
:10064000B04254D128683D4C810712D5400703D5EC
:10065000206840F4E05020602878000703D5206827
:1006600040F4604020602068A96820F0F000084352
:1006700020602878C0072DD03049686808390128E3
:1006800012D0022813D0032811D009688907002945
:100690002DDA216821F0030101432160FFF71AFFE1
:1006A000814641F2883A0EE009688903EFE709685C
:1006B0008901ECE7FFF70EFFA0EB0901514502D9D4
:1006C0000320BDE8F0872068696800F00C00B0EBFB
:1006D000810FEFD1D8F80010404601F00F01B14270
:1006E00007D90770006800F00F00B04201D0012068
:1006F000E7E72878400705D52068E96820F4E0504E
:10070000084320602878000706D52068296920F46E
:10071000604040EAC100206000F038F82168084AD3
:10072000C1F30311515CC8400649086006480068DF
:10073000FFF7F8FE0020C4E7003C02400838024002
:100740009C230008C0000020B80000200448054990
:1007500000680968044AC1F38221515CC8407047AF
:10076000C000002008380240AC23000804480549B6
:1007700000680968044AC1F34231515CC8407047BF
:10078000C000002008380240AC230008154810B50E
:10079000006810F00C02144813D04110042A0FD046
:1007A000082A0ED10F4C241F2268236802F03F0252
:1007B0005B0207D52068C0F38810A0FB010106E0AA
:1007C000084610BD2168C1F38811A1FB0001002378
:1007D000FFF7F8FC2168C1F30141491C4900B0FB57
:1007E000F1F010BD083802400024F4002DE9F84F64
:1007F00004006ED02078DFF83C93C007A9F104050F
:100800004AD009F104000168C1F38101012908D02F
:100810000068C0F3810002280AD1D9F80000400224
:1008200006D52868800337D560680028E1D033E01A
:100830006068B0F5803F10D0B0F5A02F286810D0C8
:1008400020F480302860286820F4802028606068C8
:10085000A8B1FFF73FFE06460DE0286840F480305F
:10086000F4E740F480202860F7E700BFFFF732FE8E
:10087000801B642873D828688003F7D50CE0FFF745
:1008800029FE064605E000BFFFF724FE801B642812
:10089000F0D828688003F7D42078DFF89C8280079E
:1008A0004FF0000A3ED5A348001D016811F00C0F5F
:1008B00008D00068C0F3810002280BD1D9F80000ED
:1008C000400207D42868800716D5E068012800D1C7
:1008D00012E02BE1E068B8B10120C8F80000FFF792
:1008E000F9FD064605E000BFFFF7F4FD801B022876
:1008F000C0D828688007F7D52868216920F0F8005B
:1009000040EAC10028600DE0C8F800A0FFF7E2FD52
:10091000064604E0FFF7DEFD801B02281FD828688A
:100920008007F7D42078000722D5824E834861697A
:10093000703671B101210160FFF7CCFD074604E07C
:10094000FFF7C8FDC01B022809D830688007F7D51B
:100950000EE0C0F800A0FFF7BDFD074605E082E00D
:10096000FFF7B8FDC01B02287DD830688007F7D498
:100970002078400768D5DFF8BCB100270BF13C0BAD
:10098000DBF80000C0000BD4DBF8001041F0805110
:10099000CBF80010DBF80000012700F08050009039
:1009A000674E3068C00510D4306840F48070306005
:1009B000FFF790FD009005E0FFF78CFD0099401ACD
:1009C000022850D83068C005F6D55A4EA0686C365B
:1009D00001280FD00528306810D020F001003060C9
:1009E000306820F004003060A068B8B1FFF772FDF5
:1009F00000900FE0306840F00100F4E740F00400A0
:100A00003060F7E7FFF766FD0099411A41F2883040
:100A1000814266D830688007F4D50EE0FFF75AFDB2
:100A2000009007E0FFF756FD0099411A41F2883027
:100A3000814256D830688007F4D42FB1DBF800101B
:100A400021F08051CBF80010A069C8B33949091DC5
:100A50000968C1F3810102294AD00228504607D013
:100A6000C8F8600000E03CE0FFF734FD04463BE0DE
:100A70004746C8F86000FFF72DFD064605E000BFB9
:100A8000FFF728FD801B02282BD828688001F7D4A7
:100A9000D4E907010843A16A2A4A490802EB014147
:100AA000626A41EA8211084394F82C1040EA01611D
:100AB000C9F8001001203866FFF70CFD044606E077
:100AC00036E000BFFFF706FD001B022809D82868A2
:100AD0008001F7D52CE000BFFFF7FCFC001B0228CB
:100AE00002D90320BDE8F88F28688001F4D41FE004
:100AF0000128F7D0D9F80000E26900F480019142A2
:100B000014D1226A00F03F0191420FD147F6C07123
:100B1000626A0140914209D1A26A00F440319142D7
:100B200004D1E16A00F07060884201D00120D9E769
:100B30000020D7E70438024000004742800E4742B9
:100B4000007000400000FFFF10B5401EB0F1807F34
:100B500001D3012010BD4FF0E02460610F21601728
:100B600001F029F90020A06107202061002010BDBC
:100B70007047000070B5026804461068D168536978
:100B800010F00F0F52D003F0010501F490762E43C0
:100B90005FD0C20705D0CA0503D5E26B42F001025F
:100BA000E263420705D5DA0703D0E26B42F00202A6
:100BB000E263820705D5DA0703D0E26B42F0040254
:100BC000E263020707D501F020022A4303D0E26B5B
:100BD00042F00802E263E26B002A33D0800604D5BB
:100BE000880602D5204600F08FFF20684069E16B3F
:100BF000C0F38010090700D428B3204600F076FF28
:100C00002068416949061AD5416921F040014161D6
:100C1000606BA0B11B490165606BFFF75BFB0028AF
:100C200010D0606B016DBDE870400847830610D599
:100C30008B060ED52046BDE8704000F065BF20460B
:100C4000FFF796FF70BD2046FFF792FF0020E0639C
:100C500070BD030606D50B0604D52046BDE87040DE
:100C600001F032B84006F3D54806F1D5D1682046E8
:100C700021F04001D160202184F8391000F0F1F911
:100C800070BD0000DD1A000870B5040004D094F8AF
:100C90003900002510B106E0012070BD84F83850FD
:100CA000204600F023F8242084F839002068C16829
:100CB00021F40051C160204600F072FF20680169F4
:100CC00021F4904101612068416921F02A014161CC
:100CD0002068C16841F40051C160E563202084F8B8
:100CE000390084F83A00002070BD0000F0B587B0EC
:100CF000044614216846FFF7AFFA3D4B27680022EF
:100D00003C490224032507263B489F4221D1394B09
:100D100014331F6847F010071F601B6803F01003AF
:100D200005930B6843F002030B60096802AB01F006
:100D300002010591C021CDE9001483E864006946F1
:100D4000FFF7ECFA002211462520FFF733FC25209F
:100D500025E0284BDFF8A4C01033674523D118687D
:100D600040F400301860186800F4003005900868FE
:100D700040F001000860086802AF00F00100059033
:100D80000C20CDE9000487E8640069461C48FFF7A1
:100D9000C5FA002211462620FFF70CFC2620FFF79B
:100DA000FBFB07B0F0BDDFF85CC06745F9D11F68F9
:100DB00047F480271F601B6803F4802305930B68AA
:100DC00043F002030B60096802AF01F002010591D4
:100DD0004FF44061CDE9001487E864006946FFF7ED
:100DE0009DFA002211462720FFF7E4FB2720D6E7D3
:100DF000001001403038024000040240004400402E
:100E000000000240004800402DE9F843044690F8F5
:100E10003A00994616460D46202852D1BDB1B6B1CA
:100E200094F8380001284CD0012084F838000027BD
:100E3000E763222084F83A002C34FFF74BFB24F8B8
:100E4000026B804624F80A6B04F8387931E00120FF
:100E5000BDE8F883E08D401EE085A0684346B0F50C
:100E6000805F4FF000024FF020012046CDF8009047
:100E700004D000F05AFF98B10320E9E700F055FFD5
:100E80000028F9D1206900282068406803D0C1B249
:100E900025F8011B0DE0C0F3080125F8021B08E04E
:100EA000206900282068406801D000F07F0005F824
:100EB000010BE08D0028CDD1202084F83A000020DD
:100EC000C6E70220C4E790F83A30202B22D1F9B1CE
:100ED000F2B190F83830012B1CD081628285C28536
:100EE0000021C163222280F83A2080F8381001687E
:100EF000CA6842F48072CA6001684A6942F001021D
:100F00004A610068C16841F02001C160002070475B
:100F100001207047022070472DE9F04106461E4F20
:100F200000681C4900257C1E4FF40078884214D1CB
:100F300039786068194A0244401C60601170616829
:100F4000414500DB65606168414500DB6560134831
:100F500001221149C038FFF7B6FF114930688842B5
:100F600016D13978A0680F4A0244401CA060117065
:100F7000A168414500DBA560A168414500DBA56093
:100F8000BDE8F0410548012203494038FFF79BBF07
:100F9000BDE8F08100100140010000208C0100201C
:100FA000004800408C0300202DE9F843044690F8E7
:100FB00039001F4616460D46202850D1B5B1AEB1B6
:100FC00094F8380001284AD0012084F838004FF006
:100FD0000008C4F83C80212084F83900FFF77AFA31
:100FE000A6848146E68484F8388026E00120BDE8A6
:100FF000F883E08C401EE084A0684B46B0F5805F2B
:101000004FF000024FF080012046009703D000F01F
:101010008CFEE8B90DE000F088FEC8B92888216888
:10102000C0F308004860206908B16D1C05E0AD1CE4
:1010300003E0216815F8010B4860E08C0028D8D146
:101040004B46002240212046009700F06EFE08B17A
:101050000320CCE7202084F839000020C7E70220D5
:10106000C5E77047FEE7000070B54FF47A759EB093
:101070002846FFF741F92622EF490EA8FFF7D3F8DB
:10108000ED4CE08CADF85E0054F8280F1890A08865
:10109000ADF86400E088ADF86600E7490922303118
:1010A0000E461AA8FFF7BFF8607C8DF87100A07C8F
:1010B0008DF8720060691D90382210A96846FFF70C
:1010C000B2F8DDE90E230521DC4801F015F940F600
:1010D000B830FFF711F92622D7490EA8FFF7A3F879
:1010E00034F8020CADF85E0020681890A088ADF8C6
:1010F0006400E088ADF86600092231461AA8FFF7BF
:1011000092F8607C8DF87100A07C8DF872006069A7
:101110001D90382210A96846FFF785F8C748DDE919
:101120000E2306210F3001F0E7F82622C2490CA851
:10113000FFF779F834F8020CADF8560020681690E5
:10114000A088ADF85C00E088ADF85E000922314669
:1011500018A8FFF768F8607C8DF86900A07C8DF80E
:101160006A0060691B90302210A96846FFF75BF89F
:101170000DF1300C9CE80F0001F068F82846FFF7ED
:10118000BBF82622AC490EA8FFF74DF834F8020C44
:10119000ADF85E0020681890A088ADF86400E08883
:1011A000ADF86600092231461AA8FFF73CF8607CCA
:1011B0008DF87100A07C8DF8720060691D90382256
:1011C00010A96846FFF72FF89C48DDE90E2315218A
:1011D000713001F091F8262297490CA8FFF723F807
:1011E00034F8020CADF8560020681690A088ADF8CF
:1011F0005C00E088ADF85E000922314618A8FFF7D0
:1012000012F8607C8DF86900A07C8DF86A00606936
:101210001B90302210A96846FFF705F80DF1300C3D
:101220009CE80F0001F012F82846FFF765F8262227
:1012300081490EA8FEF7F7FF34F8020CADF85E0006
:1012400020681890A088ADF86400E088ADF86600CA
:10125000092231461AA8FEF7E6FF607C8DF871007E
:10126000A07C8DF8720060691D90382210A9684634
:10127000FEF7D9FF7148DDE90E230621153001F094
:101280003BF826226C490CA8FEF7CDFF34F8020C7F
:10129000ADF8560020681690A088ADF85C00E08894
:1012A000ADF85E000922314618A8FEF7BCFF607C4D
:1012B0008DF86900A07C8DF86A0060691B9030226F
:1012C00010A96846FEF7AFFF0DF1300C9CE80F0047
:1012D00000F0BCFF2846FFF70FF8262256490EA85B
:1012E000FEF7A1FF34F8020CADF85E0020681890FC
:1012F000A088ADF86400E088ADF8660009223146A8
:101300001AA8FEF790FF607C8DF87100A07C8DF824
:10131000720060691D90382210A96846FEF783FFAD
:101320004648DDE90E230521401F00F0E5FF262297
:1013300041490CA8FEF777FF34F8020CADF85600CF
:1013400020681690A088ADF85C00E088ADF85E00DB
:101350000922314618A8FEF766FF607C8DF8690007
:10136000A07C8DF86A0060691B90302210A9684645
:10137000FEF759FF0DF1300C9CE80F0000F066FFFE
:1013800042F21070FEF7B8FF26222B490EA8FEF796
:101390004AFF34F8020CADF85E0020681890A0886F
:1013A000ADF86400E088ADF86600092231461AA85D
:1013B000FEF739FF607C8DF87100A07C8DF872001B
:1013C00060691D90382210A96846FEF72CFF1B4863
:1013D000DDE90E2315215C3000F08EFF2622164930
:1013E0000CA8FEF720FF34F8020CADF85600206878
:1013F0001690A088ADF85C00E088ADF85E00092288
:10140000314618A8FEF70FFF607C8DF86900A07CBC
:101410008DF86A0060691B90302210A96846FEF7BB
:1014200002FF0CAC94E80F0000F010FF1EB028463D
:10143000BDE87040FEF760BFCC0000201100002026
:101440002DE9F0434FF47A779FB03846FEF754FF0A
:101450002622FE490EA8FEF7E6FEFC4CE08CADF815
:101460005E0054F8280F1890A088ADF86400E0885A
:10147000ADF86600F5490922303189461AA8FEF711
:10148000D2FE607C8DF87100A07C8DF872006069DE
:101490001D90382210A96846FEF7C5FEDDE90E232F
:1014A0000521EB4800F028FF40F6B830FEF724FF96
:1014B0002622E6490EA8FEF7B6FE34F8020CADF877
:1014C0005E0020681890A088ADF86400E088ADF850
:1014D0006600092249461AA8FEF7A5FE607C8DF831
:1014E0007100A07C8DF8720060691D90382210A9EF
:1014F0006846FEF798FED648DDE90E2306210F3038
:1015000000F0FAFE2622D1490CA8FEF78CFE34F832
:10151000020CADF8560020681690A088ADF85C006B
:10152000E088ADF85E000922494618A8FEF77BFE68
:10153000607C8DF86900A07C8DF86A0060691B9062
:10154000302210A96846FEF76EFE0CAD95E80F003C
:1015500000F07CFEBD49262240390EA8FEF763FE4E
:10156000BA4D403D35F8260FADF85E00B74E803ECF
:1015700056F8680F1890B088ADF864002889ADF867
:101580006600B2490922103988461AA8FEF74BFEB8
:10159000E87C8DF87100287D8DF87200D5F8160072
:1015A0001D90382210A96846FEF73DFEA848DDE9E7
:1015B0000E2306210F3000F09FFE3846FEF79CFEFA
:1015C0002622A2490EA8FEF72EFE34F8020CADF832
:1015D0005E0020681890A088ADF86400E088ADF83F
:1015E0006600092249461AA8FEF71DFE607C8DF8A8
:1015F0007100A07C8DF8720060691D90382210A9DE
:101600006846FEF710FE9248DDE90E231521713081
:1016100000F072FE26228D490CA8FEF704FE34F875
:10162000020CADF8560020681690A088ADF85C005A
:10163000E088ADF85E000922494618A8FEF7F3FDE0
:10164000607C8DF86900A07C8DF86A0060691B9051
:10165000302210A96846FEF7E6FD0DF1300C9CE83B
:101660000F0000F0F3FD3846FEF746FE26227749CC
:101670000EA8FEF7D8FD34F8020CADF85E00206825
:101680001890A088ADF86400E088ADF866000922E3
:1016900049461AA8FEF7C7FD607C8DF87100A07C52
:1016A0008DF8720060691D90382210A96846FEF717
:1016B000BAFD6748DDE90E2306211B3000F01CFE51
:1016C000262262490CA8FEF7AEFD34F8020CADF8F4
:1016D000560020681690A088ADF85C00E088ADF850
:1016E0005E000922494618A8FEF79DFD607C8DF832
:1016F0006900A07C8DF86A0060691B90302210A9F7
:101700006846FEF790FD0DF1300C9CE80F0000F0EC
:101710009DFD4E49262240390EA8FEF784FD2888FB
:10172000ADF85E0030681890B088ADF86400288984
:10173000ADF86600092241461AA8FEF774FDE87C60
:101740008DF87100287D8DF87200D5F816001D9077
:10175000382210A96846FEF766FD3D48DDE90E23F4
:1017600006211B3000F0C8FD3846FEF7C5FD2622D5
:1017700036490EA8FEF757FD34F8020CADF85E00AE
:1017800020681890A088ADF86400E088ADF8660085
:10179000092249461AA8FEF746FD607C8DF87100C3
:1017A000A07C8DF8720060691D90382210A96846EF
:1017B000FEF739FD2648DDE90E230521401F00F024
:1017C0009BFD262221490CA8FEF72DFD34F8020CC2
:1017D000ADF8560020681690A088ADF85C00E0884F
:1017E000ADF85E000922494618A8FEF71CFD607C92
:1017F0008DF86900A07C8DF86A0060691B9030222A
:1018000010A96846FEF70FFD0CAD95E80F0000F03B
:101810001DFD41F65830FEF76FFD26220B490EA83C
:10182000FEF701FD34F8020CADF85E002068189058
:10183000A088ADF86400E088ADF86600092249464A
:101840001AA8FEF7F0FC607C04E000004C010020C8
:10185000110000208DF87100A07C8DF87200606985
:101860001D90382210A96846FEF7DDFCDDE90E2345
:1018700015216C4800F040FD26226B490CA8FEF7AC
:10188000D2FC34F8020CADF8560020681690A088FF
:10189000ADF85C00E088ADF85E000922494618A862
:1018A000FEF7C1FC607C8DF86900A07C8DF86A00B1
:1018B00060691B90302210A96846FEF7B4FC95E8D9
:1018C0000F0000F0C3FC3846FEF716FD26225649ED
:1018D0000EA8FEF7A8FC34F8020CADF85E002068F4
:1018E0001890A088ADF86400E088ADF86600092281
:1018F00049461AA8FEF797FC607C8DF87100A07C21
:101900008DF8720060691D90382210A96846FEF7B4
:101910008AFC4448DDE90E2305213D3800F0ECFC4B
:10192000262241490CA8FEF77EFC34F8020CADF8E3
:10193000560020681690A088ADF85C00E088ADF8ED
:101940005E000922494618A8FEF76DFC607C8DF800
:101950006900A07C8DF86A0060691B90302210A994
:101960006846FEF760FC95E80F0000F06FFC384613
:10197000FEF7C2FC26222C490EA8FEF754FC34F8D0
:10198000020CADF85E0020681890A088ADF86400E5
:10199000E088ADF86600092249461AA8FEF743FC24
:1019A000607C8DF87100A07C8DF8720060691D90DC
:1019B000382210A96846FEF736FC1A48DDE90E23E6
:1019C0001D213F3000F098FC262217490CA8FEF795
:1019D0002AFC34F8020CADF8560020681690A08856
:1019E000ADF85C00E088ADF85E000922494618A811
:1019F000FEF719FC607C8DF86900A07C8DF86A0008
:101A000060691B90302210A96846FEF70CFC95E82F
:101A10000F0000F01BFC1FB03846BDE8F043FEF796
:101A20006BBC0000580000204C010020FEE770470E
:101A300070477047FEF754BD30B593B0302168460B
:101A4000FEF70AFC14210CA8FEF706FC1A48002534
:101A5000016841F080510160006800F080501190F1
:101A60001648016841F4804101600068022400F4D6
:101A70008040119001200090000401908001CDE988
:101A80000640082008904FF4A870CDE9090407200B
:101A90000B906846FEF7AAFE0CA90F2081E83100E2
:101AA0004FF4C0500F904FF4A050109005210CA897
:101AB000FEF7B2FD13B030BD403802400070004068
:101AC0000548016841F47001016003494FF000606E
:101AD000803908607047000088ED00E010B5806B29
:101AE0000021C185C184FFF743F810BD0168CA68B1
:101AF00022F49072CA6001684A6922F001024A61C8
:101B0000202180F83A10704710B590F83A10222939
:101B100001D0022010BD8168B1F5805F11D001694C
:101B2000002901681FD0496801F07F03816A4A1CBF
:101B300082620B70C18D491E0904090CC18518D041
:101B40002BE00269816A002A0268526805D0D2B28D
:101B50000A80816A491C8162ECE7C2F308020A80AC
:101B6000816A891CF7E74A68816A4B1C83620A70A4
:101B7000E0E70168CA6822F02002CA600168CA680A
:101B800022F48072CA6001684A6922F001024A6147
:101B9000202180F83A10FFF7BFF9002010BD0000A7
:101BA0002DE9F041044600680169E26821F44051E2
:101BB000114301612169A068E26908436169114329
:101BC00008432168CA6849F20C639A430243CA6019
:101BD00020684169A26921F4407111434161E069C3
:101BE000192764253226B0F5004F354A354920685B
:101BF0004FF0000806D0884201D0904236D1FEF75F
:101C0000B5FD35E0884201D0904202D1FEF7AEFD2D
:101C100001E0FEF79BFD61684A18A0FB070148EB55
:101C20000803FEF7CFFA0146B0FBF5F00201B1FB65
:101C3000F5F06FF01803584301EB800006EBC0008D
:101C4000B0FBF5F000F0F80002EB4002B1FBF5F05C
:101C5000584301EB800006EBC000B0FBF5F000F04C
:101C60000700216810448860BDE8F081FEF76EFD32
:101C700061688B0F8A00A0FB0701FEF7A3FA0146FB
:101C8000B0FBF5F06FF01802504301EB800006EB5B
:101C90000010B0FBF5F000F0F002B1FBF5F002EB44
:101CA0000012B1FBF5F06FF01803584301EB800010
:101CB00006EB0010B0FBF5F000F00F00D1E70000DC
:101CC000001401400010014090F83910212901D082
:101CD000022070478168B1F5805F016A0BD04A1C11
:101CE0000262026809785160C18C491E0904090C1E
:101CF000C1840ED017E009880268C1F30801516061
:101D000001690029016A02D0491C0162ECE7891CC3
:101D1000FBE70168CA6822F08002CA600068C168F7
:101D200041F04001C160002070472DE9F041984624
:101D300017460E460446069D1DE0681C1BD02DB1BB
:101D4000FEF7C8FBA0EB0800A84214D92068C168C0
:101D500021F4D071C1602068416921F00101416125
:101D6000202084F8390084F83A00002084F83800F4
:101D70000320BDE8F0812068006836EA000004D046
:101D80000020B842D9D00020F3E70120F9E7000095
:101D90000148FEF7EFBE0000CC0000200148FEF72E
:101DA000E9BE00000C0100200148FEF7E3BE000080
:101DB0004C010020FEE70907090E002804DB00F1B2
:101DC000E02080F80014704700F00F0000F1E020E0
:101DD00080F8141D704702E008C8121F08C1002ACD
:101DE000FAD170477047002001E001C1121F002A9C
:101DF000FBD1704710B5002821D0114B0022001FE5
:101E0000196803E0814203D80A4649680029F9D1DC
:101E100052B11368841A9C4204D1006818441060BF
:101E2000104602E0506000E0186039B102680B1AF9
:101E3000934203D10B681A4402604968416010BDA7
:101E4000C4000020C2B0FEF753FBFFF7F5FDDE48EB
:101E50000026016841F080010160016801F0800105
:101E60003F91016841F001010160016801F0010149
:101E70003F91016841F0020101600068D44C00F01C
:101E800002003F90D14820604FF4E137C4E9017669
:101E90004FF00C08E660C4E90468A6612046E661DC
:101EA000FEF7F2FE04F14000CA490160C0E9017684
:101EB000C660C0E904688661C661FEF7E5FE04F10C
:101EC0008005C5482860C5E90176EE60C5E904686B
:101ED000AE612846EE61FEF7D7FEFFF7B1FAFFF7D5
:101EE000C3F84FF47A763046FEF706FA26222946E2
:101EF00030A8FEF798F9E88CADF8E600A86A3A90A9
:101F0000A88DADF8EC00E88DADF8EE0004F1B0015D
:101F100009220F463CA8FEF786F995F839008DF89E
:101F2000F90095F83A008DF8FA00E86B3F903822F6
:101F300032A96846FEF777F9DDE930230721A74883
:101F400000F0DAF92622294630A8FEF76CF9E88C71
:101F5000ADF8E600A86A3A90A88DADF8EC00E88DDF
:101F6000ADF8EE00092239463CA8FEF75CF995F879
:101F700039008DF8F90095F83A008DF8FA00E86B11
:101F80003F90302234A96846FEF74DF90DF1C00CA0
:101F90009CE80F0000F05AF9C820FEF7ADF92622A0
:101FA000214630A8FEF73FF9E08CADF8E600A06AC4
:101FB0003A90A08DADF8EC00E08DADF8EE0004F1A4
:101FC000300109223CA84191FEF72DF994F839001F
:101FD0008DF8F90094F83A008DF8FA00E06B3F9024
:101FE000382232A96846FEF71EF9DDE930230721C1
:101FF0007A4800F081F92622214630A8FEF713F92D
:10200000E08CADF8E600A06A3A90A08DADF8EC0047
:10201000E08DADF8EE0009223CA84199FEF703F9E6
:1020200094F839008DF8F90094F83A008DF8FA0028
:10203000E06B3F90302234A96846FEF7F4F80DF1CA
:10204000C00C9CE80F0000F001F93046FEF754F98F
:102050003CA90DF1C80B8A460DF1D00988463CAE6B
:1020600034AD32AF40912622594930A8FEF7DBF853
:10207000E08CADF8E60054F8280F3A90A088ADF84F
:10208000EC00E088ADF8EE00DDE940010922FEF742
:10209000CAF8607C8DF8F900A07C8DF8FA006069C0
:1020A0003F90382259466846FEF7BDF84B48DDE9B7
:1020B000302305211C3800F01FF92622444930A89E
:1020C000FEF7B1F834F8020CADF8E60020683A905B
:1020D000A088ADF8EC00E088ADF8EE00092250468B
:1020E0004199FEF7A0F8607C8DF8F900A07C8DF88E
:1020F000FA0060693F90302249466846FEF793F83F
:102100000DF1C00C9CE80F0000F0A0F84FF47A70BD
:10211000FEF7F2F826222E4930A8FEF784F834F8AC
:10212000020CADF8E60020683A90A088ADF8EC000B
:10213000E088ADF8EE00092240464199FEF773F8B9
:10214000607C8DF8F900A07C8DF8FA0060693F9002
:10215000382239466846FEF766F82048DDE9302324
:102160001F21C01D00F0C8F82622194930A8FEF72B
:102170005AF834F8020CADF8E60020683A90A088CE
:10218000ADF8EC00E088ADF8EE0009223046419948
:10219000FEF749F8607C8DF8F900A07C8DF8FA0014
:1021A00060693F90302229466846283CFEF73BF89C
:1021B0000DF1C00C9CE80F0000F048F841F28830A7
:1021C000FEF79AF84FE70000303802400010014057
:1021D000CC000020004400400048004032000020B5
:1021E000F0B50B30154D20F007010024144A0FE024
:1021F00003688B420BD38B4205D95E1A431847689C
:10220000C3E9006700E04368136002C004E0021DF8
:1022100010680028ECD12046002802D1286808B1B7
:102220000020F0BD064A07481060074A121A22F043
:102230000702C0E9002401202860D7E7C800002079
:10224000C400002094050020900700200FB42DE961
:10225000F043ADF5017D00246D464FF47A7603E03E
:102260009DF800022855641C3346012280A988A8E5
:10227000FEF7CAFD0028F3D0012000EB44042046FD
:10228000FFF7AEFF0546EC46221E03464FF0000660
:1022900021D000200146B1461BE000BF1CF80070B1
:1022A000C619964201D9012F15D10126401C07E01D
:1022B0001CF80080761C03F80180401CF6B2491C13
:1022C000BE42F5D3FF2F04D0904202D003F8019014
:1022D000491C9042E2D392B20A2329460548FEF7F0
:1022E00063FE2846FFF786FD0DF5017DBDE8F0038E
:1022F0005DF814FB0C0100200FB42DE9F0410646F7
:10230000FE20B1FBF0F00D4647197F1C3846FFF761
:1023100067FF044600210846325C401C51400428F7
:10232000FAD331714FF000034FF00100A446194673
:10233000024619E016F803E0BEF1000F08D00CF8D1
:1023400000E0521CD2B2401C5B1CFF2A0CD106E0FC
:102350000CF8012001460122401C5B1C04E00CF833
:10236000012001220146401CAB42E3D362544FF4EA
:102370007A752B460122084908A8FEF715FEBAB265
:102380002B46214608A8FEF70FFE2046FFF732FD38
:10239000BDE8F0015DF814FB000000200000000023
:1023A0000000000001020304060708090000000005
:1023B00001020304D423000800000020CC00000028
:1023C000D61D0008A0240008CC000020C40A00008C
:1023D000E61D0008000000000000000000000000F2
:1023E0000000100818000010001000001105140073
:1023F00000101B0B00011012080B000110190B0339
:10240000000110190E0600021009123039001A10CE
:102410002F0630393039ABCD00000000000000003D
:1024200000000000123448656C6C6F210010102011
:1024300060ABCD00000000000000000000000012B2
:10244000340010102060ABCD000000000000000040
:102450000000000034120010101769383430344482
:10246000323030303030303035464300181018C527
:102470008404D200000005FC38343034443230305B
:10248000303030303035464301000000100000008D
:10249000000000000024F400000000000000000024
:040000050800018965
:00000001FF
