:020000040800F2
:10000000D80B0020A10100087B170008AD100008E4
:1000100079170008AD020008011B0008000000006D
:100020000000000000000000000000007F17000832
:10003000AF020008000000007D17000881170008CB
:10004000BB010008BB010008BB010008BB010008A0
:10005000BB010008BB010008BB010008BB01000890
:10006000BB010008BB010008BB010008BB01000880
:10007000BB010008BB010008BB010008BB01000870
:10008000BB010008BB010008BB010008BB01000860
:10009000BB010008BB010008BB010008BB01000850
:1000A000BB010008BB010008BB010008BB01000840
:1000B000BB010008BB010008BB010008BB01000830
:1000C000BB010008BB010008BB010008BB01000820
:1000D000BB010008DD1A0008E91A0008F51A00083B
:1000E000BB010008BB010008BB010008BB01000800
:1000F000BB010008BB010008BB010008BB010008F0
:10010000BB010008BB010008BB010008BB010008DF
:10011000BB010008BB010008BB010008BB010008CF
:10012000BB010008BB010008BB010008BB010008BF
:10013000BB010008BB010008BB010008BB010008AF
:10014000BB010008BB010008BB010008BB0100089F
:10015000BB010008BB010008BB010008BB0100088F
:10016000BB010008BB010008BB010008BB0100087F
:10017000BB010008BB010008BB0100080000000033
:10018000BB010008BB010008DFF810D000F07CF8CC
:1001900000480047A11D0008AFF30080D80B0020E5
:1001A0000648804706480047FEE7FEE7FEE7FEE711
:1001B000FEE7FEE7FEE7FEE7FEE7FEE70D180008B4
:1001C000890100082DE9F05F0546002092469B4614
:1001D00088460646814640241BE02846414647465D
:1001E000224600F041F853465A46C01A914110D3B6
:1001F00011461846224600F028F82D1A67EB010830
:100200004F4622460120002100F01FF817EB00099D
:100210004E41201EA4F10104DFDC484631462A4647
:100220004346BDE8F09FD2B201E000F8012B491E21
:10023000FBD270470022F6E710B513460A46044683
:100240001946FFF7F0FF204610BD202A04DB203AB4
:1002500000FA02F1002070479140C2F1200320FA19
:1002600003F3194390407047202A04DB203A21FA17
:1002700002F00021704721FA02F3D040C2F12002BF
:100280009140084319467047064C074D06E0E06868
:1002900040F0010394E8070098471034AC42F6D3CD
:1002A000FFF776FF4020000860200008FEE7704757
:1002B00090F83510022903D0802141650120704754
:1002C000052180F835100068016821F00101016006
:1002D0000020704770B5044600F0EAF80546601C3F
:1002E00002D004480078044400F0E2F8401BA04229
:1002F000FAD370BDFC0000202DE9F84F00224FF02A
:10030000010803254FF00F0E0B6808FA02F4234092
:10031000A3426ED14E68012E05D0022E03D0112EBD
:1003200001D0122E12D186684FEA420C05FA0CF762
:10033000BE43CF6807FA0CF7374387604668A64389
:100340000C79C4F30014944034434460C6685700E9
:1003500005FA07FC8C6826EA0C06BC403443C460EE
:100360004C68022C01D0122C13D1D40800EB840469
:10037000A346D4F8209054074FEAD46A0EFA0AF63E
:1003800029EA06090E6906FA0AF646EA0906CBF8D2
:10039000206006680C7926EA0C0604F00304BC40D1
:1003A000344304604C68E40065D5364C266846F456
:1003B00080462660246822F0030604F480440094FA
:1003C000314C3444A446D4F808489607370F0EFA47
:1003D00007F6B4432D4EB04201D1002624E02C4E46
:1003E000B04201D101261FE02A4EB04202D10226BE
:1003F0001AE040E0284EB04201D1032614E0274E17
:10040000B04201D104260FE0254EB04201D10526AD
:100410000AE0244EB04201D1062605E0224EB04249
:1004200001D1072600E00826BE402643CCF8086824
:100430001E4E34684F689C43FF0300D51C43346054
:100440001A4C241D26684F689E43BF0300D51E43E7
:100450002660164E083634684F689C43FF0200D56C
:100460001C433460114E0C3634684F689C43BF0205
:1004700000D51C433460521C102AFFF445AFBDE880
:10048000F88F000044380240003001400000024074
:100490000004024000080240000C0240001002402C
:1004A0000014024000180240001C0240003C0140C1
:1004B0000148806870470000FC0000200248816805
:1004C0000278114481607047FC0000200B4810B591
:1004D000016841F400710160016841F480610160CC
:1004E000016841F480710160032000F071F8002080
:1004F00000F006F800F024F8002010BD003C024097
:1005000070B50D4D04464FF47A712878B1FBF0F0C8
:100510000A490968B1FBF0F000F004FB48B9102C5F
:1005200007D200222146501E00F032F800206C60F5
:1005300070BD012070BD0000FC00002008010020FB
:100540000B4882B0016841F480410160006800F40A
:10055000804000900648001F016841F08051016012
:10056000006800F080500090072002B000F030B822
:1005700044380240002809DB00F01F0201219140AD
:100580004009800000F1E020C0F800117047000031
:10059000F0B40E4B1B680C46C3F30223C3F10705EE
:1005A000042D00D90425191D072901D2002300E0DC
:1005B000DB1E012606FA05F1491E214099409E40A6
:1005C000761E16403143F0BC01F09BBA0CED00E002
:1005D000064900F0070208684FF6FF03184040EA9A
:1005E0000220034A10430860704700000CED00E051
:1005F0000000FA052DE9F0470E46050065D0DFF84A
:100600001481D8F80000F7B200F00F00B04207D212
:1006100088F80070D8F8000000F00F00B04254D104
:1006200028683D4C810712D5400703D5206840F467
:10063000E05020602878000703D5206840F460402F
:1006400020602068A96820F0F00008432060287826
:10065000C0072DD0304968680839012812D0022817
:1006600013D0032811D00968890700292DDA2168E1
:1006700021F0030101432160FFF71AFF814641F297
:10068000883A0EE009688903EFE709688901ECE719
:10069000FFF70EFFA0EB0901514502D90320BDE889
:1006A000F0872068696800F00C00B0EB810FEFD193
:1006B000D8F80010404601F00F01B14207D9077089
:1006C000006800F00F00B04201D00120E7E7287871
:1006D000400705D52068E96820F4E0500843206011
:1006E0002878000706D52068296920F4604040EA90
:1006F000C100206000F038F82168084AC1F30311F6
:10070000515CC8400649086006480068FFF7F8FEDB
:100710000020C4E7003C02400838024026200008C0
:10072000080100200001002004480549006809680C
:10073000044AC1F38221515CC8407047080100207F
:100740000838024036200008044805490068096856
:10075000044AC1F34231515CC8407047080100208F
:100760000838024036200008154810B5006810F01F
:100770000C02144813D04110042A0FD0082A0ED1BD
:100780000F4C241F2268236802F03F025B0207D54A
:100790002068C0F38810A0FB010106E0084610BDE8
:1007A0002168C1F38811A1FB00010023FFF70AFDB6
:1007B0002168C1F30141491C4900B0FBF1F010BDB3
:1007C000083802400024F4002DE9F84F04006ED0F0
:1007D0002078DFF83C93C007A9F104054AD009F15D
:1007E00004000168C1F38101012908D00068C0F349
:1007F000810002280AD1D9F80000400206D52868F5
:10080000800337D560680028E1D033E06068B0F538
:10081000803F10D0B0F5A02F286810D020F4803091
:100820002860286820F4802028606068A8B1FFF75D
:100830003FFE06460DE0286840F48030F4E740F4BF
:1008400080202860F7E700BFFFF732FE801B642896
:1008500073D828688003F7D50CE0FFF729FE064619
:1008600005E000BFFFF724FE801B6428F0D828684D
:100870008003F7D42078DFF89C8280074FF0000ACD
:100880003ED5A348001D016811F00C0F08D0006888
:10089000C0F3810002280BD1D9F80000400207D430
:1008A0002868800716D5E068012800D112E02BE106
:1008B000E068B8B10120C8F80000FFF7F9FD06466E
:1008C00005E000BFFFF7F4FD801B0228C0D82868B0
:1008D0008007F7D52868216920F0F80040EAC100B8
:1008E00028600DE0C8F800A0FFF7E2FD064604E02E
:1008F000FFF7DEFD801B02281FD828688007F7D489
:100900002078000722D5824E83486169703671B124
:1009100001210160FFF7CCFD074604E0FFF7C8FDA9
:10092000C01B022809D830688007F7D50EE0C0F850
:1009300000A0FFF7BDFD074605E082E0FFF7B8FD28
:10094000C01B02287DD830688007F7D42078400784
:1009500068D5DFF8BCB100270BF13C0BDBF80000D9
:10096000C0000BD4DBF8001041F08051CBF8001030
:10097000DBF80000012700F080500090674E3068DF
:10098000C00510D4306840F480703060FFF790FDEF
:10099000009005E0FFF78CFD0099401A022850D81E
:1009A0003068C005F6D55A4EA0686C3601280FD0C5
:1009B0000528306810D020F001003060306820F049
:1009C00004003060A068B8B1FFF772FD00900FE03E
:1009D000306840F00100F4E740F004003060F7E7D1
:1009E000FFF766FD0099411A41F28830814266D8CE
:1009F00030688007F4D50EE0FFF75AFD009007E05D
:100A0000FFF756FD0099411A41F28830814256D8CD
:100A100030688007F4D42FB1DBF8001021F080514A
:100A2000CBF80010A069C8B33949091D0968C1F3A2
:100A3000810102294AD00228504607D0C8F8600038
:100A400000E03CE0FFF734FD04463BE04746C8F8D1
:100A50006000FFF72DFD064605E000BFFFF728FD0B
:100A6000801B02282BD828688001F7D4D4E907011D
:100A70000843A16A2A4A490802EB0141626A41EA35
:100A80008211084394F82C1040EA0161C9F8001063
:100A900001203866FFF70CFD044606E036E000BF93
:100AA000FFF706FD001B022809D828688001F7D54A
:100AB0002CE000BFFFF7FCFC001B022802D903203A
:100AC000BDE8F88F28688001F4D41FE00128F7D032
:100AD000D9F80000E26900F48001914214D1226A41
:100AE00000F03F0191420FD147F6C071626A0140A8
:100AF000914209D1A26A00F44031914204D1E16AE5
:100B000000F07060884201D00120D9E70020D7E7CB
:100B10000438024000004742800E47420070004007
:100B20000000FFFF10B5401EB0F1807F01D301200F
:100B300010BD4FF0E02460610F21601700F0E1FF6D
:100B40000020A06107202061002010BD7047000038
:100B500070B5026804461068D168536910F00F0F31
:100B600052D003F0010501F490762E435FD0C20706
:100B700005D0CA0503D5E26B42F00102E2634207E9
:100B800005D5DA0703D0E26B42F00202E263820786
:100B900005D5DA0703D0E26B42F00402E2630207F4
:100BA00007D501F020022A4303D0E26B42F008028D
:100BB000E263E26B002A33D0800604D5880602D5B2
:100BC000204600F047FE20684069E16BC0F38010CA
:100BD000090700D428B3204600F02EFE20684169A2
:100BE00049061AD5416921F040014161606BA0B10D
:100BF0001B490165606BFFF75BFB002810D0606B41
:100C0000016DBDE870400847830610D58B060ED5F0
:100C10002046BDE8704000F01DBE2046FFF796FF5D
:100C200070BD2046FFF792FF0020E06370BD030611
:100C300006D50B0604D52046BDE8704000F0EABE9C
:100C40004006F3D54806F1D5D168204621F0400191
:100C5000D160202184F8391000F027FA70BD00001F
:100C60002918000870B5040004D094F83900002554
:100C700010B106E0012070BD84F83850204600F025
:100C800023F8242084F839002068C16821F4005139
:100C9000C160204600F02AFE2068016921F49041DD
:100CA00001612068416921F02A0141612068C16821
:100CB00041F40051C160E563202084F8390084F8D4
:100CC0003A00002070BD0000F0B587B00446142142
:100CD0006846FFF7AFFA3D4B276800223C490224E3
:100CE000032507263B489F4221D1394B14331F6807
:100CF00047F010071F601B6803F0100305930B6893
:100D000043F002030B60096802AB01F00201059198
:100D1000C021CDE9001483E864006946FFF7ECFACE
:100D2000002211462520FFF733FC252025E0284B23
:100D3000DFF8A4C01033674523D1186840F40030B1
:100D40001860186800F400300590086840F0010051
:100D50000860086802AF00F0010005900C20CDE9A2
:100D6000000487E8640069461C48FFF7C5FA0022C2
:100D700011462620FFF70CFC2620FFF7FBFB07B0EF
:100D8000F0BDDFF85CC06745F9D11F6847F48027E4
:100D90001F601B6803F4802305930B6843F0020374
:100DA0000B60096802AF01F0020105914FF4406148
:100DB000CDE9001487E864006946FFF79DFA002238
:100DC00011462720FFF7E4FB2720D6E7001001405B
:100DD000303802400004024000440040000002405D
:100DE000004800402DE9F843044690F83A0099463F
:100DF00016460D46202852D1BDB1B6B194F8380040
:100E000001284CD0012084F838000027E763222015
:100E100084F83A002C34FFF74BFB24F8026B804631
:100E200024F80A6B04F8387931E00120BDE8F88332
:100E3000E08D401EE085A0684346B0F5805F4FF02E
:100E400000024FF020012046CDF8009004D000F0C1
:100E500012FE98B10320E9E700F00DFE0028F9D159
:100E6000206900282068406803D0C1B225F8011B22
:100E70000DE0C0F3080125F8021B08E020690028F6
:100E80002068406801D000F07F0005F8010BE08D7C
:100E90000028CDD1202084F83A000020C6E70220A7
:100EA000C4E790F83A30202B22D1F9B1F2B190F892
:100EB0003830012B1CD081628285C2850021C1633C
:100EC000222280F83A2080F838100168CA6842F47B
:100ED0008072CA6001684A6942F001024A61006892
:100EE000C16841F02001C1600020704701207047B7
:100EF000022070472DE9F047064600683649374F13
:100F0000ADF5027D4FF00008A7F10804884243D1F7
:100F10003D788DF80052E068012809D180AB304A55
:100F20000121184600F090FE9DF80002401DE0707F
:100F3000E068DFF8B09009EB0001401CE0600D7044
:100F4000E068E178884221DB00254FF4007A06E072
:100F5000244B234A5146684600F076FE6D1CE0782B
:100F60008542F5DBC2B21F4801236946803800F094
:100F70003FF84146C4F80C800020E2786D464B46AD
:100F800002E029541954401C9042FADA1548012213
:100F90001249C038FFF785FF13493068884217D1DE
:100FA0003878E168012901D1411D217121690F4A79
:100FB0000A44491C2161107020692179884201DBB3
:100FC000C4F810800748012204494038FFF769FF40
:100FD0000DF5027DBDE8F0870010014008000020FB
:100FE00023200008D401002000480040D403002042
:100FF0002DE9F843044690F839001F4616460D4681
:10100000202850D1B5B1AEB194F8380001284AD0AB
:10101000012084F838004FF00008C4F83C802120FB
:1010200084F83900FFF744FAA6848146E68484F800
:10103000388026E00120BDE8F883E08C401EE08483
:10104000A0684B46B0F5805F4FF000024FF0800182
:101050002046009703D000F00EFDE8B90DE000F047
:101060000AFDC8B928882168C0F3080048602069D3
:1010700008B16D1C05E0AD1C03E0216815F8010BFB
:101080004860E08C0028D8D14B4600224021204601
:10109000009700F0F0FC08B10320CCE7202084F892
:1010A00039000020C7E70220C5E77047FEE70000CF
:1010B0002DE9F04F8FB0D54A0521D54800F054FFF7
:1010C00040F6B830FFF706F9D148D04A05210F3075
:1010D00000F04AFFCD4800F02BFF4FF47A763046FF
:1010E000FFF7F8F83046FFF7F5F80620052401274A
:1010F000804600F0E7FE0390C54900203231039A94
:101100000B5C1354401CA042F9D3C14D193DE119A9
:10111000A878039A1055641CA142FAD8BB4A4146EC
:10112000039800F021FFB94800F002FF3046FFF7B6
:10113000D1F8062005240127804600F0C3FE049064
:10114000B34900200A31049A0B5C1354401CA0429E
:10115000F9D36879E119049A1055641CA142FAD8B0
:10116000AA4A4146049800F0FFFEA84800F0E0FEBD
:101170003046FFF7AFF8072505240227284600F080
:10118000A1FE8346A249002014310B5C0BF800300D
:10119000401CA042F9D39E4A0020E119133A5B4655
:1011A000175C0BF80470401C641CA142F7D8974AE6
:1011B0002946184600F0D8FE944800F0B9FE3046A3
:1011C000FFF788F80E2505240927284600F07AFE47
:1011D00082468F49002019310B5C0AF80030401C10
:1011E000A042F9D38A4A0020E119A4325346175C81
:1011F0000AF80470401C641CA142F7D8834A2946AF
:10120000184600F0B1FE814800F092FE3046FFF72C
:1012100061F805240927284600F054FE81467C49E0
:1012200000201E310B5C09F80030401CA042F9D3AD
:10123000774A0020E119AD324B46175C09F804707B
:10124000401C641CA142F7D8704A2946184600F099
:101250008BFE6E4800F06CFE3046FFF73BF815251C
:1012600005241027284600F02DFE804668490020FE
:1012700023310B5C08F80030401CA042F9D3644ACB
:101280000020E119B6324346175C08F80470401C90
:10129000641CA142F7D85D4A2946184600F064FE56
:1012A0005A4800F045FE3046FFF714F80D2005249B
:1012B00008270A9000F006FE05465549002028310F
:1012C0000A5C2A54401CA042FAD36420FFF702F8BB
:1012D0004F4A0020E1194A32135C2B55401C641C14
:1012E000A142F9D8494A28460A9900F03DFE4748EC
:1012F00000F01EFE4FF47A70FEF7ECFF0F2005247D
:101300000A270B9000F0DEFD0646414900202D31F2
:101310000A5C3254401CA042FAD36420FEF7DAFF84
:101320003B4A0020E119C632135C3355401C641C53
:10133000A142F9D8354A30460B9900F015FE3348E2
:1013400000F0F6FD4FF47A70FEF7C4FF1020029013
:10135000152005240C9000F0B5FD07462C4900200F
:1013600037310A5C3A54401CA042FAD30299284A09
:1013700000202144D032135C3B55401C641CA14228
:10138000F9D8224A38460C9900F0EEFD1F4800F0CB
:10139000CFFD4FF47A742046FEF79CFF1C481B4A91
:1013A0000521401F00F0E0FD184800F0C1FD41F2AA
:1013B0008830FEF78FFF1648144A15218F3000F051
:1013C000D3FD124800F0B4FD2046FEF783FF3846F7
:1013D00000F0BEFC304600F0BBFC284600F0B8FC34
:1013E000404600F0B5FC484600F0B2FC504600F024
:1013F000AFFC584600F0ACFC049800F0A9FC039840
:101400000FB0BDE8F04F00F0A3BC000014010020B5
:10141000190000202DE9F04F8FB0D54A0521D5489D
:1014200000F0A2FD40F6B830FEF754FFD148D04A94
:1014300005210F3000F098FDCD4800F079FD4FF404
:101440007A763046FEF746FF3046FEF743FF062029
:1014500005240127804600F035FD0390C549002092
:101460003231039A0B5C1354401CA042F9D3C14D96
:10147000193DE1196878039A1055641CA142FAD805
:10148000BB4A4146039800F06FFDB94800F050FD9B
:101490003046FEF71FFF062005240127804600F096
:1014A00011FD0490B34900200A31049A0B5C1354D7
:1014B000401CA042F9D36879E119049A1055641CC4
:1014C000A142FAD8AA4A4146049800F04DFDA84826
:1014D00000F02EFD3046FEF7FDFE0725052402270D
:1014E000284600F0EFFC8346A249002014310B5C33
:1014F0000BF80030401CA042F9D39E4A0020E119AD
:10150000133A5B46175C0BF80470401C641CA14244
:10151000F7D8974A2946184600F026FD944800F06F
:1015200007FD3046FEF7D6FE0E250524092728467E
:1015300000F0C8FC82468F49002019310B5C0AF884
:101540000030401CA042F9D38A4A0020E119A4329D
:101550005346175C0AF80470401C641CA142F7D87B
:10156000834A2946184600F0FFFC814800F0E0FC61
:101570003046FEF7AFFE05240927284600F0A2FCFE
:1015800081467C4900201E310B5C09F80030401C6C
:10159000A042F9D3774A0020E119AD324B46175CDF
:1015A00009F80470401C641CA142F7D8704A29460F
:1015B000184600F0D9FC6E4800F0BAFC3046FEF741
:1015C00089FE152505241027284600F07BFC80465F
:1015D0006849002023310B5C08F80030401CA04211
:1015E000F9D3644A0020E119B6324346175C08F883
:1015F0000470401C641CA142F7D85D4A2946184675
:1016000000F0B2FC5A4800F093FC3046FEF762FE50
:101610000D20052408270A9000F054FC0546554982
:10162000002028310A5C2A54401CA042FAD36420CE
:10163000FEF750FE4F4A0020E1194A32135C2B5549
:10164000401C641CA142F9D8494A28460A9900F076
:101650008BFC474800F06CFC4FF47A70FEF73AFEC2
:101660001520052410270B9000F02CFC064641495C
:10167000002037310A5C3254401CA042FAD3642067
:10168000FEF728FE3B4A0020E119D032135C3355A7
:10169000401C641CA142F9D8354A30460B9900F031
:1016A00063FC334800F044FC4FF47A70FEF712FEFE
:1016B0000A2002900F2005240C9000F003FC07463E
:1016C0002C4900202D310A5C3A54401CA042FAD328
:1016D0000299284A00202144C632135C3B55401C25
:1016E000641CA142F9D8224A38460C9900F03CFC0F
:1016F0001F4800F01DFC4FF47A742046FEF7EAFD07
:101700001C481B4A0521401F00F02EFC184800F021
:101710000FFC41F65830FEF7DDFD1648144A15213E
:101720007A3000F021FC124800F002FC2046FEF75F
:10173000D1FD384600F00CFB304600F009FB28468E
:1017400000F006FB404600F003FB484600F000FBBB
:10175000504600F0FDFA584600F0FAFA049800F0FE
:10176000F7FA03980FB0BDE8F04F00F0F1BA0000AF
:101770009401002019000020FEE770477047704771
:10178000FEF79CBE30B593B030216846FEF752FD9F
:1017900014210CA8FEF74EFD1A480025016841F0FF
:1017A00080510160006800F0805011901648016877
:1017B00041F4804101600068022400F480401190EF
:1017C00001200090000401908001CDE9064008202E
:1017D00008904FF4A870CDE9090407200B906846E3
:1017E000FEF7F2FF0CA90F2081E831004FF4C05042
:1017F0000F904FF4A050109005210CA8FEF7FAFEB0
:1018000013B030BD40380240007000400548016808
:1018100041F47001016003494FF0006080390860B5
:101820007047000088ED00E010B5806B0021C18595
:10183000C184FFF78BF910BD0168CA6822F4907269
:10184000CA6001684A6922F001024A61202180F8D9
:101850003A10704710B590F83A10222901D00220B2
:1018600010BD8168B1F5805F11D001690029016860
:101870001FD0496801F07F03816A4A1C82620B70A5
:10188000C18D491E0904090CC18518D02BE00269DD
:10189000816A002A0268526805D0D2B20A80816A41
:1018A000491C8162ECE7C2F308020A80816A891C44
:1018B000F7E74A68816A4B1C83620A70E0E70168B7
:1018C000CA6822F02002CA600168CA6822F48072E5
:1018D000CA6001684A6922F001024A61202180F849
:1018E0003A10FFF707FB002010BD00002DE9F04182
:1018F000044600680169E26821F440511143016126
:101900002169A068E26908436169114308432168BD
:10191000CA6849F20C639A430243CA60206841696D
:10192000A26921F4407111434161E06919276425DE
:101930003226B0F5004F354A354920684FF000088F
:1019400006D0884201D0904236D1FEF7FDFE35E048
:10195000884201D0904202D1FEF7F6FE01E0FEF788
:10196000E3FE61684A18A0FB070148EB0803FEF795
:1019700029FC0146B0FBF5F00201B1FBF5F06FF078
:101980001803584301EB800006EBC000B0FBF5F0F4
:1019900000F0F80002EB4002B1FBF5F0584301EB18
:1019A000800006EBC000B0FBF5F000F007002168F6
:1019B00010448860BDE8F081FEF7B6FE61688B0FC9
:1019C0008A00A0FB0701FEF7FDFB0146B0FBF5F026
:1019D0006FF01802504301EB800006EB0010B0FBE3
:1019E000F5F000F0F002B1FBF5F002EB0012B1FBF4
:1019F000F5F06FF01803584301EB800006EB001080
:101A0000B0FBF5F000F00F00D1E70000001401403A
:101A10000010014090F83910212901D002207047B0
:101A20008168B1F5805F016A0BD04A1C02620268CE
:101A300009785160C18C491E0904090CC1840ED07B
:101A400017E009880268C1F30801516001690029A3
:101A5000016A02D0491C0162ECE7891CFBE70168BE
:101A6000CA6822F08002CA600068C16841F0400183
:101A7000C160002070472DE9F041984617460E4698
:101A80000446069D1DE0681C1BD02DB1FEF710FD1D
:101A9000A0EB0800A84214D92068C16821F4D071D5
:101AA000C1602068416921F001014161202084F872
:101AB000390084F83A00002084F838000320BDE89B
:101AC000F0812068006836EA000004D00020B842A7
:101AD000D9D00020F3E70120F9E700000148FFF723
:101AE00037B80000140100200148FFF731B80000AA
:101AF000540100200148FFF72BB80000940100209A
:101B0000FEE70907090E002804DB00F1E02080F859
:101B10000014704700F00F0000F1E02080F8141D61
:101B2000704702E008C8121F08C1002AFAD17047A6
:101B30007047002001E001C1121F002AFBD170474D
:101B40002DE9F8438846064600258DF800501946D1
:101B50006846904700286CD09DF80000394C01275A
:101B600018B1207901280DD069E0A07905212180E4
:101B7000658027716571A571E57135603571002843
:101B800055D05CE0B4F90200022810DB607970B92E
:101B9000208871780844317800EB012081B22180DF
:101BA000414549D8701D491FFEF744FB6771A17973
:101BB00081B1B4F902002288904202DA9DF8002037
:101BC0003254401C00B2491E608011F0FF01A17127
:101BD00021D024E09DF80000D02804D2A0F101001B
:101BE000A071E77114E003D14FF0CF00A07115E0B0
:101BF000D12821D0D2281FD0E02803D2A571D03817
:101C0000E07107E0FF2817D2E038A0710220E071F0
:101C1000A07920B96088E17908446080E571B4F961
:101C20000200218888420ADB2571B4F90000BDE872
:101C3000F8836FF00100FAE74FF0FF30F7E700207C
:101C4000F5E700006C0000202DE9F84388460646C1
:101C500000258DF8005019466846904700286CD042
:101C60009DF80000394C012718B1207901280DD0CA
:101C700069E0A07905212180658027716571A571D2
:101C8000E57135603571002855D05CE0B4F902008B
:101C9000022810DB607970B92088717808443178A7
:101CA00000EB012081B22180414549D8701D491FB8
:101CB000FEF7C0FA6771A17981B1B4F902002288F8
:101CC000904202DA9DF800203254401C00B2491EB6
:101CD000608011F0FF01A17121D024E09DF8000087
:101CE000D02804D2A0F10100A071E77114E003D163
:101CF0004FF0CF00A07115E0D12821D0D2281FD0FD
:101D0000E02803D2A571D038E07107E0FF2817D290
:101D1000E038A0710220E071A07920B96088E179F3
:101D200008446080E571B4F90200218888420ADB2A
:101D30002571B4F90000BDE8F8836FF00100FAE7FF
:101D40004FF0FF30F7E70020F5E700006C000020BF
:101D500010B5002821D0114B0022001F196803E0A4
:101D6000814203D80A4649680029F9D152B1136863
:101D7000841A9C4204D1006818441060104602E0A6
:101D8000506000E0186039B102680B1A934203D129
:101D90000B681A4402604968416010BD0C010020C4
:101DA00008B5FEF793FBFFF7EDFC404800240168FF
:101DB00041F080010160016801F08001009101683B
:101DC00041F001010160016801F001010091016829
:101DD00041F0020101600068354900F00200009006
:101DE00034484FF4E1350C260160C0E90154C46069
:101DF000C0E904468461C461FEF734FF2D482E49D2
:101E000040300160C0E90154C460C0E90446846107
:101E1000C461FEF727FF2748284980300160C0E9E8
:101E20000154C460C0E904468461C461FEF71AFF2E
:101E3000FFF7F0FAFFF73CF94FF47A742046FEF70B
:101E400049FA1C4A072180321D4800F08DF81948D4
:101E5000803000F06DF82046FEF73CFA1848154A2D
:101E60000721C01F00F080F8124800F061F82046FA
:101E7000FEF730FA41F2883411480E4A05213E3807
:101E800000F072F80B4800F053F82046FEF722FAF3
:101E90000B48084A1F21183000F066F805488030CA
:101EA00000F046F82046FEF715FAE5E73038024024
:101EB0000010014014010020004400400048004090
:101EC0005C000020F0B50B30154D20F00701002418
:101ED000144A0FE003688B420BD38B4205D95E1A7C
:101EE00043184768C3E9006700E04368136002C015
:101EF00004E0021D10680028ECD12046002802D121
:101F0000286808B10020F0BD064A07481060074A5B
:101F1000121A22F00702C0E9002401202860D7E746
:101F2000100100200C010020DC050020D807002053
:101F300030B5ADF5017D05464FF400742B46084AD7
:101F400021466846FFF7FCFD0028F7D082B20A233D
:101F500069460448FFF74CF80DF5017D30BD0000DF
:101F60000D200008540100202DE9F0470646FE2010
:101F7000B1FBF0F00C4607197F1C91463846FFF77D
:101F8000A1FF05460021084604E0042801D0325C88
:101F90005140401CA042F8D3002331710120AC46CF
:101FA000194602461AE000BF16F80380B8F1000F88
:101FB00008D00CF80080521CD2B2401C5B1CFF2AD7
:101FC0000CD106E00CF8012001460122401C5B1CEC
:101FD00004E00CF8012001220146401CA342E3D397
:101FE0006A544FF47A742346012207494846FEF7A3
:101FF000FFFFBAB2234629464846FEF7F9FF2846B6
:10200000BDE8F047FFF7A4BE0000002010B50C4665
:1020100001464FF47A7301222046FEF7E3FE0420C6
:1020200010BD012070470000000000000000010208
:102030000304060708090000000001020304000071
:10204000602000080000002014010000221B00088E
:102050007421000814010020C40A0000321B00088B
:1020600000020405050B123400000000000000000F
:102070000000000000001008180000100010000010
:102080001105140001101208000010243400021081
:10209000112500091014670008101C890010101584
:1020A000150008101383000A101607000110190B01
:1020B00000101017690002100912303900021009CF
:1020C000123030112233445566778800000000003A
:1020D00000000000001A102F0630393030FD007D5E
:1020E000037D037D03000000000A2E003448656C68
:1020F0006C6F210010102060FD007D037D037D03C7
:10210000000000000A2E00340010102060FD007D49
:10211000037D037D03000000000A2E00354D794E3B
:102120006574776F726BFD12340038000000000098
:10213000112233445566778899AABBCCDDEEFF4D5A
:102140007950617373776F7264383430344432304D
:1021500030303030303035464300000001000000A0
:1021600010000000000000000024F4000000000047
:04217000000000006B
:040000050800018965
:00000001FF
