:020000040800F2
:10000000B8060020A1010008990D0008950D000810
:10001000970D0008AD020008D50F00080000000091
:100020000000000000000000000000009D0D00081E
:10003000AF020008000000009B0D00089F0D0008A3
:10004000BB010008BB010008BB010008BB010008A0
:10005000BB010008BB010008BB010008BB01000890
:10006000BB010008BB010008BB010008BB01000880
:10007000BB010008BB010008BB010008BB01000870
:10008000BB010008BB010008BB010008BB01000860
:10009000BB010008BB010008BB010008BB01000850
:1000A000BB010008BB010008BB010008BB01000840
:1000B000BB010008BB010008BB010008BB01000830
:1000C000BB010008BB010008BB010008BB01000820
:1000D000BB010008BB010008BB010008BB01000810
:1000E000BB010008BB010008BB010008BB01000800
:1000F000BB010008BB010008BB010008BB010008F0
:10010000BB010008BB010008BB010008BB010008DF
:10011000BB010008BB010008BB010008BB010008CF
:10012000BB010008BB010008BB010008BB010008BF
:10013000BB010008BB010008BB010008BB010008AF
:10014000BB010008BB010008BB010008BB0100089F
:10015000BB010008BB010008BB010008BB0100088F
:10016000BB010008BB010008BB010008BB0100087F
:10017000BB010008BB010008BB0100080000000033
:10018000BB010008BB010008DFF810D000F07CF8CC
:100190000048004765100008AFF30080B806002053
:1001A0000648804706480047FEE7FEE7FEE7FEE711
:1001B000FEE7FEE7FEE7FEE7FEE7FEE72D0E00089E
:1001C000890100082DE9F05F0546002092469B4614
:1001D00088460646814640241BE02846414647465D
:1001E000224600F041F853465A46C01A914110D3B6
:1001F00011461846224600F028F82D1A67EB010830
:100200004F4622460120002100F01FF817EB00099D
:100210004E41201EA4F10104DFDC484631462A4647
:100220004346BDE8F09FD2B201E000F8012B491E21
:10023000FBD270470022F6E710B513460A46044683
:100240001946FFF7F0FF204610BD202A04DB203AB4
:1002500000FA02F1002070479140C2F1200320FA19
:1002600003F3194390407047202A04DB203A21FA17
:1002700002F00021704721FA02F3D040C2F12002BF
:100280009140084319467047064C074D06E0E06868
:1002900040F0010394E8070098471034AC42F6D3CD
:1002A000FFF776FFDC120008FC120008FEE770473B
:1002B00070B5044600F0EAF80546601C02D0044818
:1002C0000078044400F0E2F8401BA042FAD370BD6D
:1002D0001C0000202DE9F84F00224FF001080325F3
:1002E0004FF00F0E0B6808FA02F42340A3426ED1C0
:1002F0004E68012E05D0022E03D0112E01D0122EF1
:1003000012D186684FEA420C05FA0CF7BE43CF685B
:1003100007FA0CF7374387604668A6430C79C4F3A5
:100320000014944034434460C668570005FA07FC43
:100330008C6826EA0C06BC403443C4604C68022C2E
:1003400001D0122C13D1D40800EB8404A346D4F8B6
:10035000209054074FEAD46A0EFA0AF629EA0609F1
:100360000E6906FA0AF646EA0906CBF82060066826
:100370000C7926EA0C0604F00304BC403443046004
:100380004C68E40065D5364C266846F48046266005
:10039000246822F0030604F480440094314C344471
:1003A000A446D4F808489607370F0EFA07F6B44368
:1003B0002D4EB04201D1002624E02C4EB04201D196
:1003C00001261FE02A4EB04202D102261AE040E088
:1003D000284EB04201D1032614E0274EB04201D18D
:1003E00004260FE0254EB04201D105260AE0244E36
:1003F000B04201D1062605E0224EB04201D10726C7
:1004000000E00826BE402643CCF808681E4E34683B
:100410004F689C43FF0300D51C4334601A4C241DD5
:1004200026684F689E43BF0300D51E432660164EC4
:10043000083634684F689C43FF0200D51C43346083
:10044000114E0C3634684F689C43BF0200D51C43E4
:100450003460521C102AFFF445AFBDE8F88F00004D
:1004600044380240003001400000024000040240D5
:1004700000080240000C024000100240001402403C
:1004800000180240001C0240003C01400148806806
:10049000704700001C000020024881680278114467
:1004A000816070471C0000200B4810B5016841F4C2
:1004B00000710160016841F480610160016841F4EC
:1004C00080710160032000F063F8002000F006F85E
:1004D00000F024F8002010BD003C024070B50D4D26
:1004E00004464FF47A712878B1FBF0F00A490968A4
:1004F000B1FBF0F000F0F6FA48B9102C07D2002258
:100500002146501E00F024F800206C6070BD0120D0
:1005100070BD00001C000020280000200B4882B0A5
:10052000016841F480410160006800F4804000905F
:100530000648001F016841F080510160006800F02A
:1005400080500090072002B000F022B844380240EA
:10055000F0B40E4B1B680C46C3F30223C3F107052E
:10056000042D00D90425191D072901D2002300E01C
:10057000DB1E012606FA05F1491E214099409E40E6
:10058000761E16403143F0BC00F025BD0CED00E0B6
:10059000064900F0070208684FF6FF03184040EADA
:1005A0000220034A10430860704700000CED00E091
:1005B0000000FA052DE9F0470E46050065D0DFF88A
:1005C0001481D8F80000F7B200F00F00B04207D253
:1005D00088F80070D8F8000000F00F00B04254D145
:1005E00028683D4C810712D5400703D5206840F4A8
:1005F000E05020602878000703D5206840F4604070
:1006000020602068A96820F0F00008432060287866
:10061000C0072DD0304968680839012812D0022857
:1006200013D0032811D00968890700292DDA216821
:1006300021F0030101432160FFF728FF814641F2C9
:10064000883A0EE009688903EFE709688901ECE759
:10065000FFF71CFFA0EB0901514502D90320BDE8BB
:10066000F0872068696800F00C00B0EB810FEFD1D3
:10067000D8F80010404601F00F01B14207D90770C9
:10068000006800F00F00B04201D00120E7E72878B1
:10069000400705D52068E96820F4E0500843206051
:1006A0002878000706D52068296920F4604040EAD0
:1006B000C100206000F038F82168084AC1F3031136
:1006C000515CC8400649086006480068FFF706FF0D
:1006D0000020C4E7003C024008380240C412000871
:1006E000280000202000002004480549006809680F
:1006F000044AC1F38221515CC840704728000020A1
:1007000008380240D4120008044805490068096806
:10071000044AC1F34231515CC840704728000020B0
:1007200008380240D4120008154810B5006810F0CF
:100730000C02144813D04110042A0FD0082A0ED1FD
:100740000F4C241F2268236802F03F025B0207D58A
:100750002068C0F38810A0FB010106E0084610BD28
:100760002168C1F38811A1FB00010023FFF72AFDD6
:100770002168C1F30141491C4900B0FBF1F010BDF3
:10078000083802400024F4002DE9F84F04006ED030
:100790002078DFF83C93C007A9F104054AD009F19D
:1007A00004000168C1F38101012908D00068C0F389
:1007B000810002280AD1D9F80000400206D5286835
:1007C000800337D560680028E1D033E06068B0F579
:1007D000803F10D0B0F5A02F286810D020F48030D2
:1007E0002860286820F4802028606068A8B1FFF79E
:1007F0004DFE06460DE0286840F48030F4E740F4F2
:1008000080202860F7E700BFFFF740FE801B6428C8
:1008100073D828688003F7D50CE0FFF737FE06464B
:1008200005E000BFFFF732FE801B6428F0D828687F
:100830008003F7D42078DFF89C8280074FF0000A0D
:100840003ED5A348001D016811F00C0F08D00068C8
:10085000C0F3810002280BD1D9F80000400207D470
:100860002868800716D5E068012800D112E02BE146
:10087000E068B8B10120C8F80000FFF707FE06469F
:1008800005E000BFFFF702FE801B0228C0D82868E1
:100890008007F7D52868216920F0F80040EAC100F8
:1008A00028600DE0C8F800A0FFF7F0FD064604E060
:1008B000FFF7ECFD801B02281FD828688007F7D4BB
:1008C0002078000722D5824E83486169703671B165
:1008D00001210160FFF7DAFD074604E0FFF7D6FDCE
:1008E000C01B022809D830688007F7D50EE0C0F891
:1008F00000A0FFF7CBFD074605E082E0FFF7C6FD4D
:10090000C01B02287DD830688007F7D420784007C4
:1009100068D5DFF8BCB100270BF13C0BDBF8000019
:10092000C0000BD4DBF8001041F08051CBF8001070
:10093000DBF80000012700F080500090674E30681F
:10094000C00510D4306840F480703060FFF79EFD21
:10095000009005E0FFF79AFD0099401A022850D850
:100960003068C005F6D55A4EA0686C3601280FD005
:100970000528306810D020F001003060306820F089
:1009800004003060A068B8B1FFF780FD00900FE070
:10099000306840F00100F4E740F004003060F7E711
:1009A000FFF774FD0099411A41F28830814266D800
:1009B00030688007F4D50EE0FFF768FD009007E08F
:1009C000FFF764FD0099411A41F28830814256D800
:1009D00030688007F4D42FB1DBF8001021F080518B
:1009E000CBF80010A069C8B33949091D0968C1F3E3
:1009F000810102294AD00228504607D0C8F8600079
:100A000000E03CE0FFF742FD04463BE04746C8F803
:100A10006000FFF73BFD064605E000BFFFF736FD2F
:100A2000801B02282BD828688001F7D4D4E907015D
:100A30000843A16A2A4A490802EB0141626A41EA75
:100A40008211084394F82C1040EA0161C9F80010A3
:100A500001203866FFF71AFD044606E036E000BFC5
:100A6000FFF714FD001B022809D828688001F7D57C
:100A70002CE000BFFFF70AFD001B022802D903206B
:100A8000BDE8F88F28688001F4D41FE00128F7D072
:100A9000D9F80000E26900F48001914214D1226A81
:100AA00000F03F0191420FD147F6C071626A0140E8
:100AB000914209D1A26A00F44031914204D1E16A25
:100AC00000F07060884201D00120D9E70020D7E70C
:100AD0000438024000004742800E47420070004048
:100AE0000000FFFF10B5401EB0F1807F01D3012050
:100AF00010BD4FF0E02460610F21601700F06BFA29
:100B00000020A06107202061002010BD70B5040006
:100B100004D094F83900002510B106E0012070BD22
:100B200084F83850204600F023F8242084F8390057
:100B30002068C16821F40051C160204600F084F9AA
:100B40002068016921F4904101612068416921F028
:100B50002A0141612068C16841F40051C160E56328
:100B6000202084F8390084F83A00002070BD00008D
:100B700070B586B0044614216846FFF75BFB224E31
:100B8000226800212148022303240725B2421AD1FA
:100B90001E4A1432166846F010061660126802F0FB
:100BA00010020592026842F002020260006802AA86
:100BB00000F00200059082E83200C020CDE9000379
:100BC000694613481CE0134EB2421BD10F4A103243
:100BD000166846F400361660126802F40032059278
:100BE000026842F001020260006802AA00F00100FF
:100BF000059082E832000C20CDE9000369460648E2
:100C0000FFF768FB06B070BD0010014030380240AD
:100C10000004024000440040000002402DE9F84377
:100C2000044690F83A00994616460D46202852D1BF
:100C3000BDB1B6B194F8380001284CD0012084F839
:100C400038000027E763222084F83A002C34FFF7AD
:100C50001DFC24F8026B804624F80A6B04F83879EE
:100C600031E00120BDE8F883E08D401EE085A068FA
:100C70004346B0F5805F4FF000024FF02001204660
:100C8000CDF8009004D000F073F998B10320E9E7A3
:100C900000F06EF90028F9D120690028206840682A
:100CA00003D0C1B225F8011B0DE0C0F3080125F8FF
:100CB000021B08E0206900282068406801D000F08D
:100CC0007F0005F8010BE08D0028CDD1202084F8AD
:100CD0003A000020C6E70220C4E72DE9F8430446A5
:100CE00090F839001F4616460D46202850D1B5B160
:100CF000AEB194F8380001284AD0012084F83800B9
:100D00004FF00008C4F83C80212084F83900FFF738
:100D1000BDFBA6848146E68484F8388026E0012065
:100D2000BDE8F883E08C401EE084A0684B46B0F537
:100D3000805F4FF000024FF080012046009703D003
:100D400000F016F9E8B90DE000F012F9C8B92888EA
:100D50002168C0F308004860206908B16D1C05E0F7
:100D6000AD1C03E0216815F8010B4860E08C0028F9
:100D7000D8D14B46002240212046009700F0F8F8D9
:100D800008B10320CCE7202084F839000020C7E711
:100D90000220C5E7FEE7FEE7704770477047FFF7A0
:100DA0007BBB000030B593B030216846FFF742FAB4
:100DB00014210CA8FFF73EFA1A480025016841F0FB
:100DC00080510160006800F0805011901648016861
:100DD00041F4804101600068022400F480401190D9
:100DE00001200090000401908001CDE90640082018
:100DF00008904FF4A870CDE9090407200B906846CD
:100E0000FFF7C2FC0CA90F2081E831004FF4C0505D
:100E10000F904FF4A050109005210CA8FFF7CAFBCB
:100E200013B030BD403802400070004005480168F2
:100E300041F47001016003494FF00060803908609F
:100E40007047000088ED00E02DE9F041044600689D
:100E50000169E26821F44051114301612169A068F0
:100E6000E26908436169114308432168CA6849F28D
:100E70000C639A430243CA6020684169A26921F465
:100E8000407111434161E069192764253226B0F5AC
:100E9000004F354A354920684FF0000806D0884297
:100EA00001D0904236D1FFF72FFC35E0884201D0C7
:100EB000904202D1FFF728FC01E0FFF715FC6168C2
:100EC0004A18A0FB070148EB0803FFF77BF901462E
:100ED000B0FBF5F00201B1FBF5F06FF018035843D9
:100EE00001EB800006EBC000B0FBF5F000F0F8006D
:100EF00002EB4002B1FBF5F0584301EB800006EB3A
:100F0000C000B0FBF5F000F00700216810448860D5
:100F1000BDE8F081FFF7E8FB61688B0F8A00A0FB5A
:100F20000701FFF74FF90146B0FBF5F06FF018022B
:100F3000504301EB800006EB0010B0FBF5F000F031
:100F4000F002B1FBF5F002EB0012B1FBF5F06FF02F
:100F50001803584301EB800006EB0010B0FBF5F0DE
:100F600000F00F00D1E70000001401400010014024
:100F70002DE9F041984617460E460446069D1DE0B1
:100F8000681C1BD02DB1FFF781FAA0EB0800A84226
:100F900014D92068C16821F4D071C160206841690A
:100FA00021F001014161202084F8390084F83A00E1
:100FB000002084F838000320BDE8F0812068006834
:100FC00036EA000004D00020B842D9D00020F3E770
:100FD0000120F9E7FEE70907090E002804DB00F10C
:100FE000E02080F80014704700F00F0000F1E020CE
:100FF00080F8141D704702E008C8121F08C1002ABB
:10100000FAD170477047002001E001C1121F002A89
:10101000FBD1704710B5002821D0114B0022001FD2
:10102000196803E0814203D80A4649680029F9D1CA
:1010300052B11368841A9C4204D1006818441060AD
:10104000104602E0506000E0186039B102680B1AE7
:10105000934203D10B681A4402604968416010BD95
:101060002C00002008B5FFF71FFAFFF79BFE2D4864
:101070000024016841F080010160016801F08001F5
:101080000091016841F001010160016801F0010176
:101090000091016841F0020101600068224900F0FE
:1010A0000200009021484FF4E1350C260160C0E9B0
:1010B0000154C460C0E904468461C461FFF726FDA1
:1010C0001A481B4940300160C0E90154C460C0E9BE
:1010D00004468461C461FFF719FD4FF47A74204619
:1010E000FFF7E6F80621134800F0AEF86420FFF79A
:1010F000DFF810480621801D00F0A6F815210D48E4
:1011000000F0A2F80B4805210A3800F09DF80948C4
:101110000521401F00F098F800F044F82046FFF742
:10112000C7F8F4E7303802400010014034000020D6
:10113000004400400E000020F0B50B30154D20F0AB
:1011400007010024144A0FE003688B420BD38B4243
:1011500005D95E1A43184768C3E9006700E0436891
:10116000136002C004E0021D10680028ECD1204684
:10117000002802D1286808B10020F0BD064A0748BF
:101180001060074A121A22F00702C0E90024012069
:101190002860D7E7300000202C000020BC00002091
:1011A000B80200202DE9F05F254C2068FFF7C4FF4E
:1011B00081462068FFF7C0FF05464FF47A7B4FF069
:1011C000000A20885B4682B249461E48FFF726FD8A
:1011D00023684F46AC46002BF3D000210A461AE0A4
:1011E0007E5C8819984201D9012EEAD10120491C60
:1011F00008E000BF17F80180401C0CF80280491C71
:10120000C0B2521CB042F5D3FF2E04D0994202D096
:101210000CF802A0521C9942E2D3002AD1D02088B7
:101220005B4682B2074839464030FFF756FD2846F4
:10123000FFF7F0FE4846BDE8F05FFFF7EBBE0000A9
:101240000000002034000020F8B5064600208DF88C
:101250000000FE20B1FBF0F00D462844401CFFF7D3
:101260006BFF0023044601221846114613E0F75C89
:101270003FB1A754491CC9B2521C5B1CFF290AD1BB
:1012800005E0215410460121521C5B1C03E021544F
:1012900001211046521CAB42E9D321544FF47A7518
:1012A00092B22B4621460648FFF717FD2B46012236
:1012B00069460348FFF711FD2046FFF7ABFEF8BD76
:1012C00034000020000000000000000001020304C0
:1012D000060708090000000001020304FC120008D0
:1012E0000000002034000000F60F00083013000852
:1012F00034000020840600000610000800020000F0
:101300000000100818000011190800011012080B45
:10131000000110190B030000010000001000000084
:10132000000000000024F4000000000000000000A5
:040000050800018965
:00000001FF
