:020000040800F2
:10000000700E0020A1010008F70C0008F30C000896
:10001000F50C00080D030008310F00080000000077
:10002000000000000000000000000000FB0C0008C1
:100030000F03000800000000F90C0008FD0C000888
:10004000BB010008BB010008BB010008BB010008A0
:10005000BB010008BB010008BB010008BB01000890
:10006000BB010008BB010008BB010008BB01000880
:10007000BB010008BB010008BB010008BB01000870
:10008000BB010008BB010008BB010008BB01000860
:10009000BB010008BB010008BB010008BB01000850
:1000A000BB010008BB010008BB010008BB01000840
:1000B000BB010008BB010008BB010008BB01000830
:1000C000BB010008BB010008BB010008BB01000820
:1000D000BB010008BB010008BB010008BB01000810
:1000E000BB010008BB010008BB010008BB01000800
:1000F000BB010008BB010008BB010008BB010008F0
:10010000BB010008BB010008BB010008BB010008DF
:10011000BB010008BB010008BB010008BB010008CF
:10012000BB010008BB010008BB010008BB010008BF
:10013000BB010008BB010008BB010008BB010008AF
:10014000BB010008BB010008BB010008BB0100089F
:10015000BB010008BB010008BB010008BB0100088F
:10016000BB010008BB010008BB010008BB0100087F
:10017000BB010008BB010008BB0100080000000033
:10018000BB010008BB010008DFF810D000F0ACF89C
:100190000048004715150008AFF30080700E0020DE
:1001A0000648804706480047FEE7FEE7FEE7FEE711
:1001B000FEE7FEE7FEE7FEE7FEE7FEE7890D000843
:1001C000890100082DE9F05F0546002092469B4614
:1001D00088460646814640241BE02846414647465D
:1001E000224600F070F853465A46C01A914110D387
:1001F00011461846224600F057F82D1A67EB010801
:100200004F4622460120002100F04EF817EB00096E
:100210004E41201EA4F10104DFDC484631462A4647
:100220004346BDE8F09F40EA01039B0703D009E085
:1002300008C9121F08C0042AFAD203E011F8013BD2
:1002400000F8013B521EF9D27047D2B201E000F82B
:10025000012B491EFBD270470022F6E710B513466A
:100260000A4604461946FFF7F0FF204610BD421C1F
:1002700010F8011B0029FBD1801A704730B50446E5
:100280000020034600E05B1C934203D2E05CCD5C9F
:10029000401BF8D030BD034611F8012B00F8012BAC
:1002A000002AF9D118467047202A04DB203A00FAC8
:1002B00002F1002070479140C2F1200320FA03F3BD
:1002C000194390407047202A04DB203A21FA02F0BB
:1002D0000021704721FA02F3D040C2F12002914080
:1002E0000843194670470000064C074D06E0E068D9
:1002F00040F0010394E8070098471034AC42F6D36D
:10030000FFF746FFBC160008DC160008FEE7704742
:1003100070B5044600F0EAF80546601C02D00448B7
:100320000078044400F0E2F8401BA042FAD370BD0C
:10033000000000202DE9F84F00224FF001080325AE
:100340004FF00F0E0B6808FA02F42340A3426ED15F
:100350004E68012E05D0022E03D0112E01D0122E90
:1003600012D186684FEA420C05FA0CF7BE43CF68FB
:1003700007FA0CF7374387604668A6430C79C4F345
:100380000014944034434460C668570005FA07FCE3
:100390008C6826EA0C06BC403443C4604C68022CCE
:1003A00001D0122C13D1D40800EB8404A346D4F856
:1003B000209054074FEAD46A0EFA0AF629EA060991
:1003C0000E6906FA0AF646EA0906CBF820600668C6
:1003D0000C7926EA0C0604F00304BC4034430460A4
:1003E0004C68E40065D5364C266846F480462660A5
:1003F000246822F0030604F480440094314C344411
:10040000A446D4F808489607370F0EFA07F6B44307
:100410002D4EB04201D1002624E02C4EB04201D135
:1004200001261FE02A4EB04202D102261AE040E027
:10043000284EB04201D1032614E0274EB04201D12C
:1004400004260FE0254EB04201D105260AE0244ED5
:10045000B04201D1062605E0224EB04201D1072666
:1004600000E00826BE402643CCF808681E4E3468DB
:100470004F689C43FF0300D51C4334601A4C241D75
:1004800026684F689E43BF0300D51E432660164E64
:10049000083634684F689C43FF0200D51C43346023
:1004A000114E0C3634684F689C43BF0200D51C4384
:1004B0003460521C102AFFF445AFBDE8F88F0000ED
:1004C0004438024000300140000002400004024075
:1004D00000080240000C02400010024000140240DC
:1004E00000180240001C0240003C014001488068A6
:1004F0007047000000000020024881680278114423
:1005000081607047000000200B4810B5016841F47D
:1005100000710160016841F480610160016841F48B
:1005200080710160032000F063F8002000F006F8FD
:1005300000F024F8002010BD003C024070B50D4DC5
:1005400004464FF47A712878B1FBF0F00A49096843
:10055000B1FBF0F000F0F6FA48B9102C07D20022F7
:100560002146501E00F024F800206C6070BD012070
:1005700070BD0000000000200C0000200B4882B07D
:10058000016841F480410160006800F480400090FF
:100590000648001F016841F080510160006800F0CA
:1005A00080500090072002B000F022B8443802408A
:1005B000F0B40E4B1B680C46C3F30223C3F10705CE
:1005C000042D00D90425191D072901D2002300E0BC
:1005D000DB1E012606FA05F1491E214099409E4086
:1005E000761E16403143F0BC00F0ACBC0CED00E0D0
:1005F000064900F0070208684FF6FF03184040EA7A
:100600000220034A10430860704700000CED00E030
:100610000000FA052DE9F0470E46050065D0DFF829
:100620001481D8F80000F7B200F00F00B04207D2F2
:1006300088F80070D8F8000000F00F00B04254D1E4
:1006400028683D4C810712D5400703D5206840F447
:10065000E05020602878000703D5206840F460400F
:1006600020602068A96820F0F00008432060287806
:10067000C0072DD0304968680839012812D00228F7
:1006800013D0032811D00968890700292DDA2168C1
:1006900021F0030101432160FFF728FF814641F269
:1006A000883A0EE009688903EFE709688901ECE7F9
:1006B000FFF71CFFA0EB0901514502D90320BDE85B
:1006C000F0872068696800F00C00B0EB810FEFD173
:1006D000D8F80010404601F00F01B14207D9077069
:1006E000006800F00F00B04201D00120E7E7287851
:1006F000400705D52068E96820F4E05008432060F1
:100700002878000706D52068296920F4604040EA6F
:10071000C100206000F038F82168084AC1F30311D5
:10072000515CC8400649086006480068FFF706FFAC
:100730000020C4E7003C024008380240A21600082E
:100740000C000020040000200448054900680968E6
:10075000044AC1F38221515CC84070470C0000205C
:1007600008380240B21600080448054900680968C4
:10077000044AC1F34231515CC84070470C0000206C
:1007800008380240B2160008154810B5006810F08D
:100790000C02144813D04110042A0FD0082A0ED19D
:1007A0000F4C241F2268236802F03F025B0207D52A
:1007B0002068C0F38810A0FB010106E0084610BDC8
:1007C0002168C1F38811A1FB00010023FFF7FAFCA7
:1007D0002168C1F30141491C4900B0FBF1F010BD93
:1007E000083802400024F4002DE9F84F04006ED0D0
:1007F0002078DFF83C93C007A9F104054AD009F13D
:1008000004000168C1F38101012908D00068C0F328
:10081000810002280AD1D9F80000400206D52868D4
:10082000800337D560680028E1D033E06068B0F518
:10083000803F10D0B0F5A02F286810D020F4803071
:100840002860286820F4802028606068A8B1FFF73D
:100850004DFE06460DE0286840F48030F4E740F491
:1008600080202860F7E700BFFFF740FE801B642868
:1008700073D828688003F7D50CE0FFF737FE0646EB
:1008800005E000BFFFF732FE801B6428F0D828681F
:100890008003F7D42078DFF89C8280074FF0000AAD
:1008A0003ED5A348001D016811F00C0F08D0006868
:1008B000C0F3810002280BD1D9F80000400207D410
:1008C0002868800716D5E068012800D112E02BE1E6
:1008D000E068B8B10120C8F80000FFF707FE06463F
:1008E00005E000BFFFF702FE801B0228C0D8286881
:1008F0008007F7D52868216920F0F80040EAC10098
:1009000028600DE0C8F800A0FFF7F0FD064604E0FF
:10091000FFF7ECFD801B02281FD828688007F7D45A
:100920002078000722D5824E83486169703671B104
:1009300001210160FFF7DAFD074604E0FFF7D6FD6D
:10094000C01B022809D830688007F7D50EE0C0F830
:1009500000A0FFF7CBFD074605E082E0FFF7C6FDEC
:10096000C01B02287DD830688007F7D42078400764
:1009700068D5DFF8BCB100270BF13C0BDBF80000B9
:10098000C0000BD4DBF8001041F08051CBF8001010
:10099000DBF80000012700F080500090674E3068BF
:1009A000C00510D4306840F480703060FFF79EFDC1
:1009B000009005E0FFF79AFD0099401A022850D8F0
:1009C0003068C005F6D55A4EA0686C3601280FD0A5
:1009D0000528306810D020F001003060306820F029
:1009E00004003060A068B8B1FFF780FD00900FE010
:1009F000306840F00100F4E740F004003060F7E7B1
:100A0000FFF774FD0099411A41F28830814266D89F
:100A100030688007F4D50EE0FFF768FD009007E02E
:100A2000FFF764FD0099411A41F28830814256D89F
:100A300030688007F4D42FB1DBF8001021F080512A
:100A4000CBF80010A069C8B33949091D0968C1F382
:100A5000810102294AD00228504607D0C8F8600018
:100A600000E03CE0FFF742FD04463BE04746C8F8A3
:100A70006000FFF73BFD064605E000BFFFF736FDCF
:100A8000801B02282BD828688001F7D4D4E90701FD
:100A90000843A16A2A4A490802EB0141626A41EA15
:100AA0008211084394F82C1040EA0161C9F8001043
:100AB00001203866FFF71AFD044606E036E000BF65
:100AC000FFF714FD001B022809D828688001F7D51C
:100AD0002CE000BFFFF70AFD001B022802D903200B
:100AE000BDE8F88F28688001F4D41FE00128F7D012
:100AF000D9F80000E26900F48001914214D1226A21
:100B000000F03F0191420FD147F6C071626A014087
:100B1000914209D1A26A00F44031914204D1E16AC4
:100B200000F07060884201D00120D9E70020D7E7AB
:100B30000438024000004742800E474200700040E7
:100B40000000FFFF10B5401EB0F1807F01D30120EF
:100B500010BD4FF0E02460610F21601700F0F2F942
:100B60000020A06107202061002010BD70B50400A6
:100B700004D094F83900002510B106E0012070BDC2
:100B800084F83850204600F023F8242084F83900F7
:100B90002068C16821F40051C160204600F002F9CC
:100BA0002068016921F4904101612068416921F0C8
:100BB0002A0141612068C16841F40051C160E563C8
:100BC000202084F8390084F83A00002070BD00002D
:100BD00010B586B0044614216846FFF73DFB134963
:100BE0002068884220D112480021026842F0100299
:100BF0000260006800F0100005900D48143802688B
:100C000042F002020260006800F002000590C0207D
:100C100000900220CDE901010320039007200490F9
:100C200069460448FFF786FB06B010BD001001407E
:100C300044380240000402402DE9F843044690F88D
:100C400039001F4616460D46202850D1B5B1AEB129
:100C500094F8380001284AD0012084F838004FF079
:100C60000008C4F83C80212084F83900FFF73EFCDE
:100C7000A6848146E68484F8388026E00120BDE819
:100C8000F883E08C401EE084A0684B46B0F5805F9E
:100C90004FF000024FF080012046009703D000F093
:100CA00015F9E8B90DE000F011F9C8B928882168F4
:100CB000C0F308004860206908B16D1C05E0AD1C58
:100CC00003E0216815F8010B4860E08C0028D8D1BA
:100CD0004B46002240212046009700F0F7F808B16B
:100CE0000320CCE7202084F839000020C7E7022049
:100CF000C5E7FEE7FEE7704770477047FFF7FCBBAC
:100D000030B593B030216846FFF7A6FA14210CA83D
:100D1000FFF7A2FA1A480025016841F080510160EE
:100D2000006800F0805011901648016841F480413D
:100D300001600068022400F48040119001200090BE
:100D4000000401908001CDE90640082008904FF48E
:100D5000A870CDE9090407200B906846FFF744FD11
:100D60000CA90F2081E831004FF4C0500F904FF4D0
:100D7000A050109005210CA8FFF74CFC13B030BD1B
:100D800040380240007000400548016841F470019D
:100D9000016003494FF0006080390860704700002F
:100DA00088ED00E02DE9F041044600680169E26841
:100DB00021F44051114301612169A068E2690843AF
:100DC0006169114308432168CA6849F20C639A4378
:100DD0000243CA6020684169A26921F4407111434D
:100DE0004161E069192764253226B0F5004F354A84
:100DF000354920684FF0000806D0884201D0904263
:100E000036D1FFF7B1FC35E0884201D0904202D1E3
:100E1000FFF7AAFC01E0FFF797FC61684A18A0FB06
:100E2000070148EB0803FFF7CDF90146B0FBF5F0E9
:100E30000201B1FBF5F06FF01803584301EB80009D
:100E400006EBC000B0FBF5F000F0F80002EB40024A
:100E5000B1FBF5F0584301EB800006EBC000B0FB9E
:100E6000F5F000F00700216810448860BDE8F081CB
:100E7000FFF76AFC61688B0F8A00A0FB0701FFF790
:100E8000A1F90146B0FBF5F06FF01802504301EBF9
:100E9000800006EB0010B0FBF5F000F0F002B1FBB3
:100EA000F5F002EB0012B1FBF5F06FF018035843B8
:100EB00001EB800006EB0010B0FBF5F000F00F0036
:100EC000D1E7000000140140001001402DE9F0417D
:100ED000984617460E460446069D1DE0681C1BD02A
:100EE0002DB1FFF703FBA0EB0800A84214D920683E
:100EF000C16821F4D071C1602068416921F001010D
:100F00004161202084F8390084F83A00002084F8F8
:100F100038000320BDE8F0812068006836EA000050
:100F200004D00020B842D9D00020F3E70120F9E72F
:100F3000FEE70000014A024900F023B887120008CA
:100F4000100000200907090E002804DB00F1E02052
:100F500080F80014704700F00F0000F1E02080F8E6
:100F6000141D704702E008C8121F08C1002AFAD1F8
:100F700070477047002001E001C1121F002AFBD119
:100F800070472DE9F04116460F460446002503E060
:100F90003946B047641C6D1C20780028F8D12846DB
:100FA000BDE8F0812DE9F041174602460E4E581D6E
:100FB00085B23380B270F170002434711A4639461C
:100FC000701DFFF730F9002003E0315C4C40401CFD
:100FD00080B2A842F9D334712946BDE8F041034AF2
:100FE000014800F005B80000140000208D1600082C
:100FF0002DE9F74F07468046002092B0824605460D
:101000000646049093460124242106A8FFF724F9FC
:101010000CA88146C0E000BF98F80020EAB1002D7E
:1010200075D0032D7FD2012C5FD00470BDF818104D
:10103000491CADF818109DF83A1001EB09028242E4
:1010400009D106AA02EB4101A1F804A09DF83A00DB
:10105000401C8DF83A00049854E06D1CEDB2022D4E
:1010600002D00F2D24D031E0012C2FD004F1DF016C
:10107000FE2902D88CB2002500E001250470BDF8DD
:101080001810491CADF818109DF83A1001EB090230
:10109000824209D106A800EB4100A0F804A09DF807
:1010A0003A00401C8DF83A004046BDF81AA00BE00B
:1010B0000498DF210170BDF81800401CADF818003D
:1010C000BDF81AA04046002501240BE09DF83A30F7
:1010D00003EB0902824205D1012C03D1012D01D17C
:1010E00040468A46CDF810804FE0022D00D1E02422
:1010F0000470BDF81810491CADF818100499884206
:1011000007D00846BDF81A10491E89B207E012E060
:1011100009E09DF83A1001EB0900BDF81A1000250E
:101120008A4602242CE0D0350570BDF81800401C1A
:10113000ADF818008FE7641CA4B2D02C20D1D021C8
:101140000170BDF818109DF83A20491CADF8181030
:1011500002EB0901814209D106A901EB4201A1F884
:1011600004A09DF83A00401C8DF83A009DF83A1012
:1011700001EB0900BDF81A10491C1FFA81FA01247D
:10118000BDF81810491CADF81810BDF81A1008F178
:101190000108491CADF81A10BDF81A10139A9142B3
:1011A000FFF43AAF6D1CE9B202291FD001D901F159
:1011B000D0040470BDF8181001F10101ADF8181049
:1011C0009DF83A1001EB0902824204D106AA02EB13
:1011D0004101A1F804A00020ADF81A008DF83A00F2
:1011E000BDF81800401CB04235DC48E004F1DF01D6
:1011F000FE2901D88CB2DCE70470BDF81810491C38
:10120000ADF818109DF83A1001EB0902824209D19D
:1012100006AA02EB4101A1F804A09DF83A00401C87
:101220008DF83A0001240498C3E7A6B19DF83A006E
:1012300006A901EB4001BDF81A20898891420CD122
:1012400010F8090048B1594688479DF83A00401CFB
:101250008DF83A000CE0002008E0BDF81A00395C77
:10126000401CADF81A000029F7D0084659468847B7
:10127000BDF81800761C36B2401CB042D5DC15B063
:101280003046BDE8F08F38B504468DF80000694659
:101290000320ABBE204638BD2DE9F04188B017468B
:1012A00088460546202213A16846FEF7BCFF0024AD
:1012B0006E4613E0285D00F01F0080F01001281931
:1012C000715C407800F01F0080F01000305C40EA54
:1012D000011108EB5400A41C0170E4B2B4EB470FF9
:1012E00004D22846FEF7C3FFA042E3D808B0BDE809
:1012F000F081000000010203040506070809000050
:1013000000000000000A0B0C0D0E0F000000000092
:10131000000000001FB500231A461946184600F0C9
:10132000A1F800208DF800008DF8010005230222AD
:101330006946184600F0C8F800231A4624211846CA
:1013400000F090F804208DF8000001236A4619216E
:10135000002000F087F80F208DF8000001236A4676
:101360001221002000F07EF81022694628A0FFF725
:1013700093FF02236A461121002000F073F826A192
:101380006846FEF788FF6846FEF771FF83B26A463B
:101390001421002000F066F808236A461C21002072
:1013A00000F060F8102269461EA0FFF775FF1023B9
:1013B0006A461521002000F055F81022694622A047
:1013C000FFF76AFF08236A461321002000F04AF85D
:1013D00022A16846FEF75FFF6846FEF748FF83B22A
:1013E0006A461621002000F03DF800231A46082125
:1013F000184600F037F805208DF80000142301226C
:10140000694600F061F8002800D0012004B010BD4A
:1014100031323334000000004B4249204E6574776E
:101420006F726B0030303131323233333434353512
:1014300036363737383839396161626263636464DC
:101440006565666600000000303030646238303018
:101450003030303030303030000000004B495241E5
:101460004C4500002DE9F0410F4D1F4690460C46BB
:1014700040F010063B46424621463046FFF792FDBB
:10148000A8788006F6D5E878A042F3D114B1082CEC
:1014900007D102E04FF47A7001E041F28830FEF7A4
:1014A00037FF0120BDE8F0810D05002010B500F0E8
:1014B000B1F8002804D028210248FEF7CDFE012013
:1014C00010BD0000080A00202DE9F04717468846A5
:1014D00081461E4600250E4C13E000231A4649465D
:1014E0000120FFF7BFFF40B12088B84205D33A463C
:1014F000611D4046FEF7C2FE40B101206D1CFEF7A3
:1015000007FFB542E9D30020BDE8F0870120FBE7E3
:101510000D05002086B0FEF7F7FFFFF7F1FB284826
:101520000021026842F080020260026802F080023C
:101530000592026842F0020202600068214A00F04F
:1015400002000590204802604FF4E132C0E9012119
:101550000C22C160C0E904128161C161FFF706FB82
:101560001948FFF7A3FFFFF7D5FE18B117A0FFF743
:10157000E1FC19E022A0FFF7DDFC14216846FEF72C
:101580006BFE00231A461C210120FFF76BFF28B1D8
:101590001F4850F87E1F009140680190FF208DF891
:1015A0000B00FE208DF80C004FF47A7482B2642395
:1015B0000548FFF741FB2046FEF7AAFEF6E70000CC
:1015C0003038024000100140300A00205468652085
:1015D000646576696365206A6F696E656420746806
:1015E0006520546872656164206E6574776F726BF4
:1015F000207375636365737366756C6C792E0A006E
:101600000A73686F77206D6C7072656669780A007E
:101610009404002010B590B004461B4800904FF48D
:10162000E130019000200C210290CDE904010390EB
:1016300006900790262269462046FEF7F4FDBDF885
:101640002600E0840A98A062BDF82C00A085BDF8B1
:101650002E00E085092204F130000CA9FEF7E3FD1D
:101660009DF8390084F839009DF83A0084F83A0072
:101670000F98E0632046FFF779FA10B1002010B010
:1016800010BD0120FBE70000001001400FB4012352
:1016900010B51A4612A902A8FFF7CEFA10BC5DF8E1
:1016A00014FB000000000000000001020304060714
:1016B000080900000000010203040000DC16000815
:1016C0000000002014000000640F0008F01600085D
:1016D000140000205C0E0000740F000801000000E0
:1016E00010000000000000000024F40000000000D2
:040000050800018965
:00000001FF
