:030000000221F4E6
:1021F40043AF01787FE4F6D8FD75A0007581210214
:02220400224175
:101E2E002568687800434F42535F2573583A207CEB
:101E3E000054005200202530327820007C0A003AEF
:101E4E00000A456E7472616E646F20616C20656E5F
:101E5E0076696F0A000A5465726D696E61646F204F
:101E6E00584F520A002563000A000A496D707269C4
:101E7E006D69656E646F20526573756C7461646F05
:101E8E000A004C612074656D7065726174757261C3
:101E9E0020736F6E20252E326620677261646F7319
:101EAE002063656C736975730A0048617920756EDD
:101EBE00612068756D656461642064656C20252EF3
:101ECE0032662025630A0041545330303D303030A5
:101EDE00340D0041545330323D303030330D00411B
:101EEE00545330333D30303030303030303030308D
:101EFE0030303030330D0041542B4A4E0D00496EB8
:101F0E0074726F64756365206C6F73207469656D90
:101F1E00706F7320646520636164612073656E73F6
:101F2E006F723A200A0054203D200A0048203D20BE
:101F3E000A000A436F6E6E65637465640A0D0000D5
:051F4E0000000000008E
:101AD30041011004410133004501110000100818B1
:101AE30045003700001007174500320000100010B2
:101AF300450028000010031345002D0000110514B4
:101B030045036D0000110213450136000011011059
:101B1300440045001210064700020002100912306B
:101B230039470104000210091230304703580002FC
:101B330012091230394501450000110E0F450069A5
:101B43000000110F1E4501400000100F1F45010B3F
:101B53000000120F1D45014A0000111001460361E8
:101B6300000110100A0B4501280000111203450162
:101B73003B000110120845005E00001119085F00C8
:101B830009001A102F0630393030ABCD00000000A9
:101B93000000000000000000123448656C6C6F21E7
:101BA3004501170000112031550372001010206009
:101BB300ABCD000000000000000000000000123464
:101BC3005500BB0010102060ABCD000000000000EA
:101BD300000000000000341247011C000210210025
:101BE30030394503500000102434450387000210A8
:101BF3001125450123000910146745003C00081016
:101C03001C894500B6001010151545008800081002
:101C130013834500E7000A1016074600630001100E
:101C23001909065800EC0013102700ABCD00000083
:101C330000000000000000000034126000014500B5
:101C4300B000011019084100B5014100AD02410087
:101C5300E6034101160441012D0541036A064500CF
:101C63004900001117064500A80010101769450127
:101C73002E0000101B0B4500830000121B094101BD
:101C83004F0B42036712344900D34D794E65747785
:101C93006F726B49009FFD12340038000000005042
:101CA300007000112233445566778899AABBCCDDB6
:101CB300EEFF48009711223344556677884A008D1A
:101CC3004D7950617373776F726450004E383430BE
:101CD3003444323030303030303035464342000007
:021CE3000000FF
:10250400AE03AC05AD07AF04AB07900860EEF07FF7
:042514000102228618
:0924B900900846E0FF7B01E4FD00
:1024C200AE03AC05AD07AF04AB07900860EEF0E4D5
:0424D200FF0222865D
:0E253E007BFF7A1E792E900598EFF0020FAE0B
:0B249500900859EBF0A3EAF0A3E9F077
:1024A00012251890085CEFF09008597401F0A3749D
:0824B00008F0A3745CF07F0149
:0124B8002201
:101CE600900595EBF0A3EAF0A3E9F0A3ECF0A3EDE1
:011CF600F0FD
:101CF700E490059DF0A3F0A3F0A304F0E4A3F0A300
:101D0700F0A304F0900598E0FEA3E0FF90059DE0A6
:101D1700FCA3E0FDC39FEC9E4003021E06900595C1
:101D2700E0FBA3E0FAA3E0F98D828C8312067470BE
:101D3700489005A3E0FF90059AE0FBA3E0FAA3E033
:101D4700F99005A1E0FCA3E0F5828C83EF1206B3BE
:101D57009005A37401F090059FE475F00112074008
:101D6700AFF09005A1F0A3EFF090059EE004F070AE
:101D77009390059DE004F0808B900595E0FBA3E030
:101D8700FAA3E0F990059DE475F00112074085F08C
:101D970082F583120674FF90059AE0FBA3E0FAA38D
:101DA700E0F990059FE475F00112074085F082F590
:101DB70083EF1206B39005A3E004F0E0FF3395E04C
:101DC700FEEFF44E6003021D0B90059AE0FBA3E0C3
:101DD700FAA3E0F99005A1E0FCA3E0F5828C83EF7C
:101DE7001206B39005A37401F090059FE475F00106
:101DF700120740AFF09005A1F0A3EFF0021D0B9082
:101E070005A3E0FF90059AE0FBA3E0FAA3E0F990B1
:101E170005A1E0FCA3E0F5828C83EF1206B39005E1
:061E27009FE0FEA3E0FFB6
:011E2D002292
:1007E8009007C8ECF0A3EDF09007C5EBF0A3EAF092
:0307F800A3E9F082
:1007FB009007F0EBF0A3EAF0A3E9F0A3E4F0A3F089
:10080B00A3F0F9A3C9F0A3F0A3E9F0E4A3F0A3F0DC
:10081B00A3F0A304F0E4A3F0A3F0A3F0FE7F23FC6A
:10082B00FD7B017A0779CD1207BC9007F67401F0B6
:10083B00A37407F0A374E5F09007C8E0FEA3E0FFF4
:10084B00C39007D0E09F9007CFE09E4003020CD2ED
:10085B009007F0E0FBA3E0FAA3E0F912065B60035C
:10086B00020A469007FDE004F0E06402600302090F
:10087B005A9007FBE0FEA3E0FF64014E70030209F0
:10088B005AEF24DFFFE43EFED3EF94FEEE940050CC
:10089B0012E024DFF09007FBE03400F0E49007FD5A
:1008AB00F080069007FD7401F09007FBA3E0FF902A
:1008BB0007F6E0FBA3E0FAA3E0F9EF1206A190071D
:1008CB00CEE004F070069007CDE004F09007EFE067
:1008DB00FF24E5F9E43407FA7B01C003C002C00131
:1008EB009007F6E0FBA3E0FAA3E0F9D082D083D027
:1008FB00E06B7008E965827003EA658370299007E5
:10090B00F9E0FCA3E0FDEF3395E0FEEF25E0FFEE11
:10091B0033FE74D12FF58274073EF583ECF0A3ED13
:10092B00F09007EFE004F09007F0E0F9A3E0FAA3F2
:10093B00E09007F6C9F0A3EAF0A3E9F09007CFE047
:10094B00FFA3E09007F9CFF0A3EFF0A3E48068904A
:10095B0007FDE0FF640F7065EF24D0FFE4339007D1
:10096B00FBF0A3EFF09007F3E0FBA3E0FAA3E0F9B1
:10097B00A3EBF0A3EAF0A3E9F0EF1206A19007CEE8
:10098B00E004F070069007CDE004F09007F0E0F97A
:10099B00A3E0FAA3E09007F6C9F0A3EAF0A3E9F00D
:1009AB009007CFE0FFA3E09007F9CFF0A3EFF0E4BF
:1009BB009007FDF09007FBF0A304F080689007EF21
:1009CB00E024E5F9E43407FA7B01C003C002C0015F
:1009DB009007F6E0FBA3E0FAA3E0F9D082D083D036
:1009EB00E06B7008E965827003EA658370379007E6
:1009FB00FBE07004A3E06401702B9007FDE0B401F1
:100A0B00249007F0E0F9A3E0FAA3E09007F6C9F011
:100A1B00A3EAF0A3E9F09007CFE0FFA3E09007F97A
:100A2B00CFF0A3EFF09007F0E0F9A3E0FAA3E0A377
:100A3B00C9F0A3EAF0A3E9F0020CB79007FDE07050
:100A4B0003020BE2C394034003020B709007FBE01D
:100A5B00FCA3E0FD64014C6003020AF6A3E0B402C0
:100A6B000E9007FCE024DFF09007FBE03400F090E1
:100A7B0007FBA3E0FF9007F6E0FBA3E0FAA3E0F986
:100A8B00EF1206A19007CEE004F070069007CDE0C0
:100A9B0004F09007F3E0FBA3E0FAA3E0F9C003C076
:100AAB0002C001A3E0FBA3E0FAA3E0F9D082D0835C
:100ABB00D0E06B7008E965827003EA65836003021E
:100ACB000B9D9007EFE024E5F9E43407FA9007F665
:100ADB007401F0A3EAF0A3E9F09007CFE0FFA3E0E5
:100AEB009007F9CFF0A3EFF0020BC49007F6E0FBF1
:100AFB00A3E0FAA3E0F9ED1206A19007CEE004F013
:100B0B0070069007CDE004F09007EFE0FF24E5F9C5
:100B1B00E43407FA7B01C003C002C0019007F6E082
:100B2B00FBA3E0FAA3E0F9D082D083D0E06B70088E
:100B3B00E965827003EA658370299007F9E0FCA3ED
:100B4B00E0FDEF3395E0FEEF25E0FFEE33FE74D1D1
:100B5B002FF58274073EF583ECF0A3EDF09007EFD1
:100B6B00E004F0802D9007FDE024D0FFE4339007E4
:100B7B00FBF0A3EFF09007F6E0FBA3E0FAA3E0F99C
:100B8B00EF1206A19007CEE004F070069007CDE0BF
:100B9B0004F09007F3E0F9A3E0FAA3E0A3C9F0A3F4
:100BAB00EAF0A3E9F09007D0E024FFFE9007CFE036
:100BBB0034FF9007F9F0A3CEF0E49007FDF0900717
:100BCB00FBF0A37402F09007CEE004F070069007E0
:100BDB00CDE004F0020CB79007FCE004F070069037
:100BEB0007FBE004F09007FBE07004A3E064D06027
:100BFB0003020CA99007F6E0FBA3E0FAA3E0F9745B
:100C0B00D01206A19007CEE004F070069007CDE05D
:100C1B0004F09007EFE0FF24E5F9E43407FA7B01D9
:100C2B00C003C002C0019007F6E0FBA3E0FAA3E00B
:100C3B00F9D082D083D0E06B7008E965827003EA4B
:100C4B00658370299007F9E0FCA3E0FDEF3395E095
:100C5B00FEEF25E0FFEE33FE74D12FF58274073ED5
:100C6B00F583ECF0A3EDF09007EFE004F09007EFC5
:100C7B00E024E5F9E43407FA9007F67401F0A3EAEF
:100C8B00F0A3E9F09007D0E02401FE9007CFE03409
:100C9B00009007F9F0A3CEF0A3E4F0A304F09007C3
:100CAB00CEE004F070069007CDE004F09007F1E47D
:100CBB0075F00112072A9007D0E004F07006900738
:100CCB00CFE004F00208439007FDE004F0E064027B
:100CDB006003020D9A9007FBE0FEA3E0FF24DFFD0B
:100CEB00E43EFCD3ED94FEEC9400500EE024DFF0D8
:100CFB009007FBE03400F0020DB19007F6E0FBA388
:100D0B00E0FAA3E0F9EF1206A19007CEE004F07031
:100D1B00069007CDE004F09007EFE0FF24E5F9E43F
:100D2B003407FA7B01C003C002C0019007F6E0FB59
:100D3B00A3E0FAA3E0F9D082D083D0E06B7008E98E
:100D4B0065827003EA658370299007F9E0FCA3E0E4
:100D5B00FDEF3395E0FEEF25E0FFEE33FE74D12F70
:100D6B00F58274073EF583ECF0A3EDF09007EFE00E
:100D7B0004F09007F3E0F9A3E0FAA3E0A3C9F0A312
:100D8B00EAF0A3E9F09007FBE4F0A304F0801790DE
:100D9B0007FDE0FFD39402400DEF24D0FEE4339027
:100DAB0007FBF0A3CEF09007FBA3E0FF9007F6E064
:100DBB00FBA3E0FAA3E0F9EF1206A19007CEE00443
:100DCB00F070069007CDE004F09007EFE0FF24E50C
:100DDB00F9E43407FA7B01C003C002C0019007F6A7
:100DEB00E0FBA3E0FAA3E0F9D082D083D0E06B70F4
:100DFB0008E965827003EA658370239007F9E0FCCC
:100E0B00A3E0FDEF3395E0FEEF25E0FFEE33FE743C
:100E1B00D12FF58274073EF583ECF0A3EDF0E4904F
:100E2B0007CFF0A3F09007EFF09007CEE02401FF7F
:100E3B009007CDE03400FE9007FEE0FCA3E0FDC37D
:100E4B009FEE6480F8EC6480984003020F3AED4CFF
:100E5B0070219007CAA3E0FAA3E0F5828A83E4FF2E
:100E6B001207BA9007FFE004F070BE9007FEE00493
:100E7B00F080B69007EFE0FDFF3395E0FEEF25E045
:100E8B00FFEE33FE74D12FF58274073EF583E0FE3F
:100E9B00A3E0FF9007CFE0FAA3E0FBEFB5033EEE34
:100EAB00B5023AEDFF3395E0FE74E52FF58274073A
:100EBB003EF583E0FF60269007CAA3E0FAA3E0F5B6
:100ECB00828A831207BA9007EFE004F09007FFE0E5
:0D0EDB0004F070069007FEE004F0020E34F3
:100EE800E4900800F0900800E06003020E349007D8
:100EF800C5E0FBA3E0FAA3E0F99007CFE475F001A1
:100F080012074085F082F583120674900800F0E01D
:100F1800FF60D29007CAA3E0FAA3E0F5828A8312A1
:100F280007BA9007FFE004F070BB9007FEE004F0FA
:020F380080B384
:080F3A009007FEE0FEA3E0FFBA
:010F4200228C
:1016420090083EEBF0A3EAF0A3E9F0A3ECF0A3EDDF
:01165200F0A7
:10165300E4900846F0FF7B017A087946C0029008BF
:1016630043A3E0FAA3E0F5828A83D0021207BAEF1C
:101673007011900846E0FF7B017D011224C27EFFBA
:091683007FFE22900846E070533E
:10168C009000E2E0FE3395E0900847F0A3CEF09096
:10169C0000DCE4F0A37405F0E4A3F0A3F0A304F0E1
:1016AC00E4A3F0A3F0A3F0FE7F05FCFD90083EE060
:1016BC00FBA3E0FAA3E0F91207BC900847E0700224
:1016CC00A3E0700C900846E0FFE4FB7D0102187C5F
:0316DC0002187F72
:1016DF00900846E070030218529000E0E064016049
:1016EF0003021852C39000DFE094029000DEE06422
:1016FF0080948040739000E1E0706D90083EE0FBB5
:10170F00A3E0FAA3E0F9900001120674FD7C001229
:10171F00065BFEE42DFFEC3EFE9000DDE02FF09027
:10172F0000DCE03EF0900841E0FEA3E0FFD3900024
:10173F00DDE09F9000DCE09E40030217E09000DDAB
:10174F00E024FBFF9000DCE034FFFE7C007D009086
:10175F00083EE0FBA3E0FAA3E02405F9E43AFA120D
:10176F0007BC9000E17401F09000E2E07073900804
:10177F0046E0FFC394D0500CEF149000E2F0A37436
:10178F0001F08055900846E0B4D00A149000E2F0C2
:10179F00E4A3F08044900846E0FF64D16004EFB406
:1017AF00D202802D900846E0FFC394E0500CE490E5
:1017BF0000E2F0EF2430A3F0801F900846E0FFC353
:1017CF0094FF500DEF24209000E2F0A37402F080FC
:1017DF00081224B97EFF7FFF229000E2E07066803E
:1017EF00489000DCE0FEA3E0FFA3E0FCA3E0FDC314
:1017FF009FEE6480F8EC6480985018900846E0FFE4
:10180F0090083EE0FBA3E0FAA3E0F98D828C83EF12
:10181F001206B39000DFE004F070069000DEE004E3
:10182F00F09000E2E014F0701CA3E0FF3395E0FEAF
:10183F009000DFE02FF09000DEE03EF0E49000E358
:10184F00F08002802B9000DCE0FEA3E0FFC390004D
:10185F00DFE09FEE6480F89000DEE0648098401433
:10186F00E49000E0F0900846E0FFE4FBFD1224C294
:0F187F00E4FEFF221224B99000DCE0FEA3E0FF9C
:01188E002237
:1022860090085EEDF0A3EBF06023EF7BFF60067A2B
:102296001E793F80047A1E7941900598EBF0A3EAF7
:1022A600F0A3E9F07BFF7A1E7933120FAE90085F38
:1022B600E06004A3E070117BFF7A1E794390085E0C
:1022C600E0900598F0120FAE900860E07BFF600684
:0E22D6007A1E794A80047A1E794D120FAE22CC
:0B000300900849EBF0A3EAF0A3E9F03D
:10000E00900850EBF0A3EAF0A3E9F090084E74FFCD
:10001E00F5F0120740FED3E5F09400EE9400401682
:10002E00900850E0FBA3E475F001120740A9F0FA26
:10003E00ED1206A180D5900849E0FBA3E0FAA3E0FB
:01004E00F9B8
:01004F00228E
:1013C600900801EBF0A3EAF0A3E9F0A3ECF0A3ED9B
:0113D600F026
:1013D700780B7C087D017BFF7A1F794D7E007F03A8
:1013E700120635900806E0F9A3E0FAA3E090080E8C
:1013F700C9F0A3EAF0A3E9F090080EE0FBA3E0FA36
:10140700A3E0F9900809E0FEA3E0FFE92FF9EA3E1F
:10141700FA900811EBF0A3EAF0A3E9F0900801E0D5
:10142700F9A3E0FAA3E0900814C9F0A3EAF0A3E94E
:10143700F0900814E0FBA3E0FAA3E0F9900804E0B9
:10144700FEA3E0FFE92FF9EA3EFA900817EBF0A3B5
:10145700EAF0A3E9F0900801E0FBA3E0FAA3E0F9C2
:1014670090081AEBF0A3EAF0A3E9F02401F9E43AB3
:10147700FAA3EBF0A3EAF0A3E9F07E01900801A339
:10148700E0FAA3E04A4B600E900806E0FBA3E0FAFF
:10149700A3E04A4B700A90080D7401F0FB02163D59
:1014A700900809E07002A3E070030215C9900817BD
:1014B700E0FBA3E0FAA3E0F9C003C002C001900873
:1014C7001DA3E0FAA3E0F9C3D082D083D0E0E99569
:1014D70082EA9583400A90080DE04402F00215C99C
:1014E70090080EE0FBA3E475F001120740A9F0FA9B
:1014F70012065BFF705990081AE0FBA3E0FAA3E01D
:10150700F9EE1206A190081DE0FAA3E475F00112A6
:101517000740A9F090081ACAF0A3EAF0A3E9F07E01
:1015270001900811E0FBA3E0FAA3E0F9C003C002B1
:10153700C00190080EA3E0FAA3E0F9C3D082D083DC
:10154700D0E0E99582EA958350030214B480739042
:10155700081DE0FBA3E475F001120740A9F0FAEFBC
:101567001206A10E900811E0FBA3E0FAA3E0F9C070
:1015770003C002C00190080EA3E0FAA3E0F9C3D0AC
:1015870082D083D0E0E99582EA95835035EEF46006
:10159700030214B490081AE0FBA3E0FAA3E0F9EE03
:1015A7001206A190081DE0FAA3E475F001120740A6
:1015B700A9F090081ACAF0A3EAF0A3E9F07E0102A5
:1015C70014B4900817E0FBA3E0FAA3E0F9C003C046
:1015D70002C001A3A3E0FAA3E0F9C3D082D083D06D
:1015E700E0E99582EA9583401D90080DE04402F0FA
:1015F700900817A3E0FAA3E0F990081DEBF0A3EA1F
:10160700F0A3E9F0800F90081AE0FBA3E0FAA3E04B
:10161700F9EE1206A1900814A3E0FAA3E0AE02FFC8
:1016270090081DA3E0FAA3E0C39FFFEA9E90080B72
:0A163700F0A3EFF07B017A08790BB5
:011641002286
:10188F00900820EBF0A3EAF0A3E9F0A3ECF0A3EDAE
:01189F00F058
:1018A000782A7C087D017BFF7A1F79507E007F03B8
:1018B000120635900825E0F9A3E0FAA3E090082D80
:1018C000C9F0A3EAF0A3E9F090082DE0FBA3E0FA49
:1018D000A3E0F9900828E0FEA3E0FFE92FF9EA3E33
:1018E000FA900830EBF0A3EAF0A3E9F0900820E0CA
:1018F000F9A3E0FAA3E0900833C9F0A3EAF0A3E962
:10190000F0900833E0FBA3E0FAA3E0F9900823E0AD
:10191000FCA3E0FDE92DF9EA3CFA900836EBF0A3D0
:10192000EAF0A3E9F0900820E0F9A3E0FAA3E09040
:101930000839C9F0A3EAF0A3E9F0900820E0FBA37E
:10194000A3E04A4B600E900825E0FBA3E0FAA3E079
:101950004A4B700A90082C7401F0FB021ACEEF4E2D
:101960007003021AAD90082DE0FBA3E475F001129C
:101970000740A9F0FA12065B90083DF0E0700A906B
:10198000082CE04404F0021AAD90083DE014F090F9
:10199000082DA3E0FAA3E0AE02FFA3A3E0FAA3E0C0
:1019A000C39FFFEA9EAD07FC90083DE0D39DE49CF9
:1019B000400E90082CE04408F0AF0590083DEFF091
:1019C000900839A3E0FAA3E0AE02FF900836A3E046
:1019D000FAA3E0C39FFDEA9EFC90083DE0D39DE49E
:1019E0009C400E90082CE04402F0AF0590083DEFBB
:1019F000F090083DE0FCEC603990082DE0FBA3E49A
:101A000075F001120740A9F0FA12065B90083CF04D
:101A1000E0FE700790082CE04404F0900839E0FBE9
:101A2000A3E475F001120740A9F0FAEE1206A11C1A
:101A300080C4900830E0FBA3E0FAA3E0F9C003C043
:101A400002C00190082DA3E0FAA3E0F9C3D082D030
:101A500083D0E0E99582EA9583505290083DE06496
:101A6000FE7003021965900836E0FBA3E0FAA3E0DC
:101A7000F9C003C002C001A3A3E0FAA3E0F9C3D0F8
:101A800082D083D0E0E99582EA9583400990082CC2
:101A9000E04402F08017900839E0FBA3E475F00100
:101AA000120740A9F0FAE41206A102196590083362
:101AB000A3E0FAA3E0AE02FF900839A3E0FAA3E0A6
:101AC000C39FFFEA9E90082AF0A3EFF07B017A08FB
:021AD000792A71
:011AD20022F1
:1022E400900595EBF0A3EAF0A3E9F0A3ECF0A3EDDD
:0122F400F0F9
:1022F500E4A3F0FDFCD3900599E09D900598E09C42
:102305004033900110E06D7001EC90059A601DE07E
:10231500FF900595E0FBA3E0FAA3E0F98D828C839D
:10232500120674FEEF6E90059AF08002E0F00DBD86
:0A23350000010C80C090059AE0FF43
:01233F00227B
:1020770090038CEBF0A3EAF0A3E9F0A3ECF0A3ED57
:01208700F068
:10208800E4900591F0A3F0A3F0A3F07BFF7A1E790A
:102098004F120FAE90038CE0FBA3E0FAA3E0F9A384
:1020A800E0FCA3E0FD1222E490038CE0FBA3E0FA3D
:1020B800A3E0F9900110E0F582758300EF1206B3F2
:1020C8007BFF7A1E7963120FAE90038FE0FCA3E0CA
:1020D800FD90059A7401F0A37403F0A37491F09035
:1020E800038CE0FBA3E0FAA3E0F9121CE690059349
:1020F800EEF0A3EFF07BFF7A1E7973900133E09046
:102108000598F0120FAE900593E0FEA3E0FF90054E
:1021180091E0FCA3E0FDC39FEC9E50287BFF7A1E54
:10212800797374912DF58274033CF583E0900598DA
:10213800F0120FAE900592E004F07006900591E061
:0D21480004F080C27BFF7A1E7976020FAE94
:1023C30090084374FFF0A37424F0A37495F07B0189
:1023D3007A0579C57D007C02121642EF4E60E17BDF
:1023E300FF7A1E7978120FAE7B017A0579C5020F49
:0123F300AE3B
:10252C0075A9A4E4F5A3F5A2F5A4F5A58FA675A14C
:02253C00532228
:07255F0075EFAC75D80322F3
:1024D600759852758780758921758DFAD28ED29935
:0724E600C2ACC2ABD2AF2271
:1024ED00D2DC20DCFDE5DA540FFEADD97C00E42D05
:0624FD00FFEC3EFEC2DC14
:0125030022B5
:09255600D287D285C283D2802213
:1023F400A2099283C2872086FD900135E5A0F0D220
:1024040087C2852084FD900134E5A0F0D285E0FEEA
:0A241400A3E07C002400FFEC3EFE74
:01241E00229B
:030053000224473D
:10244700C0E0C083C082C0D0900357E004F0E0B47E
:102457000206C280D280E4F09000807401F0D0D0F0
:07246700D082D083D0E032E7
:101F5300900001E004F07006900000E004F09000AF
:101F630081E0FCA3E0FD900000E0FEA3E0FF120689
:101F7300D5ED4C707BC2091223F4900853EEF0A305
:101F8300EFF0FDAC06EC1202F97B007A6679D578A6
:101F9300C612005D12033290006EEEF0A3EFF090D4
:101FA300006EE0FCA3E0FDE41202F9E4FBFA79C859
:101FB30078421202579005981207647BFF7A1E79C4
:101FC30090120FAE90006EE0FEA3E0FFC39419EEF3
:101FD3009400400A900857E4F0A304F08012C3EF82
:101FE3009419EE94005009900857E4F0A37402F09A
:101FF300E4FFFE0FBF00010EEF64644E70F5900026
:10200300E4E0FCA3E0FD900000E0FEA3E0FF120685
:10201300D5ED4C705ED2091223F4900855EEF0A36F
:10202300EFF0FDAC06EC1202F9E4FBFA79FE78421C
:1020330012014EE4FBFA79C87842120257120332B6
:102043009000D1EEF0A3EFF09000D1E0FCA3E0FD0F
:10205300E41202F9E4FBFA79C878421202579005B8
:102063009812076490059C7425F07BFF7A1E79B85B
:03207300120FAE9B
:012076002247
:04239100E4FD7F4F99
:08239500900861EFF0A3EDF0E8
:10239D00A37401F012254C900861E0B50707E49095
:1023AD000863F0800A900862E0B4010312246E9075
:0523BD000863E070DF81
:0123C20022F8
:10234000900864EFF07BFF7A1E79D5120FAE12234E
:1023500091E4FD7F4B1223957BFF7A1E79E1120FEA
:10236000AE122391E4FD7F4B1223957BFF7A1E79F9
:10237000ED120FAE122391E4FD7F4B1223957BFFEC
:102380007A1F7905120FAE122391E4FD7F4B0223D1
:0123900095B7
:10241F00E4FD7F55122395E4FD7F3A1223957D014C
:10242F007F2C1223957F0912246EE4FD7F3D12232A
:08243F00957D017F0302239546
:10215500E4900357F0900080F07F0112252C1225A2
:102165005F1224D6122556A3E4F0A304F09000E4F0
:10217500E4F0A37405F07BFF7A1F790C120FAE7B98
:10218500FF7A1F7934120FAE7BFF7A1F793A120F4F
:10219500AEE490035FF0A3F07B017A0079637D06DE
:1021A500FC122077C390035FE09402502512251896
:1021B50090035FE0FCA3E02450F58274013CF583B5
:1021C500EFF0900360E004F070DA90035FE004F054
:1021D50080D27B017A017950120FAE7BFF7A1F798D
:0F21E50040120FAE900080E0B401F9E4F080F5F5
:1000560002039EE86480F8E933E83360110460F037
:10006600ED33EC337009E8FCE9FDEAFEEBFF220410
:1000760060DED3EB9FEA9EE99DE8C2E78CF0C2F70B
:1000860095F0400CE8CCF8E9CDF9EACEFAEBCFFBD7
:1000960012036985D0F05804700320D5B3E80470C4
:1000A600075002B2D50203A892D5EC0460F7E4CC5F
:1000B600C0E0C398F8603B94186008400DD0E0FBA0
:1000C600020380E4FBFAC9FC8028E830E406E4C9B0
:1000D600FBE4CAFCE830E305E4C9CACBFCE85407F4
:1000E6006010F8C3E913F9EA13FAEB13FBEC13FCFF
:1000F600D8F130F52FC3E49CFCEF9BFFEE9AFEEDA2
:1001060099FDD0E0FBEF4E4D4C701222DB0302034B
:10011600A5EC2CFCEF33FFEE33FEED33FDED30E7BF
:10012600EB020380EF2BFFEE3AFEED39FDD0E0FB4C
:1001360050130BBB00030203A8ED13FDEE13FEEFF5
:0801460013FFEC13FC0203801F
:10014E00EC4D6011E8497017ED33EC3304600DE4AB
:10015E00FCFFFEFD22E933E8330470F802039E1221
:10016E00036958046009E4CC248150062850090222
:10017E0003A82840030203A5C0E0EB4A7044B980EF
:10018E0006D0E0FB020394EF4E701CBD8008EBFF1F
:10019E00EAFEE9FD80EBE98DF0A4FEE5F002023700
:1001AE00E9CDF9EAFEEBFFEF89F0A4FCE5F0CE898C
:1001BE00F0A42EFFE435F0CD89F0A42DFEE435F049
:1001CE008067EF4E7005BD80D780C3EF8BF0A4AC77
:1001DE00F0EE8BF0A42CFCE435F0F8EF8AF0A42CB2
:1001EE00E5F038FCE433CB8DF0A42CFCE5F03BF8C5
:1001FE00EE8AF0A42CFCE5F038F8E433CF89F0A4B5
:10020E002CFCE5F038CF3400CE89F0A42FFFE5F0BA
:10021E003EFEE433C98DF0A42EFEE5F039CD8AF012
:10022E00A42FFFE5F03EFEE43DFD33D0E0FB50078A
:10023E000BBB000F0203A8EC2CFCEF33FFEE33FEDA
:06024E00ED33FD02038008
:100254000203A8EC5D046005E85904700302039EE0
:10026400120369580460F6EC4860F2EC7004FDFE79
:10027400FF22C860DB2481C85009C398600250067D
:100284000203A59850CAF582E9294B4A7005AB824E
:1002940002039475F0007C1A7880C3EF9BEE9AED0C
:1002A40099400DC3EF9BFFEE9AFEED99FDE842F0F5
:1002B400DC23ACF0D0E0FFD0E0FED0E0FDAB822048
:1002C400E7101BEB60BAEC2CFCEF33FFEE33FEEDD2
:1002D40033FD020380E803F830E705C0F075F00051
:1002E400EF2FFFEE33FEED33FD40B830E7C280AAB6
:1002F40075F020800E75F010800575F0087D007E85
:10030400007F003392D530D503120756EC334010EA
:10031400EF33FFEE33FEED33FDEC33FCD5F0ED228D
:0E032400E5F0247EA2D513CC92E7CDCEFF22C9
:10033200EDD2E7CD33EC3392D524814006E4FFFEC3
:10034200FDFC22FCE4CFCECDCC24E0501174FF8022
:10035200EDC3CC13CCCD13CDCE13CECF13CF0470BF
:07036200F030D5DE02075662
:100F4300E5082498F582E43405F583E0050822904A
:100F53000595300703900598E475F00112077002B8
:100F6300065B2000E97F2ED2008018EF540F2490F7
:100F7300D43440D4FF30040BEF24BFB41A00500321
:100F83002461FFE50960021509050CE50C700205F3
:100F93000B30070E900595E475F001120770EF0210
:100FA30006A102246E7403D2078003E4C207F50886
:100FB300900595120787E4F509F50BF50CE5096033
:100FC300077F20120F8680F5750AFFC201C200C297
:100FD30002C203C205C206C208120F52FF700D30CF
:100FE30007057F00120F97AF0CAE0B22B4255FC22B
:100FF300D5C204120F52FF24D0B40A00501A75F060
:101003000A780930D50508B6FF0106C6A426F620DE
:10101300D5047002D20380D924CFB41A00EF500450
:10102300C2E5D204021289D20180C6D20080C0D2A6
:101033000280BCD2D580BAD20580B47F20120F863D
:101043002002077401B5090040F1120F43FF120F8C
:1010530086020FC0D208D2068095120F43FB120FEF
:1010630043FA120F43F94A4B700679877A137BFFD1
:1010730020022EE509602A7E008E82758300120607
:101083007460060EEE650A70F0C2D5EBC0E0EAC0EC
:10109300E0E9C0E0EE1212EAD0E0F9D0E0FAD0E0E5
:1010A300FB12065BFF60AAEBC0E0EAC0E0E9C0E028
:1010B300120F86D0E02401F9D0E03400FAD0E0FB2F
:1010C300E50A0460DCD50AD98087D20280A2121215
:1010D300CC60F7E50A7001041203B3A90A600DE5B9
:1010E3000A600914F50A121374EF60F3EA30E70299
:1010F300F404C3995079EAF4250A0430E701E404BF
:10110300F50A800D1212CC60C1EA050A250A120302
:10111300B3EA9005C4F030E701E4250A04D50A04D4
:10112300200501141212EAE4C0E01213749005C4FE
:10113300E0601320E70714F0120F6E802204F0D052
:10114300E014C0E07F00120F6EE50A6007120F651E
:10115300150A800B300503120F65D0E0020FC0D0D3
:10116300E00480C41212CC609EE50A041203B3901B
:1011730005C4EAF0E50A2005026001042404121202
:01118300EA81
:1011840074FF04C0E0121374120F6EE50A20050206
:101194006003120F65D0E0B50AE87F45120F78901E
:1011A40005C4E07F2B30E7047F2DF404C0E0120F68
:1011B40086D0E075F00A84C0F0120F6FD0E0120FF1
:1011C4006F020FC0791080027908C206C208800835
:1011D400D2D5790A8004790AC2D5E50A047002F5E9
:1011E4000AE4FAFDFEFF120F43FC7B0820011312F0
:1011F4000F43FD7B1030000A120F43FE120F43FF12
:101204007B20EC3382D592D55013C3E43000069F83
:10121400FFE49EFEE42001039DFDE49CFCE4CBF886
:10122400C201EC700CCFCECDCCE824F8F870F3807A
:1012340017C3EF33FFEE33FEED33FDEC33FCEB333A
:10124400FB994002FB0FD8E9EB300105F8D0E0C46C
:1012540048B201C0E00AEC4D4E4F78207B0070C2CA
:10126400EAB50A0040BCC0E01212ECD0F0D0E02095
:101274000104C4C0E0C4B201C0F0120F6FD0F0D5B5
:10128400F0EB020FC0120790105D5311C858102ED6
:101294004C102A4211CC4F11D44411D44910434369
:1012A40011DA5511074611674510D14713A750109D
:1012B400322D10362E10592B103A2310572013902C
:1012C4002A0FF24800001051E50AB4FF03750A061C
:1012D400120F43FC120F43FD120F43FE120F43FF84
:1012E4009005BD0203F0790AA2D520031430050944
:1012F400B910020404B9080104A2D5200602500161
:10130400042002689202B509005034C0E07F203006
:1013140003197F30A20272067205500F121343C2E2
:1013240002C206C205C2087F30800F300503E9C03F
:10133400E0120F86300503D0E0F9D0E0B509CC30D7
:1013440005177F30B9100C120F867F583004077FC1
:10135400788003B90803120F863002057F2D020F2F
:10136400867F202008F87F2B2006F322920280CF6C
:101374007F00B40700500B24BDF582E43405F583E7
:10138400E0FF22286E756C6C2900D201120F4330E5
:1013940001F8C201780930D50108F6020FF22D5088
:1013A400434958120F432403B405004001E4901349
:1013B400A293120F77743A120F77D20375090402BD
:0213C40011C84E
:10036900E9D2E7C933E833F892D5EDD2E7CD33ECDA
:0703790033FC5002B2D52253
:10038000EC30E7100FBF000C0EBE00080DBD0004DE
:100390000BEB6014A2D5EB13FCED92E7FD2274FF8A
:1003A000FCFDFEFF22E480F8A2D574FF13FC7D80E3
:0303B000E480EFF7
:1003B300F920E73624F950037907E4F42402FBE536
:1003C30082158270021583DBF6E024FB501BE96083
:1003D30014E4F0E582158270021583E004F0B40A98
:0D03E30008E4F0D9EE7401F00A22C2D52220
:1003F000ED33EC3392D5FA602AB4FF33EDC2E77BDC
:10040000FF60067A047915E4227A04791E20D50467
:100410007A047919224E614E002B494E46002D492F
:100420004E4600E47A08F0A3DAFC7B00740722C091
:1004300083C082ECC0E0EDC0E0EEC0E0EFC0E0EAD7
:1004400075F010A4CAABF075F04DA42BFBE435F0A9
:10045000FCEA2410FAEB34C5FBEC34D9FCEDC2E71E
:10046000FF75F056A4F42411C5F0F434C58FF0A440
:100470002AE5F03BE43CF020E714120525D0E0FF2C
:10048000D0E0FED0E0FDD0E0FC1202578014F4046E
:10049000120525D0E0FFD0E0FED0E0FDD0E0FC1258
:1004A000014ED082D083E0FAEDD2E7CD33EC332495
:1004B00082FBE4C3CF33CFCE33CECD33CD33DBF3AA
:1004C0007B0775F00A846004F0A31B0AE5F0F0A333
:1004D0008FF0740AA4FFACF08EF0740AA42CFEAC6A
:1004E000F050010C8DF0740AA42CFDE435F0F0A35B
:0504F000DBDE740722B1
:1004F5003F8000004120000042C80000447A00000F
:10050500461C400047C35000497424004B18968090
:100515004CBEBC205A0E1BCA6753C21C749DC5AE87
:10052500FB60065407601C2323120553EB54386007
:100535000912053F12054E12014EECF8EDF9EEFADF
:10054500EFCB22EB12054E80F1543803241C9004A6
:10055500F5FE93FC0EEE93FD0EEE930ECE93FF2269
:10220600022155E493A3F8E493A34003F68001F278
:1022160008DFF48029E493A3F85407240CC8C333D9
:10222600C4540F4420C8834004F456800146F6DFA8
:10223600E4800B0102040810204080901AD3E47E4B
:10224600019360BCA3FF543F30E509541FFEE4939D
:10225600A360010ECF54C025E060A840B8E493A364
:10226600FAE493A3F8E493A3C8C582C8CAC583CA8F
:10227600F0A3C8C582C8CAC583CADFE9DEE780BE47
:011CE50000FE
:10056500E709F608DFFA8046E709F208DFFA803E78
:1005750088828C83E709F0A3DFFA8032E309F60865
:10058500DFFA8078E309F208DFFA807088828C83CD
:10059500E309F0A3DFFA806489828A83E0A3F60881
:1005A500DFFA805889828A83E0A3F208DFFA804C5B
:1005B50080D280FA80C680D4806980F28033801032
:1005C50080A680EA809A80A880DA80E280CA80339B
:1005D50089828A83ECFAE493A3C8C582C8CCC58313
:1005E500CCF0A3C8C582C8CCC583CCDFE9DEE780E3
:1005F5000D89828A83E493A3F608DFF9ECFAA9F062
:10060500EDFB2289828A83ECFAE0A3C8C582C8CCB7
:10061500C583CCF0A3C8C582C8CCC583CCDFEADED0
:10062500E880DB89828A83E493A3F208DFF980CC32
:1006350088F0EF60010E4E60C388F0ED2402B4042B
:100645000050B9F582EB2402B4040050AF232345D2
:0606550082239005B5733D
:10065B00BB010689828A83E0225002E722BBFE029D
:09066B00E32289828A83E49322D0
:10067400BB010CE58229F582E5833AF583E022503B
:1006840006E92582F8E622BBFE06E92582F8E22285
:0D069400E58229F582E5833AF583E493229F
:1006A100BB010689828A83F0225002F722BBFE0138
:0206B100F32232
:1006B300F8BB010DE58229F582E5833AF583E8F07D
:1006C300225006E92582C8F622BBFE05E92582C829
:0206D300F22211
:1006D500BC000BBE0029EF8DF084FFADF022E4CC09
:1006E500F875F008EF2FFFEE33FEEC33FCEE9DECD2
:1006F500984005FCEE9DFE0FD5F0E9E4CEFD22ED18
:10070500F8F5F0EE8420D21CFEADF075F008EF2F61
:10071500FFED33FD4007985006D5F0F222C398FD52
:050725000FD5F0EA22EF
:10072A00C5F0F8A3E028F0C5F0F8E582158270025A
:06073A001583E038F022F7
:10074000A3F8E0C5F025F0F0E5821582700215836C
:06075000E0C838F0E822C9
:0E075600C3E49FFFE49EFEE49DFDE49CFC22B4
:0C076400ECF0A3EDF0A3EEF0A3EFF02208
:10077000F8E0FBA3A3E0F925F0F0E5821582700212
:070780001583E0FA38F022B6
:09078700EBF0A3EAF0A3E9F02273
:10079000D083D082F8E4937012740193700DA3A3F8
:1007A00093F8740193F5828883E47374029368600C
:0607B000EFA3A3A380DF0C
:0607B6008A838982E473CE
:10246E00EFB40A07740D122479740A309811A899E2
:10247E00B8130CC2983098FDA899C298B811F630CE
:07248E0099FDC299F59922A6
:0A254C003098FDAF99C2987E00227E
:10251800100A0B12254CBF0D027F0A02246E900888
:0425280065E0FF2249
:1007BC00EF4E6012EF60010EEDBB010B89828A8354
:1007CC00F0A3DFFCDEFA2289F05007F709DFFCA961
:0C07DC00F022BBFEFCF309DFFCA9F022B8
:00000001FF
