:030000000221FEDC
:1021FE0043AF01787FE4F6D8FD75A000758121020A
:02220E00224B61
:101F53002568687800434F42535F2573583A207CC5
:101F63000054005200202530327820007C0A003AC9
:101F7300000A456E7472616E646F20616C20656E39
:101F830076696F0A000A5465726D696E61646F2029
:101F9300584F520A002563000A496D7072696D69D2
:101FA300656E646F20526573756C7461646F0A00AB
:101FB3004C612074656D7065726174757261207314
:101FC3006F6E20252E326620677261646F73206303
:101FD300656C736975730A0048617920756E6120B9
:101FE30068756D656461642064656C20252E3266B6
:101FF3002025630A0041545330303D303030340DD6
:102003000041545330323D303030330D004154538E
:1020130030333D30303030303030303030303030AD
:102023003030330D0041542B4A4E0D00496E74720B
:102033006F64756365206C6F73207469656D706F71
:102043007320646520636164612073656E736F72CE
:102053003A200A0054203D200A0048203D200A006F
:102063000A436F6E6E65637465640A0D00000000B9
:032073000000006A
:101AD30041011104410134004501120000100818AE
:101AE30045003700001007174500320000100010B2
:101AF300450028000010031345002D0000110514B4
:101B030045036F0000110213450137000011011056
:101B1300440046001210064700020002100912306A
:101B2300394701050002100912303047035A0002F9
:101B330012091230394501470000110E0F45006AA2
:101B43000000110F1E4501420000100F1F45010C3C
:101B53000000120F1D45014C0000111001460363E4
:101B6300000110100A0B4501290000111203460160
:101B73003C00011012080B45005F00001119085FBB
:101B83000009001A102F0630393030ABCD000000A9
:101B9300000000000000000000123448656C6C6F08
:101BA3002145011800001120315503740010102045
:101BB30060ABCD0000000000000000000000001238
:101BC300345500BC0010102060ABCD0000000000B5
:101BD30000000000000000341247011D0002102124
:101BE30000303945035200001024344503890002B4
:101BF300101125450124000910146745003C000815
:101C0300101C894500B70010101515450089000800
:101C13001013834500E8000A10160746006400010C
:101C2300101909065800ED0013102700ABCD000072
:101C330000000000000000000000341260000145B5
:101C430000B100011019084100B6014100AE024184
:101C530000E7034101170441012E0541036C0645CA
:101C6300004A00001117064500A900101017694526
:101C7300012F0000101B0B4500840000121B0941BB
:101C830001510B42036912344900D44D794E6574F6
:101C9300776F726B4900A0FD12340038000000001A
:101CA30050007100112233445566778899AABBCC42
:101CB300DDEEFF48009811223344556677884A00C9
:101CC3008E4D7950617373776F726450004F38345F
:101CD30030344432303030303030303546434200D7
:031CE300000000FE
:10250E00AE03AC05AD07AF04AB07900862EEF07FEB
:04251E000102229004
:0924C300900848E0FF7B01E4FDF4
:1024CC00AE03AC05AD07AF04AB07900862EEF0E4C9
:0424DC00FF02229049
:0E2548007BFF7A1F795390059AEFF0020FAED9
:0B249F0090085BEBF0A3EAF0A3E9F06B
:1024AA0012252290085EEFF090085B7401F0A37485
:0824BA0008F0A3745EF07F013D
:0124C20022F7
:101CE700900597EBF0A3EAF0A3E9F0A3ECF0A3EDDE
:011CF700F0FC
:101CF800E490059FF0A3F0A3F0A304F0E4A3F0A3FD
:101D0800F0A304F090059AE0FEA3E0FF90059FE0A1
:101D1800FCA3E0FDC39FEC9E4003021E07900597BD
:101D2800E0FBA3E0FAA3E0F98D828C8312067470BD
:101D3800489005A5E0FF90059CE0FBA3E0FAA3E02E
:101D4800F99005A3E0FCA3E0F5828C83EF1206B3BB
:101D58009005A57401F09005A1E475F00112074003
:101D6800AFF09005A3F0A3EFF09005A0E004F070A9
:101D78009390059FE004F0808B900597E0FBA3E02B
:101D8800FAA3E0F990059FE475F00112074085F089
:101D980082F583120674FF90059CE0FBA3E0FAA38A
:101DA800E0F99005A1E475F00112074085F082F58D
:101DB80083EF1206B39005A5E004F0E0FF3395E049
:101DC800FEEFF44E6003021D0C90059CE0FBA3E0BF
:101DD800FAA3E0F99005A3E0FCA3E0F5828C83EF79
:101DE8001206B39005A57401F09005A1E475F00101
:101DF800120740AFF09005A3F0A3EFF0021D0C907E
:101E080005A5E0FF90059CE0FBA3E0FAA3E0F990AC
:101E180005A3E0FCA3E0F5828C83EF1206B39005DE
:061E2800A1E0FEA3E0FFB3
:011E2E002291
:1007E8009007CAECF0A3EDF09007C7EBF0A3EAF08E
:0307F800A3E9F082
:1007FB009007F2EBF0A3EAF0A3E9F0A3E4F0A3F087
:10080B00A3F0F9A3C9F0A3F0A3E9F0E4A3F0A3F0DC
:10081B00A3F0A304F0E4A3F0A3F0A3F0FE7F23FC6A
:10082B00FD7B017A0779CF1207BC9007F87401F0B2
:10083B00A37407F0A374E7F09007CAE0FEA3E0FFF0
:10084B00C39007D2E09F9007D1E09E4003020CD2E9
:10085B009007F2E0FBA3E0FAA3E0F912065B60035A
:10086B00020A469007FFE004F0E06402600302090D
:10087B005A9007FDE0FEA3E0FF64014E70030209EE
:10088B005AEF24DFFFE43EFED3EF94FEEE940050CC
:10089B0012E024DFF09007FDE03400F0E49007FF56
:1008AB00F080069007FF7401F09007FDA3E0FF9026
:1008BB0007F8E0FBA3E0FAA3E0F9EF1206A190071B
:1008CB00D0E004F070069007CFE004F09007F1E061
:1008DB00FF24E7F9E43407FA7B01C003C002C0012F
:1008EB009007F8E0FBA3E0FAA3E0F9D082D083D025
:1008FB00E06B7008E965827003EA658370299007E5
:10090B00FBE0FCA3E0FDEF3395E0FEEF25E0FFEE0F
:10091B0033FE74D32FF58274073EF583ECF0A3ED11
:10092B00F09007F1E004F09007F2E0F9A3E0FAA3EE
:10093B00E09007F8C9F0A3EAF0A3E9F09007D1E043
:10094B00FFA3E09007FBCFF0A3EFF0A3E480689048
:10095B0007FFE0FF640F7065EF24D0FFE4339007CF
:10096B00FDF0A3EFF09007F5E0FBA3E0FAA3E0F9AD
:10097B00A3EBF0A3EAF0A3E9F0EF1206A19007D0E6
:10098B00E004F070069007CFE004F09007F2E0F976
:10099B00A3E0FAA3E09007F8C9F0A3EAF0A3E9F00B
:1009AB009007D1E0FFA3E09007FBCFF0A3EFF0E4BB
:1009BB009007FFF09007FDF0A304F080689007F11B
:1009CB00E024E7F9E43407FA7B01C003C002C0015D
:1009DB009007F8E0FBA3E0FAA3E0F9D082D083D034
:1009EB00E06B7008E965827003EA658370379007E6
:1009FB00FDE07004A3E06401702B9007FFE0B401ED
:100A0B00249007F2E0F9A3E0FAA3E09007F8C9F00D
:100A1B00A3EAF0A3E9F09007D1E0FFA3E09007FB76
:100A2B00CFF0A3EFF09007F2E0F9A3E0FAA3E0A375
:100A3B00C9F0A3EAF0A3E9F0020CB79007FFE0704E
:100A4B0003020BE2C394034003020B709007FDE01B
:100A5B00FCA3E0FD64014C6003020AF6A3E0B402C0
:100A6B000E9007FEE024DFF09007FDE03400F090DD
:100A7B0007FDA3E0FF9007F8E0FBA3E0FAA3E0F982
:100A8B00EF1206A19007D0E004F070069007CFE0BC
:100A9B0004F09007F5E0FBA3E0FAA3E0F9C003C074
:100AAB0002C001A3E0FBA3E0FAA3E0F9D082D0835C
:100ABB00D0E06B7008E965827003EA65836003021E
:100ACB000B9D9007F1E024E7F9E43407FA9007F85F
:100ADB007401F0A3EAF0A3E9F09007D1E0FFA3E0E3
:100AEB009007FBCFF0A3EFF0020BC49007F8E0FBED
:100AFB00A3E0FAA3E0F9ED1206A19007D0E004F011
:100B0B0070069007CFE004F09007F1E0FF24E7F9BF
:100B1B00E43407FA7B01C003C002C0019007F8E080
:100B2B00FBA3E0FAA3E0F9D082D083D0E06B70088E
:100B3B00E965827003EA658370299007FBE0FCA3EB
:100B4B00E0FDEF3395E0FEEF25E0FFEE33FE74D3CF
:100B5B002FF58274073EF583ECF0A3EDF09007F1CF
:100B6B00E004F0802D9007FFE024D0FFE4339007E2
:100B7B00FDF0A3EFF09007F8E0FBA3E0FAA3E0F998
:100B8B00EF1206A19007D0E004F070069007CFE0BB
:100B9B0004F09007F5E0F9A3E0FAA3E0A3C9F0A3F2
:100BAB00EAF0A3E9F09007D2E024FFFE9007D1E032
:100BBB0034FF9007FBF0A3CEF0E49007FFF0900713
:100BCB00FDF0A37402F09007D0E004F070069007DC
:100BDB00CFE004F0020CB79007FEE004F070069033
:100BEB0007FDE004F09007FDE07004A3E064D06023
:100BFB0003020CA99007F8E0FBA3E0FAA3E0F97459
:100C0B00D01206A19007D0E004F070069007CFE059
:100C1B0004F09007F1E0FF24E7F9E43407FA7B01D5
:100C2B00C003C002C0019007F8E0FBA3E0FAA3E009
:100C3B00F9D082D083D0E06B7008E965827003EA4B
:100C4B00658370299007FBE0FCA3E0FDEF3395E093
:100C5B00FEEF25E0FFEE33FE74D32FF58274073ED3
:100C6B00F583ECF0A3EDF09007F1E004F09007F1C1
:100C7B00E024E7F9E43407FA9007F87401F0A3EAEB
:100C8B00F0A3E9F09007D2E02401FE9007D1E03405
:100C9B00009007FBF0A3CEF0A3E4F0A304F09007C1
:100CAB00D0E004F070069007CFE004F09007F3E477
:100CBB0075F00112072A9007D2E004F07006900736
:100CCB00D1E004F00208439007FFE004F0E0640277
:100CDB006003020D9A9007FDE0FEA3E0FF24DFFD09
:100CEB00E43EFCD3ED94FEEC9400500EE024DFF0D8
:100CFB009007FDE03400F0020DB19007F8E0FBA384
:100D0B00E0FAA3E0F9EF1206A19007D0E004F0702F
:100D1B00069007CFE004F09007F1E0FF24E7F9E439
:100D2B003407FA7B01C003C002C0019007F8E0FB57
:100D3B00A3E0FAA3E0F9D082D083D0E06B7008E98E
:100D4B0065827003EA658370299007FBE0FCA3E0E2
:100D5B00FDEF3395E0FEEF25E0FFEE33FE74D32F6E
:100D6B00F58274073EF583ECF0A3EDF09007F1E00C
:100D7B0004F09007F5E0F9A3E0FAA3E0A3C9F0A310
:100D8B00EAF0A3E9F09007FDE4F0A304F0801790DC
:100D9B0007FFE0FFD39402400DEF24D0FEE4339025
:100DAB0007FDF0A3CEF09007FDA3E0FF9007F8E05E
:100DBB00FBA3E0FAA3E0F9EF1206A19007D0E00441
:100DCB00F070069007CFE004F09007F1E0FF24E706
:100DDB00F9E43407FA7B01C003C002C0019007F8A5
:100DEB00E0FBA3E0FAA3E0F9D082D083D0E06B70F4
:100DFB0008E965827003EA658370239007FBE0FCCA
:100E0B00A3E0FDEF3395E0FEEF25E0FFEE33FE743C
:100E1B00D32FF58274073EF583ECF0A3EDF0E4904D
:100E2B0007D1F0A3F09007F1F09007D0E02401FF79
:100E3B009007CFE03400FE900800E0FCA3E0FDC378
:100E4B009FEE6480F8EC6480984003020F3AED4CFF
:100E5B0070219007CCA3E0FAA3E0F5828A83E4FF2C
:100E6B001207BA900801E004F070BE900800E0048D
:100E7B00F080B69007F1E0FDFF3395E0FEEF25E043
:100E8B00FFEE33FE74D32FF58274073EF583E0FE3D
:100E9B00A3E0FF9007D1E0FAA3E0FBEFB5033EEE32
:100EAB00B5023AEDFF3395E0FE74E72FF582740738
:100EBB003EF583E0FF60269007CCA3E0FAA3E0F5B4
:100ECB00828A831207BA9007F1E004F0900801E0E0
:0D0EDB0004F07006900800E004F0020E34F0
:100EE800E4900802F0900802E06003020E349007D4
:100EF800C7E0FBA3E0FAA3E0F99007D1E475F0019D
:100F080012074085F082F583120674900802F0E01B
:100F1800FF60D29007CCA3E0FAA3E0F5828A83129F
:100F280007BA900801E004F070BB900800E004F0F4
:020F380080B384
:080F3A00900800E0FEA3E0FFB7
:010F4200228C
:10164200900840EBF0A3EAF0A3E9F0A3ECF0A3EDDD
:01165200F0A7
:10165300E4900848F0FF7B017A087948C0029008BB
:1016630045A3E0FAA3E0F5828A83D0021207BAEF1A
:101673007011900848E0FF7B017D011224CC7EFFAE
:091683007FFE22900848E070533C
:10168C009000E3E0FE3395E0900849F0A3CEF09093
:10169C0000DDE4F0A37405F0E4A3F0A3F0A304F0E0
:1016AC00E4A3F0A3F0A3F0FE7F05FCFD900840E05E
:1016BC00FBA3E0FAA3E0F91207BC900849E0700222
:1016CC00A3E0700C900848E0FFE4FB7D0102187C5D
:0316DC0002187F72
:1016DF00900848E070030218529000E1E064016046
:1016EF0003021852C39000E0E094029000DFE06420
:1016FF0080948040739000E2E0706D900840E0FBB2
:10170F00A3E0FAA3E0F9900001120674FD7C001229
:10171F00065BFEE42DFFEC3EFE9000DEE02FF09026
:10172F0000DDE03EF0900843E0FEA3E0FFD3900021
:10173F00DEE09F9000DDE09E40030217E09000DEA8
:10174F00E024FBFF9000DDE034FFFE7C007D009085
:10175F000840E0FBA3E0FAA3E02405F9E43AFA120B
:10176F0007BC9000E27401F09000E3E07073900802
:10177F0048E0FFC394D0500CEF149000E3F0A37433
:10178F0001F08055900848E0B4D00A149000E3F0BF
:10179F00E4A3F08044900848E0FF64D16004EFB404
:1017AF00D202802D900848E0FFC394E0500CE490E3
:1017BF0000E3F0EF2430A3F0801F900848E0FFC350
:1017CF0094FF500DEF24209000E3F0A37402F080FB
:1017DF00081224C37EFF7FFF229000E3E070668033
:1017EF00489000DDE0FEA3E0FFA3E0FCA3E0FDC313
:1017FF009FEE6480F8EC6480985018900848E0FFE2
:10180F00900840E0FBA3E0FAA3E0F98D828C83EF10
:10181F001206B39000E0E004F070069000DFE004E1
:10182F00F09000E3E014F0701CA3E0FF3395E0FEAE
:10183F009000E0E02FF09000DFE03EF0E49000E455
:10184F00F08002802B9000DDE0FEA3E0FFC390004C
:10185F00E0E09FEE6480F89000DFE0648098401431
:10186F00E49000E1F0900848E0FFE4FBFD1224CC87
:0F187F00E4FEFF221224C39000DDE0FEA3E0FF91
:01188E002237
:10229000900860EDF0A3EBF06023EF7BFF60067A1F
:1022A0001F796480047A1F796690059AEBF0A3EA9F
:1022B000F0A3E9F07BFF7A1F7958120FAE90086106
:1022C000E06004A3E070117BFF7A1F7968900860DA
:1022D000E090059AF0120FAE900862E07BFF600676
:0E22E0007A1F796F80047A1F7972120FAE2276
:0B00030090084BEBF0A3EAF0A3E9F03B
:10000E00900852EBF0A3EAF0A3E9F090085074FFC9
:10001E00F5F0120740FED3E5F09400EE9400401682
:10002E00900852E0FBA3E475F001120740A9F0FA24
:10003E00ED1206A180D590084BE0FBA3E0FAA3E0F9
:01004E00F9B8
:01004F00228E
:1013C600900803EBF0A3EAF0A3E9F0A3ECF0A3ED99
:0113D600F026
:1013D700780D7C087D017BFF7A2079707E007F0382
:1013E700120635900808E0F9A3E0FAA3E090081088
:1013F700C9F0A3EAF0A3E9F0900810E0FBA3E0FA34
:10140700A3E0F990080BE0FEA3E0FFE92FF9EA3E1D
:10141700FA900813EBF0A3EAF0A3E9F0900803E0D1
:10142700F9A3E0FAA3E0900816C9F0A3EAF0A3E94C
:10143700F0900816E0FBA3E0FAA3E0F9900806E0B5
:10144700FEA3E0FFE92FF9EA3EFA900819EBF0A3B3
:10145700EAF0A3E9F0900803E0FBA3E0FAA3E0F9C0
:1014670090081CEBF0A3EAF0A3E9F02401F9E43AB1
:10147700FAA3EBF0A3EAF0A3E9F07E01900803A337
:10148700E0FAA3E04A4B600E900808E0FBA3E0FAFD
:10149700A3E04A4B700A90080F7401F0FB02163D57
:1014A70090080BE07002A3E070030215C9900819B9
:1014B700E0FBA3E0FAA3E0F9C003C002C001900873
:1014C7001FA3E0FAA3E0F9C3D082D083D0E0E99567
:1014D70082EA9583400A90080FE04402F00215C99A
:1014E700900810E0FBA3E475F001120740A9F0FA99
:1014F70012065BFF705990081CE0FBA3E0FAA3E01B
:10150700F9EE1206A190081FE0FAA3E475F00112A4
:101517000740A9F090081CCAF0A3EAF0A3E9F07EFF
:1015270001900813E0FBA3E0FAA3E0F9C003C002AF
:10153700C001900810A3E0FAA3E0F9C3D082D083DA
:10154700D0E0E99582EA958350030214B480739042
:10155700081FE0FBA3E475F001120740A9F0FAEFBA
:101567001206A10E900813E0FBA3E0FAA3E0F9C06E
:1015770003C002C001900810A3E0FAA3E0F9C3D0AA
:1015870082D083D0E0E99582EA95835035EEF46006
:10159700030214B490081CE0FBA3E0FAA3E0F9EE01
:1015A7001206A190081FE0FAA3E475F001120740A4
:1015B700A9F090081CCAF0A3EAF0A3E9F07E0102A3
:1015C70014B4900819E0FBA3E0FAA3E0F9C003C044
:1015D70002C001A3A3E0FAA3E0F9C3D082D083D06D
:1015E700E0E99582EA9583401D90080FE04402F0F8
:1015F700900819A3E0FAA3E0F990081FEBF0A3EA1B
:10160700F0A3E9F0800F90081CE0FBA3E0FAA3E049
:10161700F9EE1206A1900816A3E0FAA3E0AE02FFC6
:1016270090081FA3E0FAA3E0C39FFFEA9E90080D6E
:0A163700F0A3EFF07B017A08790DB3
:011641002286
:10188F00900822EBF0A3EAF0A3E9F0A3ECF0A3EDAC
:01189F00F058
:1018A000782C7C087D017BFF7A2079737E007F0392
:1018B000120635900827E0F9A3E0FAA3E090082F7C
:1018C000C9F0A3EAF0A3E9F090082FE0FBA3E0FA47
:1018D000A3E0F990082AE0FEA3E0FFE92FF9EA3E31
:1018E000FA900832EBF0A3EAF0A3E9F0900822E0C6
:1018F000F9A3E0FAA3E0900835C9F0A3EAF0A3E960
:10190000F0900835E0FBA3E0FAA3E0F9900825E0A9
:10191000FCA3E0FDE92DF9EA3CFA900838EBF0A3CE
:10192000EAF0A3E9F0900822E0F9A3E0FAA3E0903E
:10193000083BC9F0A3EAF0A3E9F0900822E0FBA37A
:10194000A3E04A4B600E900827E0FBA3E0FAA3E077
:101950004A4B700A90082E7401F0FB021ACEEF4E2B
:101960007003021AAD90082FE0FBA3E475F001129A
:101970000740A9F0FA12065B90083FF0E0700A9069
:10198000082EE04404F0021AAD90083FE014F090F5
:10199000082FA3E0FAA3E0AE02FFA3A3E0FAA3E0BE
:1019A000C39FFFEA9EAD07FC90083FE0D39DE49CF7
:1019B000400E90082EE04408F0AF0590083FEFF08D
:1019C00090083BA3E0FAA3E0AE02FF900838A3E042
:1019D000FAA3E0C39FFDEA9EFC90083FE0D39DE49C
:1019E0009C400E90082EE04402F0AF0590083FEFB7
:1019F000F090083FE0FCEC603990082FE0FBA3E496
:101A000075F001120740A9F0FA12065B90083EF04B
:101A1000E0FE700790082EE04404F090083BE0FBE5
:101A2000A3E475F001120740A9F0FAEE1206A11C1A
:101A300080C4900832E0FBA3E0FAA3E0F9C003C041
:101A400002C00190082FA3E0FAA3E0F9C3D082D02E
:101A500083D0E0E99582EA9583505290083FE06494
:101A6000FE7003021965900838E0FBA3E0FAA3E0DA
:101A7000F9C003C002C001A3A3E0FAA3E0F9C3D0F8
:101A800082D083D0E0E99582EA9583400990082EC0
:101A9000E04402F0801790083BE0FBA3E475F001FE
:101AA000120740A9F0FAE41206A102196590083560
:101AB000A3E0FAA3E0AE02FF90083BA3E0FAA3E0A4
:101AC000C39FFFEA9E90082CF0A3EFF07B017A08F9
:021AD000792C6F
:011AD20022F1
:1022EE00900597EBF0A3EAF0A3E9F0A3ECF0A3EDD1
:0122FE00F0EF
:1022FF00E4A3F0FDFCD390059BE09D90059AE09C34
:10230F004033900111E06D7001EC90059C601DE071
:10231F00FF900597E0FBA3E0FAA3E0F98D828C8391
:10232F00120674FEEF6E90059CF08002E0F00DBD7A
:0A233F0000010C80C090059CE0FF37
:012349002271
:10215E0090038EEBF0A3EAF0A3E9F0A3ECF0A3ED6D
:01216E00F080
:10216F00E4900593F0A3F0A3F0A3F07BFF7A1F791F
:10217F0074120FAE90038EE0FBA3E0FAA3E0F9A375
:10218F00E0FCA3E0FD1222EE90038EE0FBA3E0FA49
:10219F00A3E0F9900111E0F582758300EF1206B309
:1021AF007BFF7A1F7988120FAE900391E0FCA3E0BA
:1021BF00FD90059C7401F0A37403F0A37493F09049
:1021CF00038EE0FBA3E0FAA3E0F9121CE79005955C
:1021DF00EEF0A3EFF07BFF7A1F7998900134E09037
:0F21EF00059AF0120FAE7B017A037993020FAEBF
:1023CD0090084574FFF0A37424F0A3749FF07B0173
:1023DD007A0579C77D007C02121642EF4E60E17BD3
:1023ED00FF7A1F799B120FAE7B017A0579C7020F19
:0123FD00AE31
:1025360075A9A4E4F5A3F5A2F5A4F5A58FA675A142
:0225460053221E
:0725690075EFAC75D80322E9
:1024E000759852758780758921758DFAD28ED2992B
:0724F000C2ACC2ABD2AF2267
:1024F700D2DC20DCFDE5DA540FFEADD97C00E42DFB
:06250700FFEC3EFEC2DC09
:01250D0022AB
:09256000D287D285C283D2802209
:1023FE00A2099283C2872086FD900136E5A0F0D215
:10240E0087C2852084FD900135E5A0F0D285E0FEDF
:0A241E00A3E07C002400FFEC3EFE6A
:012428002291
:0300530002245133
:10245100C0E0C083C082C0D0900359E004F0E0B472
:102461000206C280D280E4F09000817401F0D0D0E5
:07247100D082D083D0E032DD
:101E2F00900001E004F07006900000E004F09000D4
:101E3F0082E0FCA3E0FD900000E0FEA3E0FF1206AD
:101E4F00D5ED4C707BC2091223FE900855EEF0A31E
:101E5F00EFF0FDAC06EC1202F97B007A6679D578CB
:101E6F00C612005D12033290006FEEF0A3EFF090F8
:101E7F00006FE0FCA3E0FDE41202F9E4FBFA79C87D
:101E8F00784212025790059A1207647BFF7A1F79E6
:101E9F00B3120FAE90006FE0FEA3E0FFC39419EEF4
:101EAF009400400A900859E4F0A304F08012C3EFA5
:101EBF009419EE94005009900859E4F0A37402F0BD
:101ECF00E4FFFE0FBF00010EEF64644E70F590004B
:101EDF00E5E0FCA3E0FD900000E0FEA3E0FF1206AA
:101EEF00D5ED4C705ED2091223FE900857EEF0A389
:101EFF00EFF0FDAC06EC1202F9E4FBFA79FE784242
:101F0F0012014EE4FBFA79C87842120257120332DB
:101F1F009000D2EEF0A3EFF09000D2E0FCA3E0FD32
:101F2F00E41202F9E4FBFA79C878421202579005DD
:101F3F009A12076490059E7425F07BFF7A1F79DB58
:031F4F00120FAEC0
:011F5200226C
:04239B00E4FD7F4F8F
:08239F00900863EFF0A3EDF0DC
:1023A700A37401F0122556900863E0B50707E4907F
:1023B7000865F0800A900864E0B40103122478905D
:0523C7000865E070DF75
:0123CC0022EE
:10234A00900866EFF07BFF7A1F79F8120FAE12231E
:10235A009BE4FD7F4B12239F7BFF7A207904120FA7
:10236A00AE12239BE4FD7F4B12239F7BFF7A2079D9
:10237A0010120FAE12239BE4FD7F4B12239F7BFFAB
:10238A007A207928120FAE12239BE4FD7F4B022399
:01239A009FA3
:10242900E4FD7F5512239FE4FD7F3A12239F7D012E
:102439007F2C12239F7F09122478E4FD7F3D12230C
:082449009F7D017F0302239F28
:10207600E4900359F0900081F07F01122536122575
:10208600691224E0122560A3E4F0A304F09000E5B1
:10209600E4F0A37405F07BFF7A20792F120FAE7B54
:1020A600FF7A207957120FAE7BFF7A20795D120FE7
:1020B600AEE4900361F0A3F07B017A0079647D06BB
:1020C600FC12215EC3900362E09406900361E094E3
:1020D60000502A122522900045EFF0900361E0FCA3
:1020E600A3E02452F58274013CF583EFF09003627D
:1020F600E004F070CF900361E004F080C7E4900341
:1021060061F0A3F07B017A01793C7D06FC12215E29
:10211600C3900362E09406900361E0940050251298
:102126002522900361E0FCA3E02452F58274013C71
:10213600F583EFF0900362E004F070D4900361E061
:1021460004F080CC7BFF7A207963120FAE90008179
:08215600E0B401F9E4F080F5AA
:1000560002039EE86480F8E933E83360110460F037
:10006600ED33EC337009E8FCE9FDEAFEEBFF220410
:1000760060DED3EB9FEA9EE99DE8C2E78CF0C2F70B
:1000860095F0400CE8CCF8E9CDF9EACEFAEBCFFBD7
:1000960012036985D0F05804700320D5B3E80470C4
:1000A600075002B2D50203A892D5EC0460F7E4CC5F
:1000B600C0E0C398F8603B94186008400DD0E0FBA0
:1000C600020380E4FBFAC9FC8028E830E406E4C9B0
:1000D600FBE4CAFCE830E305E4C9CACBFCE85407F4
:1000E6006010F8C3E913F9EA13FAEB13FBEC13FCFF
:1000F600D8F130F52FC3E49CFCEF9BFFEE9AFEEDA2
:1001060099FDD0E0FBEF4E4D4C701222DB0302034B
:10011600A5EC2CFCEF33FFEE33FEED33FDED30E7BF
:10012600EB020380EF2BFFEE3AFEED39FDD0E0FB4C
:1001360050130BBB00030203A8ED13FDEE13FEEFF5
:0801460013FFEC13FC0203801F
:10014E00EC4D6011E8497017ED33EC3304600DE4AB
:10015E00FCFFFEFD22E933E8330470F802039E1221
:10016E00036958046009E4CC248150062850090222
:10017E0003A82840030203A5C0E0EB4A7044B980EF
:10018E0006D0E0FB020394EF4E701CBD8008EBFF1F
:10019E00EAFEE9FD80EBE98DF0A4FEE5F002023700
:1001AE00E9CDF9EAFEEBFFEF89F0A4FCE5F0CE898C
:1001BE00F0A42EFFE435F0CD89F0A42DFEE435F049
:1001CE008067EF4E7005BD80D780C3EF8BF0A4AC77
:1001DE00F0EE8BF0A42CFCE435F0F8EF8AF0A42CB2
:1001EE00E5F038FCE433CB8DF0A42CFCE5F03BF8C5
:1001FE00EE8AF0A42CFCE5F038F8E433CF89F0A4B5
:10020E002CFCE5F038CF3400CE89F0A42FFFE5F0BA
:10021E003EFEE433C98DF0A42EFEE5F039CD8AF012
:10022E00A42FFFE5F03EFEE43DFD33D0E0FB50078A
:10023E000BBB000F0203A8EC2CFCEF33FFEE33FEDA
:06024E00ED33FD02038008
:100254000203A8EC5D046005E85904700302039EE0
:10026400120369580460F6EC4860F2EC7004FDFE79
:10027400FF22C860DB2481C85009C398600250067D
:100284000203A59850CAF582E9294B4A7005AB824E
:1002940002039475F0007C1A7880C3EF9BEE9AED0C
:1002A40099400DC3EF9BFFEE9AFEED99FDE842F0F5
:1002B400DC23ACF0D0E0FFD0E0FED0E0FDAB822048
:1002C400E7101BEB60BAEC2CFCEF33FFEE33FEEDD2
:1002D40033FD020380E803F830E705C0F075F00051
:1002E400EF2FFFEE33FEED33FD40B830E7C280AAB6
:1002F40075F020800E75F010800575F0087D007E85
:10030400007F003392D530D503120756EC334010EA
:10031400EF33FFEE33FEED33FDEC33FCD5F0ED228D
:0E032400E5F0247EA2D513CC92E7CDCEFF22C9
:10033200EDD2E7CD33EC3392D524814006E4FFFEC3
:10034200FDFC22FCE4CFCECDCC24E0501174FF8022
:10035200EDC3CC13CCCD13CDCE13CECF13CF0470BF
:07036200F030D5DE02075662
:100F4300E508249AF582E43405F583E00508229048
:100F5300059730070390059AE475F00112077002B4
:100F6300065B2000E97F2ED2008018EF540F2490F7
:100F7300D43440D4FF30040BEF24BFB41A00500321
:100F83002461FFE50960021509050CE50C700205F3
:100F93000B30070E900597E475F001120770EF020E
:100FA30006A10224787403D2078003E4C207F5087C
:100FB300900597120787E4F509F50BF50CE5096031
:100FC300077F20120F8680F5750AFFC201C200C297
:100FD30002C203C205C206C208120F52FF700D30CF
:100FE30007057F00120F97AF0CAE0B22B4255FC22B
:100FF300D5C204120F52FF24D0B40A00501A75F060
:101003000A780930D50508B6FF0106C6A426F620DE
:10101300D5047002D20380D924CFB41A00EF500450
:10102300C2E5D204021289D20180C6D20080C0D2A6
:101033000280BCD2D580BAD20580B47F20120F863D
:101043002002077401B5090040F1120F43FF120F8C
:1010530086020FC0D208D2068095120F43FB120FEF
:1010630043FA120F43F94A4B700679877A137BFFD1
:1010730020022EE509602A7E008E82758300120607
:101083007460060EEE650A70F0C2D5EBC0E0EAC0EC
:10109300E0E9C0E0EE1212EAD0E0F9D0E0FAD0E0E5
:1010A300FB12065BFF60AAEBC0E0EAC0E0E9C0E028
:1010B300120F86D0E02401F9D0E03400FAD0E0FB2F
:1010C300E50A0460DCD50AD98087D20280A2121215
:1010D300CC60F7E50A7001041203B3A90A600DE5B9
:1010E3000A600914F50A121374EF60F3EA30E70299
:1010F300F404C3995079EAF4250A0430E701E404BF
:10110300F50A800D1212CC60C1EA050A250A120302
:10111300B3EA9005C6F030E701E4250A04D50A04D2
:10112300200501141212EAE4C0E01213749005C6FC
:10113300E0601320E70714F0120F6E802204F0D052
:10114300E014C0E07F00120F6EE50A6007120F651E
:10115300150A800B300503120F65D0E0020FC0D0D3
:10116300E00480C41212CC609EE50A041203B3901B
:1011730005C6EAF0E50A2005026001042404121200
:01118300EA81
:1011840074FF04C0E0121374120F6EE50A20050206
:101194006003120F65D0E0B50AE87F45120F78901E
:1011A40005C6E07F2B30E7047F2DF404C0E0120F66
:1011B40086D0E075F00A84C0F0120F6FD0E0120FF1
:1011C4006F020FC0791080027908C206C208800835
:1011D400D2D5790A8004790AC2D5E50A047002F5E9
:1011E4000AE4FAFDFEFF120F43FC7B0820011312F0
:1011F4000F43FD7B1030000A120F43FE120F43FF12
:101204007B20EC3382D592D55013C3E43000069F83
:10121400FFE49EFEE42001039DFDE49CFCE4CBF886
:10122400C201EC700CCFCECDCCE824F8F870F3807A
:1012340017C3EF33FFEE33FEED33FDEC33FCEB333A
:10124400FB994002FB0FD8E9EB300105F8D0E0C46C
:1012540048B201C0E00AEC4D4E4F78207B0070C2CA
:10126400EAB50A0040BCC0E01212ECD0F0D0E02095
:101274000104C4C0E0C4B201C0F0120F6FD0F0D5B5
:10128400F0EB020FC0120790105D5311C858102ED6
:101294004C102A4211CC4F11D44411D44910434369
:1012A40011DA5511074611674510D14713A750109D
:1012B400322D10362E10592B103A2310572013902C
:1012C4002A0FF24800001051E50AB4FF03750A061C
:1012D400120F43FC120F43FD120F43FE120F43FF84
:1012E4009005BF0203F0790AA2D520031430050942
:1012F400B910020404B9080104A2D5200602500161
:10130400042002689202B509005034C0E07F203006
:1013140003197F30A20272067205500F121343C2E2
:1013240002C206C205C2087F30800F300503E9C03F
:10133400E0120F86300503D0E0F9D0E0B509CC30D7
:1013440005177F30B9100C120F867F583004077FC1
:10135400788003B90803120F863002057F2D020F2F
:10136400867F202008F87F2B2006F322920280CF6C
:101374007F00B40700500B24BFF582E43405F583E5
:10138400E0FF22286E756C6C2900D201120F4330E5
:1013940001F8C201780930D50108F6020FF22D5088
:1013A400434958120F432403B405004001E4901349
:1013B400A293120F77743A120F77D20375090402BD
:0213C40011C84E
:10036900E9D2E7C933E833F892D5EDD2E7CD33ECDA
:0703790033FC5002B2D52253
:10038000EC30E7100FBF000C0EBE00080DBD0004DE
:100390000BEB6014A2D5EB13FCED92E7FD2274FF8A
:1003A000FCFDFEFF22E480F8A2D574FF13FC7D80E3
:0303B000E480EFF7
:1003B300F920E73624F950037907E4F42402FBE536
:1003C30082158270021583DBF6E024FB501BE96083
:1003D30014E4F0E582158270021583E004F0B40A98
:0D03E30008E4F0D9EE7401F00A22C2D52220
:1003F000ED33EC3392D5FA602AB4FF33EDC2E77BDC
:10040000FF60067A047915E4227A04791E20D50467
:100410007A047919224E614E002B494E46002D492F
:100420004E4600E47A08F0A3DAFC7B00740722C091
:1004300083C082ECC0E0EDC0E0EEC0E0EFC0E0EAD7
:1004400075F010A4CAABF075F04DA42BFBE435F0A9
:10045000FCEA2410FAEB34C5FBEC34D9FCEDC2E71E
:10046000FF75F056A4F42411C5F0F434C58FF0A440
:100470002AE5F03BE43CF020E714120525D0E0FF2C
:10048000D0E0FED0E0FDD0E0FC1202578014F4046E
:10049000120525D0E0FFD0E0FED0E0FDD0E0FC1258
:1004A000014ED082D083E0FAEDD2E7CD33EC332495
:1004B00082FBE4C3CF33CFCE33CECD33CD33DBF3AA
:1004C0007B0775F00A846004F0A31B0AE5F0F0A333
:1004D0008FF0740AA4FFACF08EF0740AA42CFEAC6A
:1004E000F050010C8DF0740AA42CFDE435F0F0A35B
:0504F000DBDE740722B1
:1004F5003F8000004120000042C80000447A00000F
:10050500461C400047C35000497424004B18968090
:100515004CBEBC205A0E1BCA6753C21C749DC5AE87
:10052500FB60065407601C2323120553EB54386007
:100535000912053F12054E12014EECF8EDF9EEFADF
:10054500EFCB22EB12054E80F1543803241C9004A6
:10055500F5FE93FC0EEE93FD0EEE930ECE93FF2269
:10221000022076E493A3F8E493A34003F68001F24E
:1022200008DFF48029E493A3F85407240CC8C333CF
:10223000C4540F4420C8834004F456800146F6DF9E
:10224000E4800B0102040810204080901AD3E47E41
:10225000019360BCA3FF543F30E509541FFEE49393
:10226000A360010ECF54C025E060A840B8E493A35A
:10227000FAE493A3F8E493A3C8C582C8CAC583CA85
:10228000F0A3C8C582C8CAC583CADFE9DEE780BE3D
:011CE60000FD
:10056500E709F608DFFA8046E709F208DFFA803E78
:1005750088828C83E709F0A3DFFA8032E309F60865
:10058500DFFA8078E309F208DFFA807088828C83CD
:10059500E309F0A3DFFA806489828A83E0A3F60881
:1005A500DFFA805889828A83E0A3F208DFFA804C5B
:1005B50080D280FA80C680D4806980F28033801032
:1005C50080A680EA809A80A880DA80E280CA80339B
:1005D50089828A83ECFAE493A3C8C582C8CCC58313
:1005E500CCF0A3C8C582C8CCC583CCDFE9DEE780E3
:1005F5000D89828A83E493A3F608DFF9ECFAA9F062
:10060500EDFB2289828A83ECFAE0A3C8C582C8CCB7
:10061500C583CCF0A3C8C582C8CCC583CCDFEADED0
:10062500E880DB89828A83E493A3F208DFF980CC32
:1006350088F0EF60010E4E60C388F0ED2402B4042B
:100645000050B9F582EB2402B4040050AF232345D2
:0606550082239005B5733D
:10065B00BB010689828A83E0225002E722BBFE029D
:09066B00E32289828A83E49322D0
:10067400BB010CE58229F582E5833AF583E022503B
:1006840006E92582F8E622BBFE06E92582F8E22285
:0D069400E58229F582E5833AF583E493229F
:1006A100BB010689828A83F0225002F722BBFE0138
:0206B100F32232
:1006B300F8BB010DE58229F582E5833AF583E8F07D
:1006C300225006E92582C8F622BBFE05E92582C829
:0206D300F22211
:1006D500BC000BBE0029EF8DF084FFADF022E4CC09
:1006E500F875F008EF2FFFEE33FEEC33FCEE9DECD2
:1006F500984005FCEE9DFE0FD5F0E9E4CEFD22ED18
:10070500F8F5F0EE8420D21CFEADF075F008EF2F61
:10071500FFED33FD4007985006D5F0F222C398FD52
:050725000FD5F0EA22EF
:10072A00C5F0F8A3E028F0C5F0F8E582158270025A
:06073A001583E038F022F7
:10074000A3F8E0C5F025F0F0E5821582700215836C
:06075000E0C838F0E822C9
:0E075600C3E49FFFE49EFEE49DFDE49CFC22B4
:0C076400ECF0A3EDF0A3EEF0A3EFF02208
:10077000F8E0FBA3A3E0F925F0F0E5821582700212
:070780001583E0FA38F022B6
:09078700EBF0A3EAF0A3E9F02273
:10079000D083D082F8E4937012740193700DA3A3F8
:1007A00093F8740193F5828883E47374029368600C
:0607B000EFA3A3A380DF0C
:0607B6008A838982E473CE
:10247800EFB40A07740D122483740A309811A899CE
:10248800B8130CC2983098FDA899C298B811F630C4
:0724980099FDC299F599229C
:0A2556003098FDAF99C2987E002274
:10252200100A0B122556BF0D027F0A02247890086A
:0425320067E0FF223D
:1007BC00EF4E6012EF60010EEDBB010B89828A8354
:1007CC00F0A3DFFCDEFA2289F05007F709DFFCA961
:0C07DC00F022BBFEFCF309DFFCA9F022B8
:00000001FF
