:03000000022232A7
:1022320043AF01787FE4F6D8FD75A00075812102D5
:02224200227FF9
:101F53002568687800434F42535F2573583A207CC5
:101F63000054005200202530327820007C0A003AC9
:101F7300000A456E7472616E646F20616C20656E39
:101F830076696F0A000A5465726D696E61646F2029
:101F9300584F520A002563000A496D7072696D69D2
:101FA300656E646F20526573756C7461646F0A00AB
:101FB3004C612074656D7065726174757261207314
:101FC3006F6E20252E326620677261646F73206303
:101FD300656C736975730A0048617920756E6120B9
:101FE30068756D656461642064656C20252E3266B6
:101FF3002025630A0041545330303D303030340DD6
:102003000041545330323D303030330D004154538E
:1020130030333D30303030303030303030303030AD
:102023003030330D0041542B4A4E0D00496E74720B
:102033006F64756365206C6F73207469656D706F71
:102043007320646520636164612073656E736F72CE
:102053003A200A0054203D200A0048203D200A006F
:102063000A436F6E6E65637465640A0D00000000B9
:032073000000006A
:101AD30041011404410137004501150000100818A5
:101AE30045003700001007174500320000100010B2
:101AF300450028000010031345002D0000110514B4
:101B0300450372000011021345013A000011011050
:101B1300440046001210064700020002100912306A
:101B2300394701050002100912303047035D0002F6
:101B3300120912303945014A0000110E0F45006A9F
:101B43000000110F1E4501450000100F1F45010F36
:101B53000000120F1D45014F0000111001460366DE
:101B6300000110100A0B45012C000011120346015D
:101B73003F00011012080B45005F00001119085FB8
:101B83000009001A102F0630393030ABCD000000A9
:101B9300000000000000000000123448656C6C6F08
:101BA3002145011B0000112031550377001010203F
:101BB30060ABCD0000000000000000000000001238
:101BC300345500BC0010102060ABCD0000000000B5
:101BD3000000000000000034124701200002102121
:101BE300003039450355000010243445038C0002AE
:101BF300101125450127000910146745003C000812
:101C0300101C894500B70010101515450089000800
:101C13001013834500E8000A10160746006400010C
:101C2300101909065800ED0013102700ABCD000072
:101C330000000000000000000000341260000145B5
:101C430000B100011019084100B6014100AE024184
:101C530000E70341011A044101310541036F0645C1
:101C6300004A00001117064500A900101017694526
:101C730001320000101B0B4500840000121B0941B8
:101C830001540B42036C12344900D44D794E6574F0
:101C9300776F726B4900A0FD12340038000000001A
:101CA30050007100112233445566778899AABBCC42
:101CB300DDEEFF48009811223344556677884A00C9
:101CC3008E4D7950617373776F726450004F38345F
:101CD30030344432303030303030303546434200D7
:031CE300000000FE
:10254200AE03AC05AD07AF04AB07900863EEF07FB6
:04255200010222C49C
:0924F700900849E0FF7B01E4FDBF
:10250000AE03AC05AD07AF04AB07900863EEF0E493
:04251000FF0222C4E0
:0E257C007BFF7A1F795390059BEFF0020FAEA4
:0B24D30090085CEBF0A3EAF0A3E9F036
:1024DE0012255690085FEFF090085C7401F0A3741B
:0824EE0008F0A3745FF07F0108
:0124F60022C3
:101CE700900598EBF0A3EAF0A3E9F0A3ECF0A3EDDD
:011CF700F0FC
:101CF800E49005A0F0A3F0A3F0A304F0E4A3F0A3FC
:101D0800F0A304F090059BE0FEA3E0FF9005A0E09F
:101D1800FCA3E0FDC39FEC9E4003021E07900598BC
:101D2800E0FBA3E0FAA3E0F98D828C8312067470BD
:101D3800489005A6E0FF90059DE0FBA3E0FAA3E02C
:101D4800F99005A4E0FCA3E0F5828C83EF1206B3BA
:101D58009005A67401F09005A2E475F00112074001
:101D6800AFF09005A4F0A3EFF09005A1E004F070A7
:101D7800939005A0E004F0808B900598E0FBA3E029
:101D8800FAA3E0F99005A0E475F00112074085F088
:101D980082F583120674FF90059DE0FBA3E0FAA389
:101DA800E0F99005A2E475F00112074085F082F58C
:101DB80083EF1206B39005A6E004F0E0FF3395E048
:101DC800FEEFF44E6003021D0C90059DE0FBA3E0BE
:101DD800FAA3E0F99005A4E0FCA3E0F5828C83EF78
:101DE8001206B39005A67401F09005A2E475F001FF
:101DF800120740AFF09005A4F0A3EFF0021D0C907D
:101E080005A6E0FF90059DE0FBA3E0FAA3E0F990AA
:101E180005A4E0FCA3E0F5828C83EF1206B39005DD
:061E2800A2E0FEA3E0FFB2
:011E2E002291
:1007E8009007CBECF0A3EDF09007C8EBF0A3EAF08C
:0307F800A3E9F082
:1007FB009007F3EBF0A3EAF0A3E9F0A3E4F0A3F086
:10080B00A3F0F9A3C9F0A3F0A3E9F0E4A3F0A3F0DC
:10081B00A3F0A304F0E4A3F0A3F0A3F0FE7F23FC6A
:10082B00FD7B017A0779D01207BC9007F97401F0B0
:10083B00A37407F0A374E8F09007CBE0FEA3E0FFEE
:10084B00C39007D3E09F9007D2E09E4003020CD2E7
:10085B009007F3E0FBA3E0FAA3E0F912065B600359
:10086B00020A46900800E004F0E06402600302090B
:10087B005A9007FEE0FEA3E0FF64014E70030209ED
:10088B005AEF24DFFFE43EFED3EF94FEEE940050CC
:10089B0012E024DFF09007FEE03400F0E490080053
:1008AB00F080069008007401F09007FEA3E0FF9023
:1008BB0007F9E0FBA3E0FAA3E0F9EF1206A190071A
:1008CB00D1E004F070069007D0E004F09007F2E05E
:1008DB00FF24E8F9E43407FA7B01C003C002C0012E
:1008EB009007F9E0FBA3E0FAA3E0F9D082D083D024
:1008FB00E06B7008E965827003EA658370299007E5
:10090B00FCE0FCA3E0FDEF3395E0FEEF25E0FFEE0E
:10091B0033FE74D42FF58274073EF583ECF0A3ED10
:10092B00F09007F2E004F09007F3E0F9A3E0FAA3EC
:10093B00E09007F9C9F0A3EAF0A3E9F09007D2E041
:10094B00FFA3E09007FCCFF0A3EFF0A3E480689047
:10095B000800E0FF640F7065EF24D0FFE4339007CD
:10096B00FEF0A3EFF09007F6E0FBA3E0FAA3E0F9AB
:10097B00A3EBF0A3EAF0A3E9F0EF1206A19007D1E5
:10098B00E004F070069007D0E004F09007F3E0F974
:10099B00A3E0FAA3E09007F9C9F0A3EAF0A3E9F00A
:1009AB009007D2E0FFA3E09007FCCFF0A3EFF0E4B9
:1009BB00900800F09007FEF0A304F080689007F217
:1009CB00E024E8F9E43407FA7B01C003C002C0015C
:1009DB009007F9E0FBA3E0FAA3E0F9D082D083D033
:1009EB00E06B7008E965827003EA658370379007E6
:1009FB00FEE07004A3E06401702B900800E0B401EA
:100A0B00249007F3E0F9A3E0FAA3E09007F9C9F00B
:100A1B00A3EAF0A3E9F09007D2E0FFA3E09007FC74
:100A2B00CFF0A3EFF09007F3E0F9A3E0FAA3E0A374
:100A3B00C9F0A3EAF0A3E9F0020CB7900800E0704C
:100A4B0003020BE2C394034003020B709007FEE01A
:100A5B00FCA3E0FD64014C6003020AF6A3E0B402C0
:100A6B000E9007FFE024DFF09007FEE03400F090DB
:100A7B0007FEA3E0FF9007F9E0FBA3E0FAA3E0F980
:100A8B00EF1206A19007D1E004F070069007D0E0BA
:100A9B0004F09007F6E0FBA3E0FAA3E0F9C003C073
:100AAB0002C001A3E0FBA3E0FAA3E0F9D082D0835C
:100ABB00D0E06B7008E965827003EA65836003021E
:100ACB000B9D9007F2E024E8F9E43407FA9007F95C
:100ADB007401F0A3EAF0A3E9F09007D2E0FFA3E0E2
:100AEB009007FCCFF0A3EFF0020BC49007F9E0FBEB
:100AFB00A3E0FAA3E0F9ED1206A19007D1E004F010
:100B0B0070069007D0E004F09007F2E0FF24E8F9BC
:100B1B00E43407FA7B01C003C002C0019007F9E07F
:100B2B00FBA3E0FAA3E0F9D082D083D0E06B70088E
:100B3B00E965827003EA658370299007FCE0FCA3EA
:100B4B00E0FDEF3395E0FEEF25E0FFEE33FE74D4CE
:100B5B002FF58274073EF583ECF0A3EDF09007F2CE
:100B6B00E004F0802D900800E024D0FFE4339007E0
:100B7B00FEF0A3EFF09007F9E0FBA3E0FAA3E0F996
:100B8B00EF1206A19007D1E004F070069007D0E0B9
:100B9B0004F09007F6E0F9A3E0FAA3E0A3C9F0A3F1
:100BAB00EAF0A3E9F09007D3E024FFFE9007D2E030
:100BBB0034FF9007FCF0A3CEF0E4900800F0900710
:100BCB00FEF0A37402F09007D1E004F070069007DA
:100BDB00D0E004F0020CB79007FFE004F070069031
:100BEB0007FEE004F09007FEE07004A3E064D06021
:100BFB0003020CA99007F9E0FBA3E0FAA3E0F97458
:100C0B00D01206A19007D1E004F070069007D0E057
:100C1B0004F09007F2E0FF24E8F9E43407FA7B01D3
:100C2B00C003C002C0019007F9E0FBA3E0FAA3E008
:100C3B00F9D082D083D0E06B7008E965827003EA4B
:100C4B00658370299007FCE0FCA3E0FDEF3395E092
:100C5B00FEEF25E0FFEE33FE74D42FF58274073ED2
:100C6B00F583ECF0A3EDF09007F2E004F09007F2BF
:100C7B00E024E8F9E43407FA9007F97401F0A3EAE9
:100C8B00F0A3E9F09007D3E02401FE9007D2E03403
:100C9B00009007FCF0A3CEF0A3E4F0A304F09007C0
:100CAB00D1E004F070069007D0E004F09007F4E474
:100CBB0075F00112072A9007D3E004F07006900735
:100CCB00D2E004F0020843900800E004F0E0640274
:100CDB006003020D9A9007FEE0FEA3E0FF24DFFD08
:100CEB00E43EFCD3ED94FEEC9400500EE024DFF0D8
:100CFB009007FEE03400F0020DB19007F9E0FBA382
:100D0B00E0FAA3E0F9EF1206A19007D1E004F0702E
:100D1B00069007D0E004F09007F2E0FF24E8F9E436
:100D2B003407FA7B01C003C002C0019007F9E0FB56
:100D3B00A3E0FAA3E0F9D082D083D0E06B7008E98E
:100D4B0065827003EA658370299007FCE0FCA3E0E1
:100D5B00FDEF3395E0FEEF25E0FFEE33FE74D42F6D
:100D6B00F58274073EF583ECF0A3EDF09007F2E00B
:100D7B0004F09007F6E0F9A3E0FAA3E0A3C9F0A30F
:100D8B00EAF0A3E9F09007FEE4F0A304F0801790DB
:100D9B000800E0FFD39402400DEF24D0FEE4339023
:100DAB0007FEF0A3CEF09007FEA3E0FF9007F9E05B
:100DBB00FBA3E0FAA3E0F9EF1206A19007D1E00440
:100DCB00F070069007D0E004F09007F2E0FF24E803
:100DDB00F9E43407FA7B01C003C002C0019007F9A4
:100DEB00E0FBA3E0FAA3E0F9D082D083D0E06B70F4
:100DFB0008E965827003EA658370239007FCE0FCC9
:100E0B00A3E0FDEF3395E0FEEF25E0FFEE33FE743C
:100E1B00D42FF58274073EF583ECF0A3EDF0E4904C
:100E2B0007D2F0A3F09007F2F09007D1E02401FF76
:100E3B009007D0E03400FE900801E0FCA3E0FDC376
:100E4B009FEE6480F8EC6480984003020F3AED4CFF
:100E5B0070219007CDA3E0FAA3E0F5828A83E4FF2B
:100E6B001207BA900802E004F070BE900801E0048B
:100E7B00F080B69007F2E0FDFF3395E0FEEF25E042
:100E8B00FFEE33FE74D42FF58274073EF583E0FE3C
:100E9B00A3E0FF9007D2E0FAA3E0FBEFB5033EEE31
:100EAB00B5023AEDFF3395E0FE74E82FF582740737
:100EBB003EF583E0FF60269007CDA3E0FAA3E0F5B3
:100ECB00828A831207BA9007F2E004F0900802E0DE
:0D0EDB0004F07006900801E004F0020E34EF
:100EE800E4900803F0900803E06003020E349007D2
:100EF800C8E0FBA3E0FAA3E0F99007D2E475F0019B
:100F080012074085F082F583120674900803F0E01A
:100F1800FF60D29007CDA3E0FAA3E0F5828A83129E
:100F280007BA900802E004F070BB900801E004F0F2
:020F380080B384
:080F3A00900801E0FEA3E0FFB6
:010F4200228C
:10164200900841EBF0A3EAF0A3E9F0A3ECF0A3EDDC
:01165200F0A7
:10165300E4900849F0FF7B017A087949C0029008B9
:1016630046A3E0FAA3E0F5828A83D0021207BAEF19
:101673007011900849E0FF7B017D011225007EFF78
:091683007FFE22900849E070533B
:10168C009000E3E0FE3395E090084AF0A3CEF09092
:10169C0000DDE4F0A37405F0E4A3F0A3F0A304F0E0
:1016AC00E4A3F0A3F0A3F0FE7F05FCFD900841E05D
:1016BC00FBA3E0FAA3E0F91207BC90084AE0700221
:1016CC00A3E0700C900849E0FFE4FB7D0102187C5C
:0316DC0002187F72
:1016DF00900849E070030218529000E1E064016045
:1016EF0003021852C39000E0E094029000DFE06420
:1016FF0080948040739000E2E0706D900841E0FBB1
:10170F00A3E0FAA3E0F9900001120674FD7C001229
:10171F00065BFEE42DFFEC3EFE9000DEE02FF09026
:10172F0000DDE03EF0900844E0FEA3E0FFD3900020
:10173F00DEE09F9000DDE09E40030217E09000DEA8
:10174F00E024FBFF9000DDE034FFFE7C007D009085
:10175F000841E0FBA3E0FAA3E02405F9E43AFA120A
:10176F0007BC9000E27401F09000E3E07073900802
:10177F0049E0FFC394D0500CEF149000E3F0A37432
:10178F0001F08055900849E0B4D00A149000E3F0BE
:10179F00E4A3F08044900849E0FF64D16004EFB403
:1017AF00D202802D900849E0FFC394E0500CE490E2
:1017BF0000E3F0EF2430A3F0801F900849E0FFC34F
:1017CF0094FF500DEF24209000E3F0A37402F080FB
:1017DF00081224F77EFF7FFF229000E3E0706680FF
:1017EF00489000DDE0FEA3E0FFA3E0FCA3E0FDC313
:1017FF009FEE6480F8EC6480985018900849E0FFE1
:10180F00900841E0FBA3E0FAA3E0F98D828C83EF0F
:10181F001206B39000E0E004F070069000DFE004E1
:10182F00F09000E3E014F0701CA3E0FF3395E0FEAE
:10183F009000E0E02FF09000DFE03EF0E49000E455
:10184F00F08002802B9000DDE0FEA3E0FFC390004C
:10185F00E0E09FEE6480F89000DFE0648098401431
:10186F00E49000E1F0900849E0FFE4FBFD12250051
:0F187F00E4FEFF221224F79000DDE0FEA3E0FF5D
:01188E002237
:1022C400900861EDF0A3EBF06023EF7BFF60067AEA
:1022D4001F796480047A1F796690059BEBF0A3EA6A
:1022E400F0A3E9F07BFF7A1F7958120FAE900862D1
:1022F400E06004A3E070117BFF7A1F7968900861A5
:10230400E090059BF0120FAE900863E07BFF60063F
:0E2314007A1F796F80047A1F7972120FAE2241
:0B00030090084CEBF0A3EAF0A3E9F03A
:10000E00900853EBF0A3EAF0A3E9F090085174FFC7
:10001E00F5F0120740FED3E5F09400EE9400401682
:10002E00900853E0FBA3E475F001120740A9F0FA23
:10003E00ED1206A180D590084CE0FBA3E0FAA3E0F8
:01004E00F9B8
:01004F00228E
:1013C600900804EBF0A3EAF0A3E9F0A3ECF0A3ED98
:0113D600F026
:1013D700780E7C087D017BFF7A2079707E007F0381
:1013E700120635900809E0F9A3E0FAA3E090081186
:1013F700C9F0A3EAF0A3E9F0900811E0FBA3E0FA33
:10140700A3E0F990080CE0FEA3E0FFE92FF9EA3E1C
:10141700FA900814EBF0A3EAF0A3E9F0900804E0CF
:10142700F9A3E0FAA3E0900817C9F0A3EAF0A3E94B
:10143700F0900817E0FBA3E0FAA3E0F9900807E0B3
:10144700FEA3E0FFE92FF9EA3EFA90081AEBF0A3B2
:10145700EAF0A3E9F0900804E0FBA3E0FAA3E0F9BF
:1014670090081DEBF0A3EAF0A3E9F02401F9E43AB0
:10147700FAA3EBF0A3EAF0A3E9F07E01900804A336
:10148700E0FAA3E04A4B600E900809E0FBA3E0FAFC
:10149700A3E04A4B700A9008107401F0FB02163D56
:1014A70090080CE07002A3E070030215C990081AB7
:1014B700E0FBA3E0FAA3E0F9C003C002C001900873
:1014C70020A3E0FAA3E0F9C3D082D083D0E0E99566
:1014D70082EA9583400A900810E04402F00215C999
:1014E700900811E0FBA3E475F001120740A9F0FA98
:1014F70012065BFF705990081DE0FBA3E0FAA3E01A
:10150700F9EE1206A1900820E0FAA3E475F00112A3
:101517000740A9F090081DCAF0A3EAF0A3E9F07EFE
:1015270001900814E0FBA3E0FAA3E0F9C003C002AE
:10153700C001900811A3E0FAA3E0F9C3D082D083D9
:10154700D0E0E99582EA958350030214B480739042
:101557000820E0FBA3E475F001120740A9F0FAEFB9
:101567001206A10E900814E0FBA3E0FAA3E0F9C06D
:1015770003C002C001900811A3E0FAA3E0F9C3D0A9
:1015870082D083D0E0E99582EA95835035EEF46006
:10159700030214B490081DE0FBA3E0FAA3E0F9EE00
:1015A7001206A1900820E0FAA3E475F001120740A3
:1015B700A9F090081DCAF0A3EAF0A3E9F07E0102A2
:1015C70014B490081AE0FBA3E0FAA3E0F9C003C043
:1015D70002C001A3A3E0FAA3E0F9C3D082D083D06D
:1015E700E0E99582EA9583401D900810E04402F0F7
:1015F70090081AA3E0FAA3E0F9900820EBF0A3EA19
:10160700F0A3E9F0800F90081DE0FBA3E0FAA3E048
:10161700F9EE1206A1900817A3E0FAA3E0AE02FFC5
:10162700900820A3E0FAA3E0C39FFFEA9E90080E6C
:0A163700F0A3EFF07B017A08790EB2
:011641002286
:10188F00900823EBF0A3EAF0A3E9F0A3ECF0A3EDAB
:01189F00F058
:1018A000782D7C087D017BFF7A2079737E007F0391
:1018B000120635900828E0F9A3E0FAA3E09008307A
:1018C000C9F0A3EAF0A3E9F0900830E0FBA3E0FA46
:1018D000A3E0F990082BE0FEA3E0FFE92FF9EA3E30
:1018E000FA900833EBF0A3EAF0A3E9F0900823E0C4
:1018F000F9A3E0FAA3E0900836C9F0A3EAF0A3E95F
:10190000F0900836E0FBA3E0FAA3E0F9900826E0A7
:10191000FCA3E0FDE92DF9EA3CFA900839EBF0A3CD
:10192000EAF0A3E9F0900823E0F9A3E0FAA3E0903D
:10193000083CC9F0A3EAF0A3E9F0900823E0FBA378
:10194000A3E04A4B600E900828E0FBA3E0FAA3E076
:101950004A4B700A90082F7401F0FB021ACEEF4E2A
:101960007003021AAD900830E0FBA3E475F0011299
:101970000740A9F0FA12065B900840F0E0700A9068
:10198000082FE04404F0021AAD900840E014F090F3
:101990000830A3E0FAA3E0AE02FFA3A3E0FAA3E0BD
:1019A000C39FFFEA9EAD07FC900840E0D39DE49CF6
:1019B000400E90082FE04408F0AF05900840EFF08B
:1019C00090083CA3E0FAA3E0AE02FF900839A3E040
:1019D000FAA3E0C39FFDEA9EFC900840E0D39DE49B
:1019E0009C400E90082FE04402F0AF05900840EFB5
:1019F000F0900840E0FCEC6039900830E0FBA3E494
:101A000075F001120740A9F0FA12065B90083FF04A
:101A1000E0FE700790082FE04404F090083CE0FBE3
:101A2000A3E475F001120740A9F0FAEE1206A11C1A
:101A300080C4900833E0FBA3E0FAA3E0F9C003C040
:101A400002C001900830A3E0FAA3E0F9C3D082D02D
:101A500083D0E0E99582EA95835052900840E06493
:101A6000FE7003021965900839E0FBA3E0FAA3E0D9
:101A7000F9C003C002C001A3A3E0FAA3E0F9C3D0F8
:101A800082D083D0E0E99582EA9583400990082FBF
:101A9000E04402F0801790083CE0FBA3E475F001FD
:101AA000120740A9F0FAE41206A10219659008365F
:101AB000A3E0FAA3E0AE02FF90083CA3E0FAA3E0A3
:101AC000C39FFFEA9E90082DF0A3EFF07B017A08F8
:021AD000792D6E
:011AD20022F1
:10232200900598EBF0A3EAF0A3E9F0A3ECF0A3ED9B
:01233200F0BA
:10233300E4A3F0FDFCD390059CE09D90059BE09CFD
:102343004033900114E06D7001EC90059D601DE039
:10235300FF900598E0FBA3E0FAA3E0F98D828C835C
:10236300120674FEEF6E90059DF08002E0F00DBD45
:0A23730000010C80C090059DE0FF02
:01237D00223D
:10215900900391EBF0A3EAF0A3E9F0A3ECF0A3ED6F
:01216900F085
:10216A00E4FFFE900596F0A3F07BFF7A1F797412C4
:10217A000FAE900391E0FBA3E0FAA3E0F9A3E0FC21
:10218A00A3E0FD122322900391E0FBA3E0FAA3E06F
:10219A00F9900114E0F582758300EF1206B37BFF14
:1021AA007A1F7988120FAE900394E0FCA3E0FD90A9
:1021BA00059D7401F0A37403F0A37496F090039143
:1021CA00E0FBA3E0FAA3E0F9121CE7900596EEF013
:1021DA00A3EFF0E4FEFFD3900597E09F900596E009
:1021EA009E402674962FF58274033EF583E0FD9097
:1021FA00010CE0FBA3E0FAA3E0F98F828E83ED12D3
:10220A0006B30FBF00010E80CD7BFF7A1F7998902D
:10221A000137E090059BF0120FAE90010CE0FBA392
:08222A00E0FAA3E0F9020FAE97
:1024010090084674FFF0A37424F0A374D3F07B0109
:102411007A0579C87D007C02121642EF4E60E17B9D
:10242100FF7A1F799B120FAE7B017A0579C8020FE3
:01243100AEFC
:10256A0075A9A4E4F5A3F5A2F5A4F5A58FA675A10E
:02257A005322EA
:07259D0075EFAC75D80322B5
:10251400759852758780758921758DFAD28ED299F6
:07252400C2ACC2ABD2AF2232
:10252B00D2DC20DCFDE5DA540FFEADD97C00E42DC6
:06253B00FFEC3EFEC2DCD5
:012541002277
:09259400D287D285C283D28022D5
:10243200A2099283C2872086FD900139E5A0F0D2DD
:1024420087C2852084FD900138E5A0F0D285E0FEA8
:0A245200A3E07C002400FFEC3EFE36
:01245C00225D
:03005300022485FF
:10248500C0E0C083C082C0D090035CE004F0E0B43B
:102495000206C280D280E4F09000817401F0D0D0B1
:0724A500D082D083D0E032A9
:101E2F00900001E004F07006900000E004F09000D4
:101E3F0082E0FCA3E0FD900000E0FEA3E0FF1206AD
:101E4F00D5ED4C707BC209122432900856EEF0A3E8
:101E5F00EFF0FDAC06EC1202F97B007A6679D578CB
:101E6F00C612005D12033290006FEEF0A3EFF090F8
:101E7F00006FE0FCA3E0FDE41202F9E4FBFA79C87D
:101E8F00784212025790059B1207647BFF7A1F79E5
:101E9F00B3120FAE90006FE0FEA3E0FFC39419EEF4
:101EAF009400400A90085AE4F0A304F08012C3EFA4
:101EBF009419EE9400500990085AE4F0A37402F0BC
:101ECF00E4FFFE0FBF00010EEF64644E70F590004B
:101EDF00E5E0FCA3E0FD900000E0FEA3E0FF1206AA
:101EEF00D5ED4C705ED209122432900858EEF0A353
:101EFF00EFF0FDAC06EC1202F9E4FBFA79FE784242
:101F0F0012014EE4FBFA79C87842120257120332DB
:101F1F009000D2EEF0A3EFF09000D2E0FCA3E0FD32
:101F2F00E41202F9E4FBFA79C878421202579005DD
:101F3F009B12076490059F7425F07BFF7A1F79DB56
:031F4F00120FAEC0
:011F5200226C
:0423CF00E4FD7F4F5B
:0823D300900864EFF0A3EDF0A7
:1023DB00A37401F012258A900864E0B50707E49016
:1023EB000866F0800A900865E0B401031224AC90F3
:0523FB000866E070DF40
:0124000022B9
:10237E00900867EFF07BFF7A1F79F8120FAE1223E9
:10238E00CFE4FD7F4B1223D37BFF7A207904120F0B
:10239E00AE1223CFE4FD7F4B1223D37BFF7A20793D
:1023AE0010120FAE1223CFE4FD7F4B1223D37BFF0F
:1023BE007A207928120FAE1223CFE4FD7F4B022331
:0123CE00D33B
:10245D00E4FD7F551223D3E4FD7F3A1223D37D0192
:10246D007F2C1223D37F091224ACE4FD7F3D122370
:08247D00D37D017F030223D38C
:10207600E490035CF0900081F07F0112256A12253E
:102086009D122514122594A3E4F0A304F09000E514
:10209600E4F0A37405F07BFF7A20792F120FAE7B54
:1020A600FF7A207957120FAE7BFF7A20795D120FE7
:1020B600AEE4900364F0A3F07B017A0079647D06B8
:1020C600FC122159C3900365E09406900364E094E2
:1020D600005025122556900364E0FCA3E02455F534
:1020E6008274013CF583EFF0900365E004F070D450
:1020F600900364E004F080CCE4900364F0A3F07BEA
:10210600017A01793F7D06FC122159C3900365E0EF
:102116009406900364E094005025122556900364BB
:10212600E0FCA3E02455F58274013CF583EFF090C2
:102136000365E004F070D4900364E004F080CC7B87
:10214600FF7A207963120FAE900081E0B401F9E4C2
:03215600F080F521
:1000560002039EE86480F8E933E83360110460F037
:10006600ED33EC337009E8FCE9FDEAFEEBFF220410
:1000760060DED3EB9FEA9EE99DE8C2E78CF0C2F70B
:1000860095F0400CE8CCF8E9CDF9EACEFAEBCFFBD7
:1000960012036985D0F05804700320D5B3E80470C4
:1000A600075002B2D50203A892D5EC0460F7E4CC5F
:1000B600C0E0C398F8603B94186008400DD0E0FBA0
:1000C600020380E4FBFAC9FC8028E830E406E4C9B0
:1000D600FBE4CAFCE830E305E4C9CACBFCE85407F4
:1000E6006010F8C3E913F9EA13FAEB13FBEC13FCFF
:1000F600D8F130F52FC3E49CFCEF9BFFEE9AFEEDA2
:1001060099FDD0E0FBEF4E4D4C701222DB0302034B
:10011600A5EC2CFCEF33FFEE33FEED33FDED30E7BF
:10012600EB020380EF2BFFEE3AFEED39FDD0E0FB4C
:1001360050130BBB00030203A8ED13FDEE13FEEFF5
:0801460013FFEC13FC0203801F
:10014E00EC4D6011E8497017ED33EC3304600DE4AB
:10015E00FCFFFEFD22E933E8330470F802039E1221
:10016E00036958046009E4CC248150062850090222
:10017E0003A82840030203A5C0E0EB4A7044B980EF
:10018E0006D0E0FB020394EF4E701CBD8008EBFF1F
:10019E00EAFEE9FD80EBE98DF0A4FEE5F002023700
:1001AE00E9CDF9EAFEEBFFEF89F0A4FCE5F0CE898C
:1001BE00F0A42EFFE435F0CD89F0A42DFEE435F049
:1001CE008067EF4E7005BD80D780C3EF8BF0A4AC77
:1001DE00F0EE8BF0A42CFCE435F0F8EF8AF0A42CB2
:1001EE00E5F038FCE433CB8DF0A42CFCE5F03BF8C5
:1001FE00EE8AF0A42CFCE5F038F8E433CF89F0A4B5
:10020E002CFCE5F038CF3400CE89F0A42FFFE5F0BA
:10021E003EFEE433C98DF0A42EFEE5F039CD8AF012
:10022E00A42FFFE5F03EFEE43DFD33D0E0FB50078A
:10023E000BBB000F0203A8EC2CFCEF33FFEE33FEDA
:06024E00ED33FD02038008
:100254000203A8EC5D046005E85904700302039EE0
:10026400120369580460F6EC4860F2EC7004FDFE79
:10027400FF22C860DB2481C85009C398600250067D
:100284000203A59850CAF582E9294B4A7005AB824E
:1002940002039475F0007C1A7880C3EF9BEE9AED0C
:1002A40099400DC3EF9BFFEE9AFEED99FDE842F0F5
:1002B400DC23ACF0D0E0FFD0E0FED0E0FDAB822048
:1002C400E7101BEB60BAEC2CFCEF33FFEE33FEEDD2
:1002D40033FD020380E803F830E705C0F075F00051
:1002E400EF2FFFEE33FEED33FD40B830E7C280AAB6
:1002F40075F020800E75F010800575F0087D007E85
:10030400007F003392D530D503120756EC334010EA
:10031400EF33FFEE33FEED33FDEC33FCD5F0ED228D
:0E032400E5F0247EA2D513CC92E7CDCEFF22C9
:10033200EDD2E7CD33EC3392D524814006E4FFFEC3
:10034200FDFC22FCE4CFCECDCC24E0501174FF8022
:10035200EDC3CC13CCCD13CDCE13CECF13CF0470BF
:07036200F030D5DE02075662
:100F4300E508249BF582E43405F583E00508229047
:100F5300059830070390059BE475F00112077002B2
:100F6300065B2000E97F2ED2008018EF540F2490F7
:100F7300D43440D4FF30040BEF24BFB41A00500321
:100F83002461FFE50960021509050CE50C700205F3
:100F93000B30070E900598E475F001120770EF020D
:100FA30006A10224AC7403D2078003E4C207F50848
:100FB300900598120787E4F509F50BF50CE5096030
:100FC300077F20120F8680F5750AFFC201C200C297
:100FD30002C203C205C206C208120F52FF700D30CF
:100FE30007057F00120F97AF0CAE0B22B4255FC22B
:100FF300D5C204120F52FF24D0B40A00501A75F060
:101003000A780930D50508B6FF0106C6A426F620DE
:10101300D5047002D20380D924CFB41A00EF500450
:10102300C2E5D204021289D20180C6D20080C0D2A6
:101033000280BCD2D580BAD20580B47F20120F863D
:101043002002077401B5090040F1120F43FF120F8C
:1010530086020FC0D208D2068095120F43FB120FEF
:1010630043FA120F43F94A4B700679877A137BFFD1
:1010730020022EE509602A7E008E82758300120607
:101083007460060EEE650A70F0C2D5EBC0E0EAC0EC
:10109300E0E9C0E0EE1212EAD0E0F9D0E0FAD0E0E5
:1010A300FB12065BFF60AAEBC0E0EAC0E0E9C0E028
:1010B300120F86D0E02401F9D0E03400FAD0E0FB2F
:1010C300E50A0460DCD50AD98087D20280A2121215
:1010D300CC60F7E50A7001041203B3A90A600DE5B9
:1010E3000A600914F50A121374EF60F3EA30E70299
:1010F300F404C3995079EAF4250A0430E701E404BF
:10110300F50A800D1212CC60C1EA050A250A120302
:10111300B3EA9005C7F030E701E4250A04D50A04D1
:10112300200501141212EAE4C0E01213749005C7FB
:10113300E0601320E70714F0120F6E802204F0D052
:10114300E014C0E07F00120F6EE50A6007120F651E
:10115300150A800B300503120F65D0E0020FC0D0D3
:10116300E00480C41212CC609EE50A041203B3901B
:1011730005C7EAF0E50A20050260010424041212FF
:01118300EA81
:1011840074FF04C0E0121374120F6EE50A20050206
:101194006003120F65D0E0B50AE87F45120F78901E
:1011A40005C7E07F2B30E7047F2DF404C0E0120F65
:1011B40086D0E075F00A84C0F0120F6FD0E0120FF1
:1011C4006F020FC0791080027908C206C208800835
:1011D400D2D5790A8004790AC2D5E50A047002F5E9
:1011E4000AE4FAFDFEFF120F43FC7B0820011312F0
:1011F4000F43FD7B1030000A120F43FE120F43FF12
:101204007B20EC3382D592D55013C3E43000069F83
:10121400FFE49EFEE42001039DFDE49CFCE4CBF886
:10122400C201EC700CCFCECDCCE824F8F870F3807A
:1012340017C3EF33FFEE33FEED33FDEC33FCEB333A
:10124400FB994002FB0FD8E9EB300105F8D0E0C46C
:1012540048B201C0E00AEC4D4E4F78207B0070C2CA
:10126400EAB50A0040BCC0E01212ECD0F0D0E02095
:101274000104C4C0E0C4B201C0F0120F6FD0F0D5B5
:10128400F0EB020FC0120790105D5311C858102ED6
:101294004C102A4211CC4F11D44411D44910434369
:1012A40011DA5511074611674510D14713A750109D
:1012B400322D10362E10592B103A2310572013902C
:1012C4002A0FF24800001051E50AB4FF03750A061C
:1012D400120F43FC120F43FD120F43FE120F43FF84
:1012E4009005C00203F0790AA2D520031430050941
:1012F400B910020404B9080104A2D5200602500161
:10130400042002689202B509005034C0E07F203006
:1013140003197F30A20272067205500F121343C2E2
:1013240002C206C205C2087F30800F300503E9C03F
:10133400E0120F86300503D0E0F9D0E0B509CC30D7
:1013440005177F30B9100C120F867F583004077FC1
:10135400788003B90803120F863002057F2D020F2F
:10136400867F202008F87F2B2006F322920280CF6C
:101374007F00B40700500B24C0F582E43405F583E4
:10138400E0FF22286E756C6C2900D201120F4330E5
:1013940001F8C201780930D50108F6020FF22D5088
:1013A400434958120F432403B405004001E4901349
:1013B400A293120F77743A120F77D20375090402BD
:0213C40011C84E
:10036900E9D2E7C933E833F892D5EDD2E7CD33ECDA
:0703790033FC5002B2D52253
:10038000EC30E7100FBF000C0EBE00080DBD0004DE
:100390000BEB6014A2D5EB13FCED92E7FD2274FF8A
:1003A000FCFDFEFF22E480F8A2D574FF13FC7D80E3
:0303B000E480EFF7
:1003B300F920E73624F950037907E4F42402FBE536
:1003C30082158270021583DBF6E024FB501BE96083
:1003D30014E4F0E582158270021583E004F0B40A98
:0D03E30008E4F0D9EE7401F00A22C2D52220
:1003F000ED33EC3392D5FA602AB4FF33EDC2E77BDC
:10040000FF60067A047915E4227A04791E20D50467
:100410007A047919224E614E002B494E46002D492F
:100420004E4600E47A08F0A3DAFC7B00740722C091
:1004300083C082ECC0E0EDC0E0EEC0E0EFC0E0EAD7
:1004400075F010A4CAABF075F04DA42BFBE435F0A9
:10045000FCEA2410FAEB34C5FBEC34D9FCEDC2E71E
:10046000FF75F056A4F42411C5F0F434C58FF0A440
:100470002AE5F03BE43CF020E714120525D0E0FF2C
:10048000D0E0FED0E0FDD0E0FC1202578014F4046E
:10049000120525D0E0FFD0E0FED0E0FDD0E0FC1258
:1004A000014ED082D083E0FAEDD2E7CD33EC332495
:1004B00082FBE4C3CF33CFCE33CECD33CD33DBF3AA
:1004C0007B0775F00A846004F0A31B0AE5F0F0A333
:1004D0008FF0740AA4FFACF08EF0740AA42CFEAC6A
:1004E000F050010C8DF0740AA42CFDE435F0F0A35B
:0504F000DBDE740722B1
:1004F5003F8000004120000042C80000447A00000F
:10050500461C400047C35000497424004B18968090
:100515004CBEBC205A0E1BCA6753C21C749DC5AE87
:10052500FB60065407601C2323120553EB54386007
:100535000912053F12054E12014EECF8EDF9EEFADF
:10054500EFCB22EB12054E80F1543803241C9004A6
:10055500F5FE93FC0EEE93FD0EEE930ECE93FF2269
:10224400022076E493A3F8E493A34003F68001F21A
:1022540008DFF48029E493A3F85407240CC8C3339B
:10226400C4540F4420C8834004F456800146F6DF6A
:10227400E4800B0102040810204080901AD3E47E0D
:10228400019360BCA3FF543F30E509541FFEE4935F
:10229400A360010ECF54C025E060A840B8E493A326
:1022A400FAE493A3F8E493A3C8C582C8CAC583CA51
:1022B400F0A3C8C582C8CAC583CADFE9DEE780BE09
:011CE60000FD
:10056500E709F608DFFA8046E709F208DFFA803E78
:1005750088828C83E709F0A3DFFA8032E309F60865
:10058500DFFA8078E309F208DFFA807088828C83CD
:10059500E309F0A3DFFA806489828A83E0A3F60881
:1005A500DFFA805889828A83E0A3F208DFFA804C5B
:1005B50080D280FA80C680D4806980F28033801032
:1005C50080A680EA809A80A880DA80E280CA80339B
:1005D50089828A83ECFAE493A3C8C582C8CCC58313
:1005E500CCF0A3C8C582C8CCC583CCDFE9DEE780E3
:1005F5000D89828A83E493A3F608DFF9ECFAA9F062
:10060500EDFB2289828A83ECFAE0A3C8C582C8CCB7
:10061500C583CCF0A3C8C582C8CCC583CCDFEADED0
:10062500E880DB89828A83E493A3F208DFF980CC32
:1006350088F0EF60010E4E60C388F0ED2402B4042B
:100645000050B9F582EB2402B4040050AF232345D2
:0606550082239005B5733D
:10065B00BB010689828A83E0225002E722BBFE029D
:09066B00E32289828A83E49322D0
:10067400BB010CE58229F582E5833AF583E022503B
:1006840006E92582F8E622BBFE06E92582F8E22285
:0D069400E58229F582E5833AF583E493229F
:1006A100BB010689828A83F0225002F722BBFE0138
:0206B100F32232
:1006B300F8BB010DE58229F582E5833AF583E8F07D
:1006C300225006E92582C8F622BBFE05E92582C829
:0206D300F22211
:1006D500BC000BBE0029EF8DF084FFADF022E4CC09
:1006E500F875F008EF2FFFEE33FEEC33FCEE9DECD2
:1006F500984005FCEE9DFE0FD5F0E9E4CEFD22ED18
:10070500F8F5F0EE8420D21CFEADF075F008EF2F61
:10071500FFED33FD4007985006D5F0F222C398FD52
:050725000FD5F0EA22EF
:10072A00C5F0F8A3E028F0C5F0F8E582158270025A
:06073A001583E038F022F7
:10074000A3F8E0C5F025F0F0E5821582700215836C
:06075000E0C838F0E822C9
:0E075600C3E49FFFE49EFEE49DFDE49CFC22B4
:0C076400ECF0A3EDF0A3EEF0A3EFF02208
:10077000F8E0FBA3A3E0F925F0F0E5821582700212
:070780001583E0FA38F022B6
:09078700EBF0A3EAF0A3E9F02273
:10079000D083D082F8E4937012740193700DA3A3F8
:1007A00093F8740193F5828883E47374029368600C
:0607B000EFA3A3A380DF0C
:0607B6008A838982E473CE
:1024AC00EFB40A07740D1224B7740A309811A89966
:1024BC00B8130CC2983098FDA899C298B811F63090
:0724CC0099FDC299F5992268
:0A258A003098FDAF99C2987E002240
:10255600100A0B12258ABF0D027F0A0224AC9008CE
:0425660068E0FF2208
:1007BC00EF4E6012EF60010EEDBB010B89828A8354
:1007CC00F0A3DFFCDEFA2289F05007F709DFFCA961
:0C07DC00F022BBFEFCF309DFFCA9F022B8
:00000001FF
