:030000000215B72F
:1015B70043AF01787FE4F6D8FD75A000758121025D
:0215C700160408
:10150B0020256320007C0A003A004C612074656D35
:10151B00706572617475726120736F6E20252E3247
:10152B006620677261646F732063656C7369757392
:10153B000A0048617920756E612068756D6564617C
:10154B00642064656C20252E32662025630A0041D9
:10155B00545330303D303030340D00415453303221
:10156B003D303030330D0041545330333D3030304B
:10157B00303030303030303030303030330D00419F
:10158B00542B4A4E0D002563000A000A4552524F58
:10159B00520A004259544553203D2025640A000A43
:0C15AB00436F6E6E65637465640A0D008A
:100D91004101030441012F0045010400001008181E
:100DA1004500370000100717450032000010001001
:100DB100450028000010031345002D000011051403
:100DC10045056900001102134501320000110110AF
:100DD10044004E00121006470002000210091230B2
:100DE100394700F70002100912303047055400025C
:100DF10012091230394503420000110E0F450062FD
:100E01000000110F1E45033D0000100F1F4500FE9D
:100E11000000120F1D450347000011100146055D3A
:100E2100000110100A0B45012400001112034603B2
:100E31003700011012080B45005700001119085F17
:100E41000009001A102F0630393030ABCD000000F8
:100E5100000000000000000000123448656C6C6F57
:100E61002145010A000011203155056E00101020A6
:100E710060ABCD0000000000000000000000001287
:100E8100345500AC0010102060ABCD000000000014
:100E910000000000000000341247010F0002102181
:100EA10000303945054C0000102434470583000209
:100EB10010112512344E011600091014674D794E98
:100EC1006574776F726B4E003C0008101C89FD122F
:100ED100340038000000005500970010101515006F
:100EE100112233445566778899AABBCCDDEEFF4DBC
:100EF100007100081013831122334455667788501E
:100F010000CF000B1016074D7950617373776F7224
:100F1100646446005C0001101909065800DF0013E3
:100F2100102700ABCD000000000000000000000011
:100F3100003412600001410096014100930241001A
:100F4100CE03410109044101290541056806450017
:100F510052000011170655007E0010101769383431
:100F61003034443230303030303030354643450152
:100F71002A0000101B0B45006C0000121B094200E7
:030F81000000006D
:1018BF00AE03AC05AD07AF04AB0790059DEEF07F0F
:0418CF0001021736C5
:09185D00900597E0FF7B01E4FD1A
:10186600AE03AC05AD07AF04AB0790059DEEF0E403
:04187600FF02173620
:0B183D009007D4EBF0A3EAF0A3E9F061
:101848001218E59007D4E0FBA3E0FAA3E0F9EF1241
:0418580005AB7F035A
:01185C002269
:10112F00900794EBF0A3EAF0A3E9F0A3ECF0A3EDA2
:01113F00F0BF
:10114000E490079CF0A3F0A3F0A304F0E4A3F0A3C1
:10115000F0A304F0900797E0FEA3E0FF90079CE067
:10116000FCA3E0FDC39FEC9E400302124F90079446
:10117000E0FBA3E0FAA3E0F98D828C8312057E7078
:10118000489007A2E0FF900799E0FBA3E0FAA3E0F4
:10119000F99007A0E0FCA3E0F5828C83EF1205BD77
:1011A0009007A27401F090079EE475F001120634D6
:1011B000AFF09007A0F0A3EFF090079DE004F0706F
:1011C0009390079CE004F0808B900794E0FBA3E0F1
:1011D000FAA3E0F990079CE475F00112063485F05B
:1011E00082F58312057EFF900799E0FBA3E0FAA346
:1011F000E0F990079EE475F00112063485F082F55F
:1012000083EF1205BD9007A2E004F0E0FF3395E004
:10121000FEEFF44E6003021154900799E0FBA3E047
:10122000FAA3E0F99007A0E0FCA3E0F5828C83EF3D
:101230001205BD9007A27401F090079EE475F001BD
:10124000120634AFF09007A0F0A3EFF00211549013
:1012500007A2E0FF900799E0FBA3E0FAA3E0F99072
:1012600007A0E0FCA3E0F5828C83EF1205BD900798
:061270009EE0FEA3E0FF7A
:011276002255
:100B5900900591EBF0A3EAF0A3E9F0A3ECF0A3ED83
:010B6900F09B
:100B6A00E4900597F0FF900596E0A3F00FEF700E62
:100B7A00E0FF7B017D011218667EFF7FFE22900551
:040B8A0097E070532D
:100B8E009000CAE0FE3395E0900598F0A3CEF09069
:100B9E0000C4E4F0A37405F0E4A3F0A3F0A304F002
:100BAE00E4A3F0A3F0A3F0FE7F05FCFD900591E019
:100BBE00FBA3E0FAA3E0F91206AA900598E07002F2
:100BCE00A3E0700C900597E0FFE4FB7D01020D7E23
:030BDE00020D8184
:100BE100900597E07003020D549000C8E064016025
:100BF10003020D54C39000C7E094029000C6E06464
:100C010080948040739000C9E0706D900591E0FB85
:100C1100A3E0FAA3E0F990000112057EFD7C001229
:100C21000565FEE42DFFEC3EFE9000C5E02FF0903F
:100C310000C4E03EF0900594E0FEA3E0FFD39000F5
:100C4100C5E09F9000C4E09E4003020CE29000C505
:100C5100E024FBFF9000C4E034FFFE7C007D0090A7
:100C61000591E0FBA3E0FAA3E02405F9E43AFA12C6
:100C710006AA9000C97401F09000CAE07073900553
:100C810097E0FFC394D0500CEF149000CAF0A37406
:100C910001F08055900597E0B4D00A149000CAF095
:100CA100E4A3F08044900597E0FF64D16004EFB4C1
:100CB100D202802D900597E0FFC394E0500CE490A0
:100CC10000CAF0EF2430A3F0801F900597E0FFC326
:100CD10094FF500DEF24209000CAF0A37402F0801D
:100CE1000812185D7EFF7FFF229000CAE0706680C7
:100CF100489000C4E0FEA3E0FFA3E0FCA3E0FDC335
:100D01009FEE6480F8EC6480985018900597E0FF9E
:100D1100900591E0FBA3E0FAA3E0F98D828C83EFCB
:100D21001205BD9000C7E004F070069000C6E00413
:100D3100F09000CAE014F0701CA3E0FF3395E0FED0
:100D41009000C7E02FF09000C6E03EF0E49000CBA9
:100D5100F08002802B9000C4E0FEA3E0FFC390006E
:100D6100C7E09FEE6480F89000C6E064809840146C
:100D7100E49000C8F0900597E0FFE4FBFD121866CF
:0F0D8100E4FEFF2212185D9000C4E0FEA3E0FF25
:010D90002240
:1017360090059AEFF0EB6016600690059DE0700E3E
:101746007BFF7A15790B900797EDF012074190050C
:101756009DE07BFF60067A15791080047A1579136F
:041766001207412203
:0B0003009007C4EBF0A3EAF0A3E9F0C3
:10000E009007CBEBF0A3EAF0A3E9F09007C974FFD9
:10001E00F5F0120634FED3E5F09400EE940040168F
:10002E009007CBE0FBA3E475F001120634A9F0FAB9
:10003E00ED1205AB80D59007C4E0FBA3E0FAA3E078
:01004E00F9B8
:01004F00228E
:1018D30075A9A4E4F5A3F5A2F5A4F5A58FA675A1B2
:0218E30053228E
:0718F80075EFAC75D8032267
:10187A00759852758780758921758DFAD28ED2999D
:07188A00C2ACC2ABD2AF22D9
:10189100D2DC20DCFDE5DA540FFEADD97C00E42D6D
:0618A100FFEC3EFEC2DC7C
:0118A700221E
:0918EF00D287D285C283D2802287
:10179C00A2099283C2872086FD900131E5A0F0D288
:1017AC0087C2852084FD900130E5A0F0D285E0FE53
:0A17BC00A3E07C002400FFEC3EFED9
:0117C6002200
:030053000217EFA2
:1017EF00C0E0C083C082C0D0900553E004F0E0B4E5
:1017FF000206C280D280E4F09000697401F0D0D06C
:07180F00D082D083D0E0324B
:10127700900001E004F07006900000E004F0900098
:101287006AE0FCA3E0FD900000E0FEA3E0FF12058A
:10129700DFED4C707BC20912179C9007CEEEF0A3CE
:1012A700EFF0FDAC06EC1202F97B007A6679D5788F
:1012B700C612005D120332900067EEF0A3EFF090C4
:1012C7000067E0FCA3E0FDE41202F9E4FBFA79C849
:1012D70078421202579007971206587BFF7A1579C2
:1012E70015120741900067E0FEA3E0FFC39419EED3
:1012F7009400400A9007D2E4F0A304F08012C3EFF1
:101307009419EE940050099007D2E4F0A37402F008
:10131700E4FFFE0FBF00010EEF64644E70F590000E
:10132700CCE0FCA3E0FD900000E0FEA3E0FF120587
:10133700DFED4C705ED20912179C9007D0EEF0A338
:10134700EFF0FDAC06EC1202F9E4FBFA79FE784205
:1013570012014EE4FBFA79C878421202571203329F
:101367009000C2EEF0A3EFF09000C2E0FCA3E0FD16
:10137700E41202F9E4FBFA79C8784212025790079F
:101387009712065890079B7425F07BFF7A15793DD5
:03139700120741F9
:01139A002230
:04176A00E4FD7F4FCC
:08176E009007D7EFF0A3EDF0A6
:10177600A37401F01218E59007D7E0B50707E490C7
:1017860007D9F0800A9007D8E0B401031218169022
:0517960007D9E070DF3F
:01179B00222B
:1016A5009007DAEFF07BFF7A15795A120741121786
:1016B5006AE4FD7F4B12176E7BFF7A157966120778
:1016C5004112176AE4FD7F4B12176E7BFF7A15797D
:1016D5007212074112176AE4FD7F4B12176E7BFFEA
:1016E5007A15798A12074112176AE4FD7F4B0217B2
:0116F5006E86
:1017C700E4FD7F5512176EE4FD7F3A12176E7D0117
:1017D7007F2C12176E7F09121816E4FD7F3D121732
:0817E7006E7D017F0302176E05
:10164900900794EBF0A3EAF0A3E9F0A3ECF0A3ED83
:01165900F0A0
:10165A00E4A3F0FDFCD3900798E09D900797E09CE7
:10166A004033900103E06D7001EC900799601DE032
:10167A00FF900794E0FBA3E0FAA3E0F98D828C8344
:10168A0012057EFEEF6E900799F08002E0F00DBD24
:0A169A0000010C80C0900799E0FFEA
:0116A4002223
:04139B007B017C0056
:10139F0090058BEBF0A3EAF0A3E9F0A3ECF0A3ED3B
:0113AF00F04D
:1013B000E4900790F0A3F0A3F0A3F090058BE0FB7E
:1013C000A3E0FAA3E0F912164990058BE0FBA3E035
:1013D000FAA3E0F9900004EF1205BD90058EE0FC41
:1013E000A3E0FD9007997401F0A37405F0A3749035
:1013F000F012112F900792EEF0A3EFF07BFF7A1519
:10140000799190012FE0900797F0120741E490073F
:1014100090F0A3F0900792E0FEA3E0FF900790E029
:10142000FCA3E0FDC39FEC9E50287BFF7A157991C9
:1014300074902DF58274053CF583E0900797F012C7
:101440000741900791E004F070CA900790E004F023
:0B14500080C27BFF7A157994020741EF
:04145B007F067E008A
:08145F0090058BEEF0A3EFF005
:10146700E4A3F0A3F01218E5900596EFF07B017A5C
:101477000179377D007C02120B5990058FEEF0A39E
:10148700EFF04E60E090058FE0B4FF0EA3E0B4FFED
:10149700097BFF7A15799612074190058FE0FEA325
:1014A700E0FFD39400EE6480948040117BFF7A15AF
:1014B700799E900797EEF0A3EFF01207419005662B
:1014C700E4F0A304F090058FE0FEA3E0FF9005662B
:1014D700E0FCA3E0FDC39FEC9E50287BFF7A1579C3
:1014E7009174372DF58274013CF583E0900797F0EE
:1014F700120741900567E004F070CA900566E004A2
:03150700F080C2AF
:01150A0022BE
:0718A800E490055BF0A3F0E2
:1018AF00900069E0B40102E4F0900069E060FA2270
:100F850090058AEFF07A05794C7D0512139B1214B2
:100F95005B1218A87BFF7A1579941207417BFF7ABB
:100FA50015799412074190058AE0900061F07B0164
:100FB5007A00795C7D067C0012139F7F077E001204
:100FC500145FE490055BF0A3F07BFF7A157994122A
:100FD50007417BFF7A1579941207411218AF7B01FF
:100FE5007A0379377D067C0012139F12145B7BFF11
:100FF5007A1579941207417BFF7A15799412074186
:101005001218A87B017A0579837D077C0012139F4E
:1010150012145B7BFF7A1579941207417BFF7A15D1
:101025007994120741E490055BF0A3F07B017A0106
:1010350079167D0EFC12139F12145B7BFF7A1579CE
:10104500941207417BFF7A1579941207411218A86B
:101055007A00793C7D0E12139B12145B7BFF7A1587
:1010650079941207417BFF7A15799412074112187A
:10107500A87B017A0079977D157C0012139F1214C5
:101085005B7BFF7A1579941207417BFF7A1579947A
:10109500120741E490055BF0A3F07B017A007971BA
:1010A5007D0DFC12139F12145B7BFF7A1579941248
:1010B50007417BFF7A1579941207411218A87B0125
:1010C5007A0079CF7D107C0012139F12145B7BFF91
:1010D5007A1579941207417BFF7A157994120741A5
:1010E5001218A87B017A00797E7D157C0012139F6A
:1010F50012145B7BFF7A1579941207417BFF7A15F1
:1011050079941207411218A87B017A0179047D05AB
:101115007C0012139F12145B7BFF7A1579941207DA
:0A112500417BFF7A1579940207411F
:1016F600E4900553F0900069F07F051218D3121894
:10170600F812187A1218EFA3E4F0A304F09000CCB4
:10171600E4F0A37405F0A3E0FF120F857BFF7A15B2
:1017260079AA120741900069E0B401F9E4F080F566
:1000560002039EE86480F8E933E83360110460F037
:10006600ED33EC337009E8FCE9FDEAFEEBFF220410
:1000760060DED3EB9FEA9EE99DE8C2E78CF0C2F70B
:1000860095F0400CE8CCF8E9CDF9EACEFAEBCFFBD7
:1000960012036985D0F05804700320D5B3E80470C4
:1000A600075002B2D50203A892D5EC0460F7E4CC5F
:1000B600C0E0C398F8603B94186008400DD0E0FBA0
:1000C600020380E4FBFAC9FC8028E830E406E4C9B0
:1000D600FBE4CAFCE830E305E4C9CACBFCE85407F4
:1000E6006010F8C3E913F9EA13FAEB13FBEC13FCFF
:1000F600D8F130F52FC3E49CFCEF9BFFEE9AFEEDA2
:1001060099FDD0E0FBEF4E4D4C701222DB0302034B
:10011600A5EC2CFCEF33FFEE33FEED33FDED30E7BF
:10012600EB020380EF2BFFEE3AFEED39FDD0E0FB4C
:1001360050130BBB00030203A8ED13FDEE13FEEFF5
:0801460013FFEC13FC0203801F
:10014E00EC4D6011E8497017ED33EC3304600DE4AB
:10015E00FCFFFEFD22E933E8330470F802039E1221
:10016E00036958046009E4CC248150062850090222
:10017E0003A82840030203A5C0E0EB4A7044B980EF
:10018E0006D0E0FB020394EF4E701CBD8008EBFF1F
:10019E00EAFEE9FD80EBE98DF0A4FEE5F002023700
:1001AE00E9CDF9EAFEEBFFEF89F0A4FCE5F0CE898C
:1001BE00F0A42EFFE435F0CD89F0A42DFEE435F049
:1001CE008067EF4E7005BD80D780C3EF8BF0A4AC77
:1001DE00F0EE8BF0A42CFCE435F0F8EF8AF0A42CB2
:1001EE00E5F038FCE433CB8DF0A42CFCE5F03BF8C5
:1001FE00EE8AF0A42CFCE5F038F8E433CF89F0A4B5
:10020E002CFCE5F038CF3400CE89F0A42FFFE5F0BA
:10021E003EFEE433C98DF0A42EFEE5F039CD8AF012
:10022E00A42FFFE5F03EFEE43DFD33D0E0FB50078A
:10023E000BBB000F0203A8EC2CFCEF33FFEE33FEDA
:06024E00ED33FD02038008
:100254000203A8EC5D046005E85904700302039EE0
:10026400120369580460F6EC4860F2EC7004FDFE79
:10027400FF22C860DB2481C85009C398600250067D
:100284000203A59850CAF582E9294B4A7005AB824E
:1002940002039475F0007C1A7880C3EF9BEE9AED0C
:1002A40099400DC3EF9BFFEE9AFEED99FDE842F0F5
:1002B400DC23ACF0D0E0FFD0E0FED0E0FDAB822048
:1002C400E7101BEB60BAEC2CFCEF33FFEE33FEEDD2
:1002D40033FD020380E803F830E705C0F075F00051
:1002E400EF2FFFEE33FEED33FD40B830E7C280AAB6
:1002F40075F020800E75F010800575F0087D007E85
:10030400007F003392D530D50312064AEC334010F7
:10031400EF33FFEE33FEED33FDEC33FCD5F0ED228D
:0E032400E5F0247EA2D513CC92E7CDCEFF22C9
:10033200EDD2E7CD33EC3392D524814006E4FFFEC3
:10034200FDFC22FCE4CFCECDCC24E0501174FF8022
:10035200EDC3CC13CCCD13CDCE13CECF13CF0470BF
:07036200F030D5DE02064A6F
:1006D600E5082497F582E43407F583E005082290BF
:1006E6000794300703900797E475F0011206640239
:1006F60005652000E97F2ED2008018EF540F249064
:10070600D43440D4FF30040BEF24BFB41A00500396
:100716002461FFE50960021509050CE50C70020568
:100726000B30070E900794E475F001120664EF0291
:1007360005AB0218167403D2078003E4C207F50856
:1007460090079412067BE4F509F50BF50CE50960B4
:10075600077F2012071980F5750AFFC201C200C281
:1007660002C203C205C206C2081206E5FF700D30BA
:1007760007057F0012072AAF0CAE0B22B4255FC215
:10078600D5C2041206E5FF24D0B40A00501A75F04B
:100796000A780930D50508B6FF0106C6A426F62054
:1007A600D5047002D20380D924CFB41A00EF5004C6
:1007B600C2E5D204020A1CD20180C6D20080C0D291
:1007C6000280BCD2D580BAD20580B47F2012071928
:1007D6002002077401B5090040F11206D6FF120780
:1007E60019020753D208D20680951206D6FB1206C6
:1007F600D6FA1206D6F94A4B7006791A7A0B7BFF9F
:1008060020022EE509602A7E008E8275830012057D
:100816007E60060EEE650A70F0C2D5EBC0E0EAC057
:10082600E0E9C0E0EE120A7DD0E0F9D0E0FAD0E0CF
:10083600FB120565FF60AAEBC0E0EAC0E0E9C0E094
:10084600120719D0E02401F9D0E03400FAD0E0FB19
:10085600E50A0460DCD50AD98087D20280A2120A92
:100866005F60F7E50A7001041203B3A90A600DE59B
:100876000A600914F50A120B07EF60F3EA30E70283
:10088600F404C3995079EAF4250A0430E701E40434
:10089600F50A800D120A5F60C1EA050A250A1203ED
:1008A600B3EA9007C3F030E701E4250A04D50A0449
:1008B60020050114120A7DE4C0E0120B079007C35D
:1008C600E0601320E70714F0120701802204F0D03D
:1008D600E014C0E07F00120701E50A60071206F87F
:1008E600150A800B3005031206F8D0E0020753D034
:1008F600E00480C4120A5F609EE50A041203B39006
:1009060007C3EAF0E50A2005026001042404120A7E
:010916007D63
:1009170074FF04C0E0120B07120701E50A20050265
:1009270060031206F8D0E0B50AE87F4512070B907E
:1009370007C3E07F2B30E7047F2DF404C0E01207E4
:1009470019D0E075F00A84C0F0120702D0E0120750
:1009570002020753791080027908C206C20880088C
:10096700D2D5790A8004790AC2D5E50A047002F55E
:100977000AE4FAFDFEFF1206D6FC7B0820011312DB
:1009870006D6FD7B1030000A1206D6FE1206D6FFE9
:100997007B20EC3382D592D55013C3E43000069FF9
:1009A700FFE49EFEE42001039DFDE49CFCE4CBF8FC
:1009B700C201EC700CCFCECDCCE824F8F870F380F0
:1009C70017C3EF33FFEE33FEED33FDEC33FCEB33B0
:1009D700FB994002FB0FD8E9EB300105F8D0E0C4E2
:1009E70048B201C0E00AEC4D4E4F78207B0070C240
:1009F700EAB50A0040BCC0E0120A7FD0F0D0E02080
:100A07000104C4C0E0C4B201C0F0120702D0F0D59F
:100A1700F0EB02075312068407F053095B5807C12E
:100A27004C07BD42095F4F09674409674907D64329
:100A3700096D55089A4608FA450864470B3A500766
:100A4700C52D07C92E07EC2B07CD2307EA200B235B
:100A57002A078548000007E4E50AB4FF03750A067C
:100A67001206D6FC1206D6FD1206D6FE1206D6FFD1
:100A77009007BC0203F0790AA2D5200314300509B8
:100A8700B910020404B9080104A2D52006025001D6
:100A9700042002689202B509005034C0E07F20307C
:100AA70003197F30A20272067205500F120AD6C2CE
:100AB70002C206C205C2087F30800F300503E9C0B5
:100AC700E0120719300503D0E0F9D0E0B509CC30C2
:100AD70005177F30B9100C1207197F583004077FAC
:100AE700788003B908031207193002057F2D020722
:100AF700197F202008F87F2B2006F322920280CF4F
:100B07007F00B40700500B24BCF582E43407F5835B
:100B1700E0FF22286E756C6C2900D2011206D630D0
:100B270001F8C201780930D50108F60207852D5072
:100B37004349581206D62403B405004001E4900B3C
:100B4700359312070A743A12070AD2037509040289
:020B5700095B38
:10036900E9D2E7C933E833F892D5EDD2E7CD33ECDA
:0703790033FC5002B2D52253
:10038000EC30E7100FBF000C0EBE00080DBD0004DE
:100390000BEB6014A2D5EB13FCED92E7FD2274FF8A
:1003A000FCFDFEFF22E480F8A2D574FF13FC7D80E3
:0303B000E480EFF7
:1003B300F920E73624F950037907E4F42402FBE536
:1003C30082158270021583DBF6E024FB501BE96083
:1003D30014E4F0E582158270021583E004F0B40A98
:0D03E30008E4F0D9EE7401F00A22C2D52220
:1003F000ED33EC3392D5FA602AB4FF33EDC2E77BDC
:10040000FF60067A047915E4227A04791E20D50467
:100410007A047919224E614E002B494E46002D492F
:100420004E4600E47A08F0A3DAFC7B00740722C091
:1004300083C082ECC0E0EDC0E0EEC0E0EFC0E0EAD7
:1004400075F010A4CAABF075F04DA42BFBE435F0A9
:10045000FCEA2410FAEB34C5FBEC34D9FCEDC2E71E
:10046000FF75F056A4F42411C5F0F434C58FF0A440
:100470002AE5F03BE43CF020E714120525D0E0FF2C
:10048000D0E0FED0E0FDD0E0FC1202578014F4046E
:10049000120525D0E0FFD0E0FED0E0FDD0E0FC1258
:1004A000014ED082D083E0FAEDD2E7CD33EC332495
:1004B00082FBE4C3CF33CFCE33CECD33CD33DBF3AA
:1004C0007B0775F00A846004F0A31B0AE5F0F0A333
:1004D0008FF0740AA4FFACF08EF0740AA42CFEAC6A
:1004E000F050010C8DF0740AA42CFDE435F0F0A35B
:0504F000DBDE740722B1
:1004F5003F8000004120000042C80000447A00000F
:10050500461C400047C35000497424004B18968090
:100515004CBEBC205A0E1BCA6753C21C749DC5AE87
:10052500FB60065407601C2323120553EB54386007
:100535000912053F12054E12014EECF8EDF9EEFADF
:10054500EFCB22EB12054E80F1543803241C9004A6
:10055500F5FE93FC0EEE93FD0EEE930ECE93FF2269
:1015C9000216F6E493A3F8E493A34003F68001F22C
:1015D90008DFF48029E493A3F85407240CC8C33323
:1015E900C4540F4420C8834004F456800146F6DFF2
:1015F900E4800B0102040810204080900D91E47EE4
:10160900019360BCA3FF543F30E509541FFEE493E6
:10161900A360010ECF54C025E060A840B8E493A3AD
:10162900FAE493A3F8E493A3C8C582C8CAC583CAD8
:10163900F0A3C8C582C8CAC583CADFE9DEE780BE90
:010F8400006C
:10056500BB010689828A83E0225002E722BBFE0294
:09057500E32289828A83E49322C7
:10057E00BB010CE58229F582E5833AF583E0225032
:10058E0006E92582F8E622BBFE06E92582F8E2227C
:0D059E00E58229F582E5833AF583E4932296
:1005AB00BB010689828A83F0225002F722BBFE012F
:0205BB00F32229
:1005BD00F8BB010DE58229F582E5833AF583E8F074
:1005CD00225006E92582C8F622BBFE05E92582C820
:0205DD00F22208
:1005DF00BC000BBE0029EF8DF084FFADF022E4CC00
:1005EF00F875F008EF2FFFEE33FEEC33FCEE9DECC9
:1005FF00984005FCEE9DFE0FD5F0E9E4CEFD22ED0F
:10060F00F8F5F0EE8420D21CFEADF075F008EF2F58
:10061F00FFED33FD4007985006D5F0F222C398FD49
:05062F000FD5F0EA22E6
:10063400A3F8E0C5F025F0F0E58215827002158379
:06064400E0C838F0E822D6
:0E064A00C3E49FFFE49EFEE49DFDE49CFC22C1
:0C065800ECF0A3EDF0A3EEF0A3EFF02215
:10066400F8E0FBA3A3E0F925F0F0E582158270021F
:070674001583E0FA38F022C3
:09067B00EBF0A3EAF0A3E9F02280
:10068400D083D082F8E4937012740193700DA3A305
:1006940093F8740193F5828883E473740293686019
:0606A400EFA3A3A380DF19
:10181600EFB40A07740D121821740A309811A899AA
:10182600B8130CC2983098FDA899C298B811F63032
:0718360099FDC299F599220A
:0A18E5003098FDAF99C2987E0022F2
:1006AA00EF4E6012EF60010EEDBB010B89828A8367
:1006BA00F0A3DFFCDEFA2289F05007F709DFFCA974
:0C06CA00F022BBFEFCF309DFFCA9F022CB
:00000001FF
