:03000000021608DD
:1016080043AF01787FE4F6D8FD75A000758121020B
:02161800165565
:1015700020256320007C0A003A004C612074656DD0
:10158000706572617475726120736F6E20252E32E2
:101590006620677261646F732063656C736975732D
:1015A0000A0048617920756E612068756D65646117
:1015B000642064656C20252E32662025630A004174
:1015C000545330303D303030340D004154533032BC
:1015D0003D303030330D0041545330333D303030E6
:1015E000303030303030303030303030330D00413A
:1015F000542B4A4E0D002563000A000A436F6E6E9D
:0816000065637465640A0D00C6
:100D91004101030441012F0045010400001008181E
:100DA1004500370000100717450032000010001001
:100DB100450028000010031345002D000011051403
:100DC10045056900001102134501320000110110AF
:100DD10044004E00121006470002000210091230B2
:100DE100394700F70002100912303047055400025C
:100DF10012091230394503420000110E0F450062FD
:100E01000000110F1E45033D0000100F1F4500FE9D
:100E11000000120F1D450347000011100146055D3A
:100E2100000110100A0B45012400001112034603B2
:100E31003700011012080B45005700001119085F17
:100E41000009001A102F0630393030ABCD000000F8
:100E5100000000000000000000123448656C6C6F57
:100E61002145010A000011203155056E00101020A6
:100E710060ABCD0000000000000000000000001287
:100E8100345500AC0010102060ABCD000000000014
:100E910000000000000000341247010F0002102181
:100EA10000303945054C0000102434470583000209
:100EB10010112512344E011600091014674D794E98
:100EC1006574776F726B4E003C0008101C89FD122F
:100ED100340038000000005500970010101515006F
:100EE100112233445566778899AABBCCDDEEFF4DBC
:100EF100007100081013831122334455667788501E
:100F010000CF000B1016074D7950617373776F7224
:100F1100646446005C0001101909065800DF0013E3
:100F2100102700ABCD000000000000000000000011
:100F3100003412600001410096014100930241001A
:100F4100CE03410109044101290541056806450017
:100F510052000011170655007E0010101769383431
:100F61003034443230303030303030354643450152
:100F71002A0000101B0B45006C0000121B094200E7
:030F81000000006D
:10191000AE03AC05AD07AF04AB07900597EEF07FC3
:041920000102178722
:0918AE00900591E0FF7B01E4FDCF
:1018B700AE03AC05AD07AF04AB07900597EEF0E4B8
:0418C700FF0217877E
:0B188E009007D4EBF0A3EAF0A3E9F010
:101899001219369007D4E0FBA3E0FAA3E0F9EF129E
:0418A90005AB7F0309
:0118AD002218
:10112B00900794EBF0A3EAF0A3E9F0A3ECF0A3EDA6
:01113B00F0C3
:10113C00E490079CF0A3F0A3F0A304F0E4A3F0A3C5
:10114C00F0A304F0900797E0FEA3E0FF90079CE06B
:10115C00FCA3E0FDC39FEC9E400302124B9007944E
:10116C00E0FBA3E0FAA3E0F98D828C8312057E707C
:10117C00489007A2E0FF900799E0FBA3E0FAA3E0F8
:10118C00F99007A0E0FCA3E0F5828C83EF1205BD7B
:10119C009007A27401F090079EE475F001120634DA
:1011AC00AFF09007A0F0A3EFF090079DE004F07073
:1011BC009390079CE004F0808B900794E0FBA3E0F5
:1011CC00FAA3E0F990079CE475F00112063485F05F
:1011DC0082F58312057EFF900799E0FBA3E0FAA34A
:1011EC00E0F990079EE475F00112063485F082F563
:1011FC0083EF1205BD9007A2E004F0E0FF3395E009
:10120C00FEEFF44E6003021150900799E0FBA3E04F
:10121C00FAA3E0F99007A0E0FCA3E0F5828C83EF41
:10122C001205BD9007A27401F090079EE475F001C1
:10123C00120634AFF09007A0F0A3EFF0021150901B
:10124C0007A2E0FF900799E0FBA3E0FAA3E0F99076
:10125C0007A0E0FCA3E0F5828C83EF1205BD90079C
:06126C009EE0FEA3E0FF7E
:011272002259
:100B590090058BEBF0A3EAF0A3E9F0A3ECF0A3ED89
:010B6900F09B
:100B6A00E4900591F0FF900590E0A3F00FEF700E6E
:100B7A00E0FF7B017D011218B77EFF7FFE22900500
:040B8A0091E0705333
:100B8E009000CAE0FE3395E0900592F0A3CEF0906F
:100B9E0000C4E4F0A37405F0E4A3F0A3F0A304F002
:100BAE00E4A3F0A3F0A3F0FE7F05FCFD90058BE01F
:100BBE00FBA3E0FAA3E0F91206AA900592E07002F8
:100BCE00A3E0700C900591E0FFE4FB7D01020D7E29
:030BDE00020D8184
:100BE100900591E07003020D549000C8E06401602B
:100BF10003020D54C39000C7E094029000C6E06464
:100C010080948040739000C9E0706D90058BE0FB8B
:100C1100A3E0FAA3E0F990000112057EFD7C001229
:100C21000565FEE42DFFEC3EFE9000C5E02FF0903F
:100C310000C4E03EF090058EE0FEA3E0FFD39000FB
:100C4100C5E09F9000C4E09E4003020CE29000C505
:100C5100E024FBFF9000C4E034FFFE7C007D0090A7
:100C6100058BE0FBA3E0FAA3E02405F9E43AFA12CC
:100C710006AA9000C97401F09000CAE07073900553
:100C810091E0FFC394D0500CEF149000CAF0A3740C
:100C910001F08055900591E0B4D00A149000CAF09B
:100CA100E4A3F08044900591E0FF64D16004EFB4C7
:100CB100D202802D900591E0FFC394E0500CE490A6
:100CC10000CAF0EF2430A3F0801F900591E0FFC32C
:100CD10094FF500DEF24209000CAF0A37402F0801D
:100CE100081218AE7EFF7FFF229000CAE070668076
:100CF100489000C4E0FEA3E0FFA3E0FCA3E0FDC335
:100D01009FEE6480F8EC6480985018900591E0FFA4
:100D110090058BE0FBA3E0FAA3E0F98D828C83EFD1
:100D21001205BD9000C7E004F070069000C6E00413
:100D3100F09000CAE014F0701CA3E0FF3395E0FED0
:100D41009000C7E02FF09000C6E03EF0E49000CBA9
:100D5100F08002802B9000C4E0FEA3E0FFC390006E
:100D6100C7E09FEE6480F89000C6E064809840146C
:100D7100E49000C8F0900591E0FFE4FBFD1218B784
:0F0D8100E4FEFF221218AE9000C4E0FEA3E0FFD4
:010D90002240
:10178700900594EFF0EB60166006900597E0700EF9
:101797007BFF7A157970900797EDF0120741900556
:1017A70097E07BFF60067A15797580047A1579785A
:0417B70012074122B2
:0B0003009007C4EBF0A3EAF0A3E9F0C3
:10000E009007CBEBF0A3EAF0A3E9F09007C974FFD9
:10001E00F5F0120634FED3E5F09400EE940040168F
:10002E009007CBE0FBA3E475F001120634A9F0FAB9
:10003E00ED1205AB80D59007C4E0FBA3E0FAA3E078
:01004E00F9B8
:01004F00228E
:1019240075A9A4E4F5A3F5A2F5A4F5A58FA675A160
:0219340053223C
:0719490075EFAC75D8032215
:1018CB00759852758780758921758DFAD28ED2994C
:0718DB00C2ACC2ABD2AF2288
:1018E200D2DC20DCFDE5DA540FFEADD97C00E42D1C
:0618F200FFEC3EFEC2DC2B
:0118F80022CD
:09194000D287D285C283D2802235
:1017ED00A2099283C2872086FD900131E5A0F0D237
:1017FD0087C2852084FD900130E5A0F0D285E0FE02
:0A180D00A3E07C002400FFEC3EFE87
:0118170022AE
:0300530002184050
:10184000C0E0C083C082C0D0900553E004F0E0B493
:101850000206C280D280E4F09000697401F0D0D01A
:07186000D082D083D0E032FA
:10127300900001E004F07006900000E004F090009C
:101283006AE0FCA3E0FD900000E0FEA3E0FF12058E
:10129300DFED4C707BC2091217ED9007CEEEF0A381
:1012A300EFF0FDAC06EC1202F97B007A6679D57893
:1012B300C612005D120332900067EEF0A3EFF090C8
:1012C3000067E0FCA3E0FDE41202F9E4FBFA79C84D
:1012D30078421202579007971206587BFF7A1579C6
:1012E3007A120741900067E0FEA3E0FFC39419EE72
:1012F3009400400A9007D2E4F0A304F08012C3EFF5
:101303009419EE940050099007D2E4F0A37402F00C
:10131300E4FFFE0FBF00010EEF64644E70F5900012
:10132300CCE0FCA3E0FD900000E0FEA3E0FF12058B
:10133300DFED4C705ED2091217ED9007D0EEF0A3EB
:10134300EFF0FDAC06EC1202F9E4FBFA79FE784209
:1013530012014EE4FBFA79C87842120257120332A3
:101363009000C2EEF0A3EFF09000C2E0FCA3E0FD1A
:10137300E41202F9E4FBFA79C878421202579007A3
:101383009712065890079B7425F07BFF7A1579A274
:03139300120741FD
:011396002234
:0417BB00E4FD7F4F7B
:0817BF009007D7EFF0A3EDF055
:1017C700A37401F01219369007D7E0B50707E49024
:1017D70007D9F0800A9007D8E0B401031218679080
:0517E70007D9E070DFEE
:0117EC0022DA
:1016F6009007DAEFF07BFF7A1579BF1207411217D0
:10170600BBE4FD7F4B1217BF7BFF7A1579CB12071F
:10171600411217BBE4FD7F4B1217BF7BFF7A157989
:10172600D71207411217BBE4FD7F4B1217BF7BFF91
:101736007A1579EF1207411217BBE4FD7F4B0217AA
:01174600BFE3
:10181800E4FD7F551217BFE4FD7F3A1217BF7D0123
:101828007F2C1217BF7F09121867E4FD7F3D12173E
:08183800BF7D017F030217BF11
:10169A00900794EBF0A3EAF0A3E9F0A3ECF0A3ED32
:0116AA00F04F
:1016AB00E4A3F0FDFCD3900798E09D900797E09C96
:1016BB004033900103E06D7001EC900799601DE0E1
:1016CB00FF900794E0FBA3E0FAA3E0F98D828C83F3
:1016DB0012057EFEEF6E900799F08002E0F00DBDD3
:0A16EB0000010C80C0900799E0FF99
:0116F50022D2
:0414B0007B017C0040
:1014B40090058BEBF0A3EAF0A3E9F0A3ECF0A3ED25
:0114C400F037
:1014C500E4900790F0A3F0A3F0A3F090058BE0FB68
:1014D500A3E0FAA3E0F912169A90058BE0FBA3E0CE
:1014E500FAA3E0F9900004EF1205BD90058EE0FC2B
:1014F500A3E0FD9007997401F0A37405F0A374901F
:10150500F012112B900792EEF0A3EFF07BFF7A1506
:1015150079F690012FE0900797F0120741E49007C4
:1015250090F0A3F0900792E0FEA3E0FF900790E013
:10153500FCA3E0FDC39FEC9E50287BFF7A1579F64E
:1015450074902DF58274053CF583E0900797F012B1
:101555000741900791E004F070CA900790E004F00D
:0B15650080C27BFF7A1579F902074174
:10139700C390055CE0940690055BE094005025122D
:1013A700193690055BE0FCA3E0244CF58274033CFE
:1013B700F583EFF090055CE004F070D490055BE0F6
:1013C70004F080CC900566E4F0A304F0900566E095
:1013D700FEA3E0FFC39406EE940050287BFF7A1526
:1013E70079F6744C2FF58274033EF583E0900797E6
:1013F700F0120741900567E004F070D0900566E0B1
:1014070004F080C87BFF7A1579F9120741E490054B
:1014170066F0A3F0900566E0FEA3E0FFC39406EE36
:101427009400502C7B017A017937744C2FF5827424
:10143700033EF583E0900590F07D067C00120B5982
:10144700900567E004F070CC900566E004F080C476
:10145700E4900566F0A3F0900566E0FEA3E0FFC305
:101467009405EE94005041EF4E7BFF7A1579F670A4
:101477000F74372FF58274013EF583E0240E801137
:10148700900566E0FEA3E02437F58274013EF583FC
:10149700E0900797F0120741900567E004F070B7F6
:0914A700900566E004F080AF221C
:0718F900E490055BF0A3F091
:10190000900069E0B40102E4F0900069E060FA221E
:100F850090058AEFF07A05794C7D051214B012139D
:100F9500971218F97BFF7A1579F91207417BFF7AC9
:100FA5001579F912074190058AE0900061F07B01FF
:100FB5007A00795C7D067C001214B4121397E490D4
:100FC500055BF0A3F07BFF7A1579F91207417BFFEA
:100FD5007A1579F91207411219007B017A037937DD
:100FE5007D067C001214B41213977BFF7A1579F9EC
:100FF5001207417BFF7A1579F91207411218F97B1F
:10100500017A0579837D077C001214B41213977B4E
:10101500FF7A1579F91207417BFF7A1579F91207DD
:1010250041E490055BF0A3F07B017A0179167D0E12
:10103500FC1214B41213977BFF7A1579F912074144
:101045007BFF7A1579F91207411218F97A00793C74
:101055007D0E1214B01213977BFF7A1579F91207DA
:10106500417BFF7A1579F91207411218F97B017A4C
:101075000079977D157C001214B41213977BFF7AC3
:101085001579F91207417BFF7A1579F9120741E4C1
:1010950090055BF0A3F07B017A0079717D0DFC1260
:1010A50014B41213977BFF7A1579F91207417BFF68
:1010B5007A1579F91207411218F97B017A0079CF6F
:1010C5007D107C001214B41213977BFF7A1579F901
:1010D5001207417BFF7A1579F91207411218F97B3E
:1010E500017A00797E7D157C001214B41213977B6A
:1010F500FF7A1579F91207417BFF7A1579F91207FD
:10110500411218F97B017A0179047D057C001214DE
:10111500B41213977BFF7A1579F91207417BFF7A91
:061125001579F9020741F3
:10174700E4900553F0900069F07F051219241219EF
:10175700491218CB121940A3E4F0A304F09000CC6F
:10176700E4F0A37405F0A3E0FF120F857BFF7A1561
:1017770079FB120741900069E0B401F9E4F080F5C4
:1000560002039EE86480F8E933E83360110460F037
:10006600ED33EC337009E8FCE9FDEAFEEBFF220410
:1000760060DED3EB9FEA9EE99DE8C2E78CF0C2F70B
:1000860095F0400CE8CCF8E9CDF9EACEFAEBCFFBD7
:1000960012036985D0F05804700320D5B3E80470C4
:1000A600075002B2D50203A892D5EC0460F7E4CC5F
:1000B600C0E0C398F8603B94186008400DD0E0FBA0
:1000C600020380E4FBFAC9FC8028E830E406E4C9B0
:1000D600FBE4CAFCE830E305E4C9CACBFCE85407F4
:1000E6006010F8C3E913F9EA13FAEB13FBEC13FCFF
:1000F600D8F130F52FC3E49CFCEF9BFFEE9AFEEDA2
:1001060099FDD0E0FBEF4E4D4C701222DB0302034B
:10011600A5EC2CFCEF33FFEE33FEED33FDED30E7BF
:10012600EB020380EF2BFFEE3AFEED39FDD0E0FB4C
:1001360050130BBB00030203A8ED13FDEE13FEEFF5
:0801460013FFEC13FC0203801F
:10014E00EC4D6011E8497017ED33EC3304600DE4AB
:10015E00FCFFFEFD22E933E8330470F802039E1221
:10016E00036958046009E4CC248150062850090222
:10017E0003A82840030203A5C0E0EB4A7044B980EF
:10018E0006D0E0FB020394EF4E701CBD8008EBFF1F
:10019E00EAFEE9FD80EBE98DF0A4FEE5F002023700
:1001AE00E9CDF9EAFEEBFFEF89F0A4FCE5F0CE898C
:1001BE00F0A42EFFE435F0CD89F0A42DFEE435F049
:1001CE008067EF4E7005BD80D780C3EF8BF0A4AC77
:1001DE00F0EE8BF0A42CFCE435F0F8EF8AF0A42CB2
:1001EE00E5F038FCE433CB8DF0A42CFCE5F03BF8C5
:1001FE00EE8AF0A42CFCE5F038F8E433CF89F0A4B5
:10020E002CFCE5F038CF3400CE89F0A42FFFE5F0BA
:10021E003EFEE433C98DF0A42EFEE5F039CD8AF012
:10022E00A42FFFE5F03EFEE43DFD33D0E0FB50078A
:10023E000BBB000F0203A8EC2CFCEF33FFEE33FEDA
:06024E00ED33FD02038008
:100254000203A8EC5D046005E85904700302039EE0
:10026400120369580460F6EC4860F2EC7004FDFE79
:10027400FF22C860DB2481C85009C398600250067D
:100284000203A59850CAF582E9294B4A7005AB824E
:1002940002039475F0007C1A7880C3EF9BEE9AED0C
:1002A40099400DC3EF9BFFEE9AFEED99FDE842F0F5
:1002B400DC23ACF0D0E0FFD0E0FED0E0FDAB822048
:1002C400E7101BEB60BAEC2CFCEF33FFEE33FEEDD2
:1002D40033FD020380E803F830E705C0F075F00051
:1002E400EF2FFFEE33FEED33FD40B830E7C280AAB6
:1002F40075F020800E75F010800575F0087D007E85
:10030400007F003392D530D50312064AEC334010F7
:10031400EF33FFEE33FEED33FDEC33FCD5F0ED228D
:0E032400E5F0247EA2D513CC92E7CDCEFF22C9
:10033200EDD2E7CD33EC3392D524814006E4FFFEC3
:10034200FDFC22FCE4CFCECDCC24E0501174FF8022
:10035200EDC3CC13CCCD13CDCE13CECF13CF0470BF
:07036200F030D5DE02064A6F
:1006D600E5082497F582E43407F583E005082290BF
:1006E6000794300703900797E475F0011206640239
:1006F60005652000E97F2ED2008018EF540F249064
:10070600D43440D4FF30040BEF24BFB41A00500396
:100716002461FFE50960021509050CE50C70020568
:100726000B30070E900794E475F001120664EF0291
:1007360005AB0218677403D2078003E4C207F50805
:1007460090079412067BE4F509F50BF50CE50960B4
:10075600077F2012071980F5750AFFC201C200C281
:1007660002C203C205C206C2081206E5FF700D30BA
:1007760007057F0012072AAF0CAE0B22B4255FC215
:10078600D5C2041206E5FF24D0B40A00501A75F04B
:100796000A780930D50508B6FF0106C6A426F62054
:1007A600D5047002D20380D924CFB41A00EF5004C6
:1007B600C2E5D204020A1CD20180C6D20080C0D291
:1007C6000280BCD2D580BAD20580B47F2012071928
:1007D6002002077401B5090040F11206D6FF120780
:1007E60019020753D208D20680951206D6FB1206C6
:1007F600D6FA1206D6F94A4B7006791A7A0B7BFF9F
:1008060020022EE509602A7E008E8275830012057D
:100816007E60060EEE650A70F0C2D5EBC0E0EAC057
:10082600E0E9C0E0EE120A7DD0E0F9D0E0FAD0E0CF
:10083600FB120565FF60AAEBC0E0EAC0E0E9C0E094
:10084600120719D0E02401F9D0E03400FAD0E0FB19
:10085600E50A0460DCD50AD98087D20280A2120A92
:100866005F60F7E50A7001041203B3A90A600DE59B
:100876000A600914F50A120B07EF60F3EA30E70283
:10088600F404C3995079EAF4250A0430E701E40434
:10089600F50A800D120A5F60C1EA050A250A1203ED
:1008A600B3EA9007C3F030E701E4250A04D50A0449
:1008B60020050114120A7DE4C0E0120B079007C35D
:1008C600E0601320E70714F0120701802204F0D03D
:1008D600E014C0E07F00120701E50A60071206F87F
:1008E600150A800B3005031206F8D0E0020753D034
:1008F600E00480C4120A5F609EE50A041203B39006
:1009060007C3EAF0E50A2005026001042404120A7E
:010916007D63
:1009170074FF04C0E0120B07120701E50A20050265
:1009270060031206F8D0E0B50AE87F4512070B907E
:1009370007C3E07F2B30E7047F2DF404C0E01207E4
:1009470019D0E075F00A84C0F0120702D0E0120750
:1009570002020753791080027908C206C20880088C
:10096700D2D5790A8004790AC2D5E50A047002F55E
:100977000AE4FAFDFEFF1206D6FC7B0820011312DB
:1009870006D6FD7B1030000A1206D6FE1206D6FFE9
:100997007B20EC3382D592D55013C3E43000069FF9
:1009A700FFE49EFEE42001039DFDE49CFCE4CBF8FC
:1009B700C201EC700CCFCECDCCE824F8F870F380F0
:1009C70017C3EF33FFEE33FEED33FDEC33FCEB33B0
:1009D700FB994002FB0FD8E9EB300105F8D0E0C4E2
:1009E70048B201C0E00AEC4D4E4F78207B0070C240
:1009F700EAB50A0040BCC0E0120A7FD0F0D0E02080
:100A07000104C4C0E0C4B201C0F0120702D0F0D59F
:100A1700F0EB02075312068407F053095B5807C12E
:100A27004C07BD42095F4F09674409674907D64329
:100A3700096D55089A4608FA450864470B3A500766
:100A4700C52D07C92E07EC2B07CD2307EA200B235B
:100A57002A078548000007E4E50AB4FF03750A067C
:100A67001206D6FC1206D6FD1206D6FE1206D6FFD1
:100A77009007BC0203F0790AA2D5200314300509B8
:100A8700B910020404B9080104A2D52006025001D6
:100A9700042002689202B509005034C0E07F20307C
:100AA70003197F30A20272067205500F120AD6C2CE
:100AB70002C206C205C2087F30800F300503E9C0B5
:100AC700E0120719300503D0E0F9D0E0B509CC30C2
:100AD70005177F30B9100C1207197F583004077FAC
:100AE700788003B908031207193002057F2D020722
:100AF700197F202008F87F2B2006F322920280CF4F
:100B07007F00B40700500B24BCF582E43407F5835B
:100B1700E0FF22286E756C6C2900D2011206D630D0
:100B270001F8C201780930D50108F60207852D5072
:100B37004349581206D62403B405004001E4900B3C
:100B4700359312070A743A12070AD2037509040289
:020B5700095B38
:10036900E9D2E7C933E833F892D5EDD2E7CD33ECDA
:0703790033FC5002B2D52253
:10038000EC30E7100FBF000C0EBE00080DBD0004DE
:100390000BEB6014A2D5EB13FCED92E7FD2274FF8A
:1003A000FCFDFEFF22E480F8A2D574FF13FC7D80E3
:0303B000E480EFF7
:1003B300F920E73624F950037907E4F42402FBE536
:1003C30082158270021583DBF6E024FB501BE96083
:1003D30014E4F0E582158270021583E004F0B40A98
:0D03E30008E4F0D9EE7401F00A22C2D52220
:1003F000ED33EC3392D5FA602AB4FF33EDC2E77BDC
:10040000FF60067A047915E4227A04791E20D50467
:100410007A047919224E614E002B494E46002D492F
:100420004E4600E47A08F0A3DAFC7B00740722C091
:1004300083C082ECC0E0EDC0E0EEC0E0EFC0E0EAD7
:1004400075F010A4CAABF075F04DA42BFBE435F0A9
:10045000FCEA2410FAEB34C5FBEC34D9FCEDC2E71E
:10046000FF75F056A4F42411C5F0F434C58FF0A440
:100470002AE5F03BE43CF020E714120525D0E0FF2C
:10048000D0E0FED0E0FDD0E0FC1202578014F4046E
:10049000120525D0E0FFD0E0FED0E0FDD0E0FC1258
:1004A000014ED082D083E0FAEDD2E7CD33EC332495
:1004B00082FBE4C3CF33CFCE33CECD33CD33DBF3AA
:1004C0007B0775F00A846004F0A31B0AE5F0F0A333
:1004D0008FF0740AA4FFACF08EF0740AA42CFEAC6A
:1004E000F050010C8DF0740AA42CFDE435F0F0A35B
:0504F000DBDE740722B1
:1004F5003F8000004120000042C80000447A00000F
:10050500461C400047C35000497424004B18968090
:100515004CBEBC205A0E1BCA6753C21C749DC5AE87
:10052500FB60065407601C2323120553EB54386007
:100535000912053F12054E12014EECF8EDF9EEFADF
:10054500EFCB22EB12054E80F1543803241C9004A6
:10055500F5FE93FC0EEE93FD0EEE930ECE93FF2269
:10161A00021747E493A3F8E493A34003F68001F288
:10162A0008DFF48029E493A3F85407240CC8C333D1
:10163A00C4540F4420C8834004F456800146F6DFA0
:10164A00E4800B0102040810204080900D91E47E92
:10165A00019360BCA3FF543F30E509541FFEE49395
:10166A00A360010ECF54C025E060A840B8E493A35C
:10167A00FAE493A3F8E493A3C8C582C8CAC583CA87
:10168A00F0A3C8C582C8CAC583CADFE9DEE780BE3F
:010F8400006C
:10056500BB010689828A83E0225002E722BBFE0294
:09057500E32289828A83E49322C7
:10057E00BB010CE58229F582E5833AF583E0225032
:10058E0006E92582F8E622BBFE06E92582F8E2227C
:0D059E00E58229F582E5833AF583E4932296
:1005AB00BB010689828A83F0225002F722BBFE012F
:0205BB00F32229
:1005BD00F8BB010DE58229F582E5833AF583E8F074
:1005CD00225006E92582C8F622BBFE05E92582C820
:0205DD00F22208
:1005DF00BC000BBE0029EF8DF084FFADF022E4CC00
:1005EF00F875F008EF2FFFEE33FEEC33FCEE9DECC9
:1005FF00984005FCEE9DFE0FD5F0E9E4CEFD22ED0F
:10060F00F8F5F0EE8420D21CFEADF075F008EF2F58
:10061F00FFED33FD4007985006D5F0F222C398FD49
:05062F000FD5F0EA22E6
:10063400A3F8E0C5F025F0F0E58215827002158379
:06064400E0C838F0E822D6
:0E064A00C3E49FFFE49EFEE49DFDE49CFC22C1
:0C065800ECF0A3EDF0A3EEF0A3EFF02215
:10066400F8E0FBA3A3E0F925F0F0E582158270021F
:070674001583E0FA38F022C3
:09067B00EBF0A3EAF0A3E9F02280
:10068400D083D082F8E4937012740193700DA3A305
:1006940093F8740193F5828883E473740293686019
:0606A400EFA3A3A380DF19
:10186700EFB40A07740D121872740A309811A89908
:10187700B8130CC2983098FDA899C298B811F630E1
:0718870099FDC299F59922B9
:0A1936003098FDAF99C2987E0022A0
:1006AA00EF4E6012EF60010EEDBB010B89828A8367
:1006BA00F0A3DFFCDEFA2289F05007F709DFFCA974
:0C06CA00F022BBFEFCF309DFFCA9F022CB
:00000001FF
